:100000000C949C0B0C94CD0B0C94CD0B0C94CD0B41
:100010000C94CD0B0C94CD0B0C94CD0B0C94CD0B00
:100020000C94CD0B0C94CD0B0C94CD0B0C94CD0BF0
:100030000C94CD0B0C94D2220C94CD0B0C94CD0BC4
:100040000C94CD0B0C94CD0B0C94CD0B0C94CD0BD0
:100050000C94F93B0C94CD0B0C94CD0B0C945721C4
:100060000C94CD0B0C940A200C94E11F0C94CD0B36
:100070000C94CD0B0C94CD0B0C94CD0B0C94CD0BA0
:100080000C94CD0B0C94CD0B0C94CD0B0C94CD0B90
:100090000C94B81F0C948F1F0C94CD0B0C94A121C1
:1000A0000C94CD0B0C94CD0B0C94CD0B0C94CD0B70
:1000B0000C94CD0B0C94CD0B0C94CD0B0C94CD0B60
:1000C0000C94CD0B0C94CD0B0C94CD0B0C94661FA3
:1000D0000C943D1F0C94CD0B0C94141F0C94EB1E30
:1000E0000C94CD0B084F784F4A4F314F754A754AE3
:1000F000014F754A014F754A014F014F014F754A33
:10010000014F014F295199516B515251374C374C86
:100110002251374C2251374C225122512251374C17
:10012000225122513C53975369535153F94DF94D84
:100130003653F94D3653F94D365336533653F94D40
:1001400036533653920C990CA20CFC0C4A0DCF106E
:100150002810B710CF10E710FE1701180418071861
:100160000A180D1810181318161819181C18331817
:100170003C1842184518361839183F186118641889
:1001800067186A186D1870187318EC19EE19FA19B7
:10019000EE19FA19FC19FC19AE1DB11DA01DA41D04
:1001A000AA1DE81DB51DB91DBF1DC31DC71DCD1D51
:1001B000D11DD51DE81DDB1DDF1DE31D4F39553950
:1001C0001D3A6F397739BD39CA39184023403E404E
:1001D0005A40764076409240A540B840CE40E0403C
:1001E000F24008411E4134414B4269428742A142DC
:1001F000AB42C042D54208431E4334439443944328
:100200003E435E4307634236B79BD8A71A39685608
:1002100018AEBAAB558C1D3CB7CC5763BD6DEDFD28
:10022000753EF6177231BF000000803F08000000E5
:10023000BE922449123EABAAAA2ABECDCCCC4C3EDB
:1002400000000080BEABAAAAAA3E00000000BF00CA
:100250000000803F0000000000084178D3BB4387C6
:10026000D1133D190E3CC3BD4282AD2B3E68EC82DA
:1002700076BED98FE1A93E4C80EFFFBE01C4FF7F5F
:100280003F000000000000002100240027002A0099
:100290002D003000330001010000040107010A01B4
:1002A00000002200250028002B002E003100340021
:1002B00002010000050108010B01000020002300DD
:1002C000260029002C002F0032000001000003014D
:1002D00006010901050505050705080808080202C9
:1002E00002020A0A080804040404010101010101D0
:1002F00001010303030303030303040707070C0CB3
:100300000C0C0C0C0C0C0202020206060606060679
:1003100006060B0B0B0B0B0B0B0B0102102020081E
:100320000810204010204080020102010804020150
:1003300001020408102040808040201008040201BF
:100340008004020180402010080402010804020118
:10035000010204081020408001020408102040809F
:1003600000000A0B02090C0D0E080703040100002F
:10037000000000000000000000000000000000007D
:10038000000000000000000000000000121110003A
:10039000000000000000000000000000000000005D
:1003A00000000000000020536D61727420436F6EE6
:1003B000666967207C2041636365737320506F69B1
:1003C0006E74200020202020205553422020202021
:1003D00020207C20204C6567616379204D49444989
:1003E000207C2020204170706C654D4944492020BC
:1003F0007C202020426C7565746F6F74682020002B
:10040000202020204C696E656172202020207C20F5
:1004100020202020204C6F6720202020207C2020BE
:1004200020416E74692D4C6F6720202000204E6F94
:100430007C596573002020202053696E676C65200D
:100440002020207C20202020446F75626C652020B5
:1004500020207C20202020204C6F6E672020202030
:10046000207C202020202020312B32202020202002
:100470007C202020202020312B4C20202020207C7C
:100480002020202020312B322B4C202020207C20AB
:100490002020202020322B4C202020202000202033
:1004A000204D6F6D656E7461727920207C20202054
:1004B00020204C61746368202020207C2020202094
:1004C000416E616C6F67202020207C2020204A6FC5
:1004D0006720576865656C20207C20204D6F6D6516
:1004E0006E746172792032207C20204D6F6D656EB4
:1004F000746172792033207C202020204C61746349
:100500006820322020200020202044697361626C22
:1005100065202020207C20202020456E61626C65B3
:10052000202020200020202020204D494449202048
:100530002020207C2020202042616E6B202B202058
:1005400020207C2020202042616E6B202D20202046
:10055000207C202053746172742F50617573652064
:100560007C202020202053746F7020202020207CAD
:1005700020202020205461702020202020207C205A
:10058000202020204D656E7520202020207C2020FA
:100590002020436F6E6669726D2020207C20202011
:1005A00020457363617065202020207C202020205E
:1005B000204E65787420202020207C20202050723E
:1005C0006576696F75732020200030302043307CC1
:1005D0003031204323307C30322044307C30332093
:1005E0004423307C30342045307C30352046307C0C
:1005F0003036204623307C30372047307C3038205E
:100600004723307C30392041307C30412041233039
:100610007C30422042307C30432043317C304420C7
:100620004323317C30452044317C30462044233103
:100630007C31302045317C31312046317C313220D3
:100640004623317C31332047317C313420472331FC
:100650007C31352041317C3136204123317C3137AA
:100660002042317C31382043327C313920432332DF
:100670007C31412044327C3142204423327C31435E
:100680002045327C31442046327C3145204623329D
:100690007C31462047327C3230204723327C323155
:1006A0002041327C3232204123327C3233204232AC
:1006B0007C32342043337C3235204323337C323642
:1006C0002044337C3237204423337C323820453376
:1006D0007C32392046337C3241204623337C3242FF
:1006E0002047337C3243204723337C32442041333C
:1006F0007C3245204123337C32462042337C3330E8
:100700002043347C3331204323347C33322044343F
:100710007C3333204423347C33342045347C3335DC
:100720002046347C3336204623347C33372047340C
:100730007C3338204723347C33392041347C3341A7
:10074000204123347C33422042347C3343204335E0
:100750007C3344204323357C33452044357C334669
:10076000204423357C34302045357C3431204635D7
:100770007C3432204623357C34332047357C343476
:10078000204723357C34352041357C3436204123C5
:10079000357C34372042357C34382043367C34393C
:1007A000204323367C34412044367C344220442389
:1007B000367C34432045367C34442046367C3445F0
:1007C000204623367C34462047367C35302047236C
:1007D000367C35312041367C3532204123367C351C
:1007E000332042367C35342043377C353520432353
:1007F000377C35362044377C3537204423377C35E9
:10080000382045377C35392046377C354120462312
:10081000377C35422047377C3543204723377C35AA
:10082000442041377C3545204123377C35462042E2
:10083000377C36302043387C3631204323387C36B1
:10084000322044387C3633204423387C36342045EB
:10085000387C36352046387C3636204623387C3680
:10086000372047387C3638204723387C36392041BA
:10087000387C3641204123387C36422042387C3651
:10088000432043397C3644204323397C3645204479
:10089000397C3646204423397C37302045397C3733
:1008A000312046397C3732204623397C3733204784
:1008B000397C3734204723397C37352041397C3720
:1008C00036204123397C37372042397C3738204362
:1008D00031307C373920432331307C37412044315B
:1008E000307C374220442331307C3743204531303F
:1008F0007C3744204631307C374520462331307CDC
:100900003746204731307C0030302042616E6B200A
:1009100053656C6563747C3031204D6F64756C6118
:1009200074696F6E207C3032204272656174682079
:10093000436F6E747C303320556E646566696E65F6
:100940006420207C303420466F6F7420436F6E74B7
:10095000726F7C303520506F7274616D656E746F8C
:10096000547C30362044617461456E74724D53423C
:100970007C303720566F6C756D6520202020207CE0
:1009800030382042616C616E6365202020207C300D
:100990003920556E646566696E656420207C30413F
:1009A0002050616E20202020202020207C304220FA
:1009B00045787072657373696F6E207C3043204593
:1009C000666665637420312020207C3044204566B3
:1009D0006665637420322020207C304520556E648B
:1009E0006566696E656420207C304620556E6465BE
:1009F00066696E656420207C31302047656E5075D5
:100A000072706F7365317C31312047656E5075723D
:100A1000706F7365327C31322047656E507572702D
:100A20006F7365337C31332047656E507572706F1C
:100A30007365347C313420556E646566696E656417
:100A400020207C313520556E646566696E656420B2
:100A5000207C313620556E646566696E65642020A1
:100A60007C313720556E646566696E656420207C34
:100A7000313820556E646566696E656420207C316E
:100A80003920556E646566696E656420207C31414D
:100A900020556E646566696E656420207C31422055
:100AA000556E646566696E656420207C314320550F
:100AB0006E646566696E656420207C314420556EE5
:100AC000646566696E656420207C314520556E64DE
:100AD0006566696E656420207C314620556E6465CC
:100AE00066696E656420207C32302042616E6B2026
:100AF00053656C6563747C3231204D6F64756C6135
:100B000074696F6E207C3232204272656174682095
:100B1000436F6E747C323320556E646566696E6512
:100B20006420207C323420466F6F7420436F6E74D3
:100B3000726F7C323520506F7274616D656E746FA8
:100B4000207C32362044617461456E74724C53428D
:100B50007C323720566F6C756D6520202020207CFC
:100B600032382042616C616E6365202020207C3227
:100B70003920556E646566696E656420207C32415B
:100B80002050616E20202020202020207C32422016
:100B900045787072657373696F6E207C32432045AF
:100BA000666665637420312020207C3244204566CF
:100BB0006665637420322020207C324520556E64A7
:100BC0006566696E656420207C324620556E6465DA
:100BD00066696E656420207C33302047656E5075F1
:100BE00072706F7365317C33312047656E5075725A
:100BF000706F7365327C33322047656E507572704A
:100C00006F7365337C33332047656E507572706F38
:100C10007365347C333420556E646566696E656433
:100C200020207C333520556E646566696E656420CE
:100C3000207C333620556E646566696E65642020BD
:100C40007C333720556E646566696E656420207C50
:100C5000333820556E646566696E656420207C3388
:100C60003920556E646566696E656420207C334169
:100C700020556E646566696E656420207C33422071
:100C8000556E646566696E656420207C334320552B
:100C90006E646566696E656420207C334420556E01
:100CA000646566696E656420207C334520556E64FA
:100CB0006566696E656420207C334620556E6465E8
:100CC00066696E656420207C34302044616D7065F7
:100CD00072506564616C7C343120506F7274616D48
:100CE000656E746F207C343220536F7374656E753B
:100CF000746F20207C343320536F667420506564F9
:100D0000616C207C3434204C656761746F20202036
:100D100020207C343520486F6C6420322020202035
:100D2000207C343620536F756E64436F6E7472315D
:100D30007C343720536F756E64436F6E7472327CEF
:100D4000343820536F756E64436F6E7472337C3425
:100D50003920536F756E64436F6E7472347C344106
:100D600020536F756E64436F6E7472357C3442200D
:100D7000536F756E64436F6E7472367C34432053C8
:100D80006F756E64436F6E7472377C344420536F9A
:100D9000756E64436F6E7472387C344520536F7582
:100DA0006E64436F6E7472397C344620536F756E77
:100DB00064436F6E7431307C35302047656E5075FA
:100DC00072706F7365357C35312047656E50757272
:100DD000706F7365367C35322047656E5075727062
:100DE0006F7365377C35332047656E507572706F51
:100DF0007365387C353420506F7274616D656E7424
:100E00006F437C353520556E646566696E65642078
:100E1000207C353620556E646566696E65642020D9
:100E20007C353720556E646566696E656420207C6C
:100E300035382048522056656C6F636974797C356B
:100E40003920556E646566696E656420207C354185
:100E500020556E646566696E656420207C3542208D
:100E600045666665637473203120207C35432045D8
:100E7000666665637473203220207C3544204566A5
:100E80006665637473203320207C35452045666693
:100E900065637473203420207C3546204566666582
:100EA000637473203520207C3630204461746120C7
:100EB000496E632020207C363120446174612044D7
:100EC00065632020207C3632204E52504E204C53F9
:100ED000422020207C3633204E52504E204D53422B
:100EE0002020207C36342052504E204C534220206B
:100EF00020207C36352052504E204D534220202059
:100F0000207C363620556E646566696E65642020E7
:100F10007C363720556E646566696E656420207C7A
:100F2000363820556E646566696E656420207C36AF
:100F30003920556E646566696E656420207C3730A3
:100F400020556E646566696E656420207C373120AB
:100F5000556E646566696E656420207C3732205565
:100F60006E646566696E656420207C373320556E3B
:100F7000646566696E656420207C373420556E6434
:100F80006566696E656420207C373420556E646523
:100F900066696E656420207C373520556E64656611
:100FA000696E656420207C373620556E64656669FD
:100FB0006E656420207C373720556E646566696EE7
:100FC000656420207C373820416C6C536F756E64EB
:100FD0004F66667C3739205265736574416C6C438B
:100FE0006F6E7C3741204C6F63616C436F6E74721F
:100FF0006F7C374220416C6C4E6F7465734F666630
:101000007C3743204F6D6E694D6F64654F66667C1B
:101010003744204F6D6E694D6F6465204F6E7C378D
:1010200045204D6F6E6F4D6F6465204F6E7C374667
:1010300020506F6C794D6F6465204F6E0050726F59
:101040006772616D204368616E67657C20436F6ED7
:1010500074726F6C20436F6465207C20204E6F7427
:1010600065204F6E2F4F6666207C20205069746388
:10107000682042656E64202000143E312D31303AE4
:101080002020202020200000000200F13F0201006B
:101090000000000A000000000A0000153E312D315A
:1010A000363A2020202020200000000200F13F02DC
:1010B000010000000010000000000A0000163E3190
:1010C0002D31363A2020202020200000000200F19F
:1010D0003F02010000000010000000000A0000179D
:1010E0000000000000000000000000000000000000
:1010F00000F13F0E00000000000000000000003D75
:1011000010180000000000000000000000000000B7
:10111000000000F13F0E0000000000000000000091
:101120000008091900000000000000000000000095
:101130000000000000F13F0E000000000000000071
:10114000000000CA051A00000000000000000000B6
:1011500000000000000000F13F0E00000000000051
:10116000000000000025051B00000000000000003A
:10117000000000000000000000F13F0E0000000031
:101180000000000000000007051C00000000000037
:101190000000000000000000000000F13F0E000011
:1011A0000000000000000000009E041D0000000080
:1011B00000000000000000000000000000F13F0EF1
:1011C000000000000000000000000035041E302D6B
:1011D0003132373A2020202020000000000200F1A8
:1011E0003F0300000000007F000000000A00001F15
:1011F000302D3132373A202020202000000000021C
:1012000000F13F0300000000007F000000000A0022
:101210000020302D3132373A2020202020000000DD
:10122000000200F13F0300000000007F000000000A
:101230000A000021496E766572743A202020200051
:101240000000000000F13F0300000000000000006B
:101250000000002D0422436F6E6669726D0000006D
:1012600000000000000500F13F0000000000000049
:1012700000000000000000233E302D313032333AB0
:10128000202000000000000200F13F0400000000E8
:1012900000FF030000000A0000243E302D313032F0
:1012A000333A202000000000000200F13F0400005B
:1012B000000000FF030000000A00002500000000FD
:1012C00000000000000000000000000000F13F0EE0
:1012D00000000000000000000000000004260000E4
:1012E000000000000000000000000000000000F10D
:1012F0003F0E0000000000000000000000C40327B3
:1013000000000000000000000000000000000000DD
:1013100000F13F0E00000000000000000000000788
:101320000528000000000000000000000000000090
:10133000000000F13F0E000000000000000000006F
:101340000007052900000000000000000000000068
:101350000000000000F13F0E00000000000000004F
:1013600000000007052A0000000000000000000047
:1013700000000000000000F13F0E0000000000002F
:10138000000000000007052B000000000000000026
:10139000000000000000000000F13F0E000000000F
:1013A0000000000000000007052D312D393A2020F3
:1013B0002020202000000000000200F13F0100007A
:1013C00000000109000000000A00002E312D393A0A
:1013D00020202020202000000000000200F13F011A
:1013E000000000000109000000000A00002F0000BA
:1013F000000000000000000000000000000000F1FC
:101400003F0E0000000000000000000000A60330B6
:10141000436F6E6669726D000000000000000005F9
:1014200000F13F000000000000000000000000008C
:10143000000A42616E6B7320536574757000000082
:101440000000000B0B506564616C7320536574756C
:101450007000000000000C0C496E746572666163D8
:101460006520536574757000000D0D50726F6669CC
:101470006C65730000000000000000000E0E4F704D
:1014800074696F6E73000000000000000000000F20
:101490001453656C6563742042616E6B000000003C
:1014A0000100141E53656C65637420506564616CA3
:1014B0000000000100151F5365744D4944494368FD
:1014C000616E6E656C00010016205365744D4944D1
:1014D000494D657373616765000100172153657499
:1014E000204D49444920436F6465000001001822E3
:1014F000536574204D494449204E6F7465000001C6
:1015000000192853656C65637420506564616C0034
:101510000000010015294175746F2053656E7369D1
:101520006E6700000001001B2A536574204D6F6434
:10153000650000000000000001001C2B53657420B2
:1015400046756E6374696F6E00000001001A2C53BB
:101550006574205072657373204D6F6465000100DF
:101560001D2D53657420506F6C6172697479000091
:10157000000100212E43616C696272617465000094
:10158000000000000100222F536574205A65726F1D
:101590000000000000000001002330536574204D5E
:1015A0006178000000000000000001002431526555
:1015B00073706F6E73652043757276650001002548
:1015C0003253696E676C652050726573730000005A
:1015D00001001E33446F75626C6520507265737331
:1015E00000000001001F344C6F6E6720507265735D
:1015F0007300000000000100203C53656C656374BB
:1016000020496E746572662E000100263D4D4944E6
:101610004920494E00000000000000000100273E64
:101620004D494449204F555400000000000000017E
:1016300000283F4D494449205448525500000000BD
:101640000000010029404D49444920526F757469DA
:101650006E6700000001002A414D49444920436C57
:101660006F636B000000000001002B464C6F61644B
:101670002050726F66696C650000000100264753B8
:101680006176652050726F66696C6500000001002C
:10169000285057694669204D6F64650000000000BE
:1016A0000001002F51466163746F72792064656692
:1016B00061756C740100300A506564616C696E6F0D
:1016C00028544D2900000000000A0D000B42616EF5
:1016D0006B732053657475700000000000001422C5
:1016E000000C506564616C73205365747570000064
:1016F0000000002834000D496E74657266616365F0
:1017000020536574757000003C41000E50726F6686
:10171000696C65730000000000000000004647008F
:101720000F4F7074696F6E730000000000000000BE
:10173000000050510000F65411241FBECFEFD1E23B
:10174000DEBFCDBF00E00CBF16E0A0E0B2E0EEECE3
:10175000F1EC00E00BBF02C007900D92AC38B1076E
:10176000D9F721E1ACE8B6E001C01D92A63FB2076F
:10177000E1F71BE0CCE9DBE000E006C021970109BE
:10178000802FFE010E94615CCB39D10780E0080701
:10179000A9F70E9488450C94E5600C9400002F92F4
:1017A0003F924F925F926F927F928F929F92AF92F1
:1017B000BF92CF92DF92EF92FF920F931F93CF933E
:1017C000DF9300D000D0CDB7DEB721E030E0DC0100
:1017D0002D933C93AFE8EA2EA6E0FA2EBCE22B2E26
:1017E0003324339414EFA12EBB24B3940CED402E7C
:1017F000512C66246394712C92E0892E912CF70170
:101800008081882309F462C1870122E02D83D801F9
:101810005D968D919C915E97009709F43BC1DC0128
:10182000ED91FC910280F381E02D19956C018230DD
:10183000910509F425C134F40097C9F1019709F421
:1018400061C028C1039709F420C184E0C816D104FF
:1018500009F020C1D8015D96ED91FC915E97148648
:1018600013868085846080875D96ED91FC915E97FC
:10187000168615868085826080875D96ED91FC9145
:101880005E978AE090E0908B878780858160808773
:101890005D96ED91FC915E9780858B7F80875D964C
:1018A000ED91FC915E9780858D7F80872BC0D8015C
:1018B0005D96ED91FC915E973486238680858460E9
:1018C00080875D96ED91FC915E97B686A5868085B2
:1018D000826080875D96ED91FC915E97B08AA786C5
:1018E0008085816080875D96ED91FC915E97808513
:1018F000846080875D96ED91FC915E978085826023
:101900008087C8C0D701EC918E2F90E0FC01319701
:10191000EA30F10508F0BEC08827EE55FF4F8F4F23
:101920000C94615C80918E06893008F0B3C08F5FA3
:1019300006C080918E06882309F4ACC08150809344
:101940008E06A8C00E944B216093060C7093070C72
:101950008093080C9093090C80910C0C90910D0CC5
:10196000892BF9F490920B0C80920A0C1092F40BD4
:101970001092E80B1092E90B1092EA0B1092EB0B0D
:101980001092EC0B1092ED0B1092EE0B1092EF0BED
:101990001092F00B1092F10B1092F20B1092F30BCD
:1019A00026C08EED9BE00E944F3D70920B0C609222
:1019B0000A0C1092F40B1092E80B1092E90B1092A3
:1019C000EA0B1092EB0B1092EC0B1092ED0B1092B5
:1019D000EE0B1092EF0B1092F00B1092F10B109295
:1019E000F20B1092F30B1092F90B1092F80BE0919E
:1019F000E40BF091E50B40C010920B0C10920A0C16
:101A00001092F90B1092F80B1092FB0B1092FA0B3C
:101A10001092E80B1092E90B1092EA0B1092EB0B6C
:101A20001092EC0B1092ED0B1092EE0B1092EF0B4C
:101A30001092F00B1092F10B1092F20B1092F30B2C
:101A40001092F40B1092FE0B1092FF0B1092000CF0
:101A50001092010C1092F50B5092030C4092020C64
:101A60001092060C1092070C1092080C1092090CA0
:101A7000E091E60BF091E70B309761F019950AC001
:101A8000F7018081863031F4E3C2D7018C91863032
:101A900009F46DC30E5F1F4F2D81213011F021E03D
:101AA000B5CEC114D10491F0D7015D968D919C9172
:101AB0005E97DC01ED91FC910480F581E02D199594
:101AC0008C3409F46CC3823509F481C3B3E2EB0EA4
:101AD000F11CEFEBEE16E8E0FE0609F090CE85E192
:101AE0009CE090933C0B80933B0B8091120C90E018
:101AF00090933E0B80933D0B8091DF0C90E0909390
:101B0000400B80933F0B80910E0C853009F0CDC2C5
:101B10008091170C9091180C885891098D3591057A
:101B200088F48091120C843041F48091190C9091CA
:101B30001A0C8097479708F466C38091120C84347E
:101B400008F048C38091120C8A3108F454C0809187
:101B5000150C9091160C843F914080F410923A0B32
:101B60001092390B8FEF9FEFDC018093350B909330
:101B7000360BA093370BB093380B5BC08091170CDA
:101B80009091180C85974B97B0F5EBE1FCE082E063
:101B900090E040E050E0BA018C010F5F1F4F2091B0
:101BA000120C30E0021713076CF49F012250310928
:101BB000D9012D913C91275031092730310508F486
:101BC00064C3C80101979595879590933A0B8093CC
:101BD000390B0C972CF410923A0B1092390B0BC066
:101BE0004093350B5093360B6093370B7093380B43
:101BF00084E090E034C48091120C8A3108F44DC026
:101C00008091150C9091160C8032934008F4A6CF69
:101C10008091170C9091180CC697869708F451C3C1
:101C20003CC04093350B5093360B6093370B709349
:101C3000380B8BE090E013C42081318125523109AB
:101C40002B31310508F04DC3440F551F661F771F18
:101C50004160029634968C010F5F1F4F2091120C49
:101C600030E00217130764F49F0122503109D901B3
:101C70002D913C912C5031092B303105E8F2C801EF
:101C800001979595879590933A0B8093390B0C9714
:101C900044F610923A0B1092390B8091120C82325A
:101CA000E8F18091170C9091180C06970797B0F502
:101CB000EBE1FCE082E090E040E050E0BA018C0112
:101CC0000F5F1F4F2091120C30E0021713076CF4C6
:101CD000DF0112972D913C9111972E513109273137
:101CE000310508F422C30AC3C80101979595879569
:101CF00090933A0B8093390B40972CF410923A0B47
:101D00001092390B0BC04093350B5093360B6093F8
:101D1000370B7093380B8CE090E0A1C31C821B82C0
:101D200081E090E09A8389838091120C8D3008F4D1
:101D30006BC049E753E0BE016D5F7F4FCE01019656
:101D40000E946A37892B09F05FC049E753E0BE0162
:101D50006D5F7F4FCE0101960E946A37019709F0AF
:101D600053C049E753E0BE016D5F7F4FCE0101963E
:101D70000E946A37892B09F047C0C12CD12C76010B
:101D800000E010E08091120C90E029813A81281740
:101D900039075CF549E753E0BE016D5F7F4FCE0127
:101DA00001960E946A375C0149E753E0BE016D5F0E
:101DB0007F4FCE0101960E946A37B1E0AB16B104A5
:101DC00049F4892B09F5CC0CDD1CEE1CFF1C689432
:101DD000C0F808C0AB28C1F40197B1F4CC0CDD1CED
:101DE000EE1CFF1C0F5F1F4FCDCF10933A0B0093DB
:101DF000390BC092350BD092360BE092370BF09234
:101E0000380B81E090E02BC31C821B8281E090E0C4
:101E10009A83898380913D0B90913E0B1816190689
:101E20000CF058C0E0913B0BF0913C0B82E090E04D
:101E30009A8389838281938189974E9708F04AC05B
:101E400083E090E09A838983848195810B970A9738
:101E500008F040C04CEB51E0BE016D5F7F4FCE01FA
:101E600001960E946A37892BA9F54CEB51E0BE011F
:101E70006D5F7F4FCE0101960E946A37019751F541
:101E8000C12CD12C760100E010E029813A818091AB
:101E90003D0B90913E0B281739070CF082C24CEB9A
:101EA00051E0BE016D5F7F4FCE0101960E946A37FF
:101EB0004C010330110509F03EC24CEB51E0BE016C
:101EC0006D5F7F4FCE0101960E946A378816990692
:101ED00009F431C2E0913B0BF0913C0B828193817C
:101EE000C697869708F079C2848195814B9745976C
:101EF00008F073C2DF0116967F0126ECE20EF11C9A
:101F000020E030E040E050E060E070E080E090E011
:101F10000D911C911197095011090830110508F015
:101F20005CC212960D911C911397015111090D304D
:101F3000110508F045C201E00E946F5C2160149613
:101F4000AE15BF0529F72093350B3093360B409320
:101F5000370B5093380B00E20E948A5C2093330BBE
:101F60003093340B85E090E09093320B8093310BEB
:101F700080E390E090933A0B8093390BC090350B3F
:101F8000D090360BE090370BF090380B82E08093C6
:101F90000E0C1092120CBFEFCB16DB06EB06FB0605
:101FA00029F48091B80A853008F004C310E0D70105
:101FB000C601BA958F3F9F4FAF4FBE4F08F4BFC0C9
:101FC0006AE573E08FE490E10E94EA1E20E1B70128
:101FD000A6018FE490E10E94901E68E673E08FE412
:101FE00090E10E947B1E25E8C2162AE7D2062FEF59
:101FF000E206F10409F4CAC270F595EAC9169AE539
:10200000D9069FEFE906F10409F4BEC208F0B2C098
:10201000B7EDCB16B8E2DB06BFEFEB06F10409F42F
:10202000CAC008F021C2FDEFCF16F2E0DF06FFEFD5
:10203000EF06F10409F0B6C0111102C01092B80AFF
:10204000C092B40AD092B50AE092B60AF092B70AEA
:1020500083E090E0E1C595E2C9169AEDD9069FEFBD
:10206000E906F10409F4B0C2C8F1A5E1CA16AAEE66
:10207000DA06AFEFEA06F10409F444C008F462C0DE
:102080002DE0C21622EFD2062FEFE206F10409F48A
:1020900060C28FEFC816D806E806F80609F04FC2EE
:1020A0008091B80A8F5F8093B80A81E49BE00E9418
:1020B000B21C892B09F443C081E49BE00E94901C70
:1020C000853409F454C01CF4833411F238C08C34C4
:1020D00009F47DC0823509F462C031C0B5E4CB1685
:1020E000BAEBDB06BFEFEB06F10409F453C208F0CC
:1020F00009C2FDE5CF16F2EADF06FFEFEF06F104B5
:1021000009F0F5C18091B30A882309F424C26091D3
:102110008D0D862F846080938D0D6C6088E89DE026
:102120000E94F73AE091880DF091890D0484F585BD
:10213000E02D6FEF88E89DE019951092B30A80E0DA
:1021400090E06AC5EDE1CE16E2EEDE06EFEFEE06B8
:10215000F10409F0EAC1111102C01092B80AC0924C
:10216000B40AD092B50AE092B60AF092B70A84E0B7
:1021700090E052C5AFE8CA16A0E7DA06AFEFEA066C
:10218000F10409F085C1111102C01092B80AC09281
:10219000B40AD092B50AE092B60AF092B70A81E08A
:1021A00090E03AC52DEDC21622E2D2062FEFE206EC
:1021B000F10409F0F6C1111102C01092B80AC092E0
:1021C000B40AD092B50AE092B60AF092B70A82E059
:1021D00090E022C58091190C90911A0C82549109BB
:1021E0008E9708F0AFCC20E030E080E090E0DC019A
:1021F000F901E55EF34F4081518149505109493061
:10220000510588F09FCC80911B0C90911C0C099774
:10221000099708F092CC10923A0B1092390B8FEF7D
:102220009FEFDC011AC0F901E35EF34F4081518159
:102230004751510942315105D8F4880F991FAA1FFF
:10224000BB1F81602C5F3F4F2038310589F620E2AB
:1022500030E030933A0B2093390B8093350B9093F9
:10226000360BA093370BB093380B83E090E0F7C0A8
:1022700040815181465051094730510508F062CCE8
:10228000880F991FAA1FBB1FDDCF208131812351E9
:1022900031092F30310578F0208131812A50310900
:1022A0002930310508F0A7CC440F551F661F771F52
:1022B0000296349671CC440F551F661F771F4160FC
:1022C000F7CF8091190C90911A0CC697869708F059
:1022D000E4CCEDE1FCE083E090E040E050E0BA01C6
:1022E000BACC208131812C5031092A30310508F0D7
:1022F000D4CC440F551F661F771FABCC2D913C915A
:102300002C5031092B30310508F008CD440F551FF2
:10231000661F771F20813181349623503109253083
:10232000310508F0E1CC0296CACC440F551F661F58
:10233000771F4160EFCF4CEB51E0BE016D5F7F4FE7
:10234000CE0101960E946A375C010330110569F4E1
:102350004CEB51E0BE016D5F7F4FCE0101960E94B4
:102360006A37A816B90609F0B5CD8114910459F45D
:10237000AA94AB2809F0AECDCC0CDD1CEE1CFF1CE2
:102380006894C0F80BC08A94892809F0A3CDAB28C3
:1023900009F0A0CDCC0CDD1CEE1CFF1C0F5F1F4F05
:1023A00074CD10933A0B0093390BC092350BD09239
:1023B000360BE092370BF092380B82E090E04FC082
:1023C00012960D911C9113970450110905301105B7
:1023D00020F401E00E946F5CB2CD8091120C893331
:1023E00040F082819381895791098335910508F4E2
:1023F00024C28091120C823209F412C1828193812D
:10240000895791098335910508F495C2828193819A
:102410008C549109C59708F00FC18091120C84303B
:1024200009F005C1848195818097479708F0FFC026
:10243000868197810997099708F0F9C010923A0BA5
:102440001092390B8FEF9FEFDC018093350B909347
:10245000360BA093370BB093380B87E090E0909346
:10246000320B8093310B8ACD87EBC81688E4D806EF
:102470008FEFE806F10409F4DFCD95EBC9169AE475
:10248000D9069FEFE906F10409F08BC089E09FC0EF
:10249000B0E9CB16B0E7DB06BFEFEB06F104A0F422
:1024A000E7E9CE16E8E6DE06EFEFEE06F10409F402
:1024B00082CEF5E9CF16FAE6DF06FFEFEF06F1046C
:1024C00009F06FC087E083C02DE8C21622E7D2066C
:1024D0002FEFE206F10409F45BC087E8C81688E72D
:1024E000D8068FEFE806F10409F44DCE5AC025E571
:1024F000C2162AEAD2062FEFE206F10409F051C013
:102500008AE065C08DE3C81682ECD8068FEFE80636
:10251000F10409F438CE95E3C9169AECD9069FEF79
:10252000E906F10409F452C03CC0F7E1CF16F8EE19
:10253000DF06FFEFEF06F10409F40DCE32C09FE095
:10254000C91690EFD9069FEFE906F10451F585E031
:102550003EC082E03CC0E091880DF091890D04847A
:10256000F585E02D60E088E89DE0199560918D0D7E
:102570006B7F60938D0D686088E89DE00E94F73A5C
:1025800081E08093B30ADBCD84E021C086E01FC0E8
:1025900088E01DC09091020281E0892780930202A9
:1025A00084CD1092B40A1092B50A1092B60A109215
:1025B000B70A7BCDC090B40AD090B50AE090B60AB5
:1025C000F090B70A11E0F3CC81E001C083E0909174
:1025D0000202992339F0815080938E060E94201BBD
:1025E00058D463CD90E0019723E2289F8001299F72
:1025F000100D11240157194FD8011E961C921E92DE
:102600001D9780E00E94714468EC70E080E090E0EB
:102610000E94132181E090E0F8019687858745CDDF
:10262000828193810A97099708F466C1E7CE809169
:10263000120C843408F0E1C18091120C863460F1F0
:10264000828193810C970B9708F428C225C0D90189
:1026500012966D917C9113976E51710967317105D6
:1026600008F037C2D701C601880F991FAA1FBB1FE8
:102670006C017D016894C0F84E5F5F4F2C5F3F4F47
:102680004534510509F434C2D9016D917C916C50E7
:1026900071096B307105D8F28091120C883578F190
:1026A00082819381855891098B35910508F43DC24B
:1026B00026C0BC016F5F7F4FD8012D913C91275000
:1026C00031092730310508F03FC2440F551F4160E2
:1026D00002960C5F1F4F2091120C30E024503109FC
:1026E000821793070CF039C2980122503109D901A1
:1026F0002D913C912950310928303105D0F280913B
:10270000120C8032E1F48281938106970697B8F427
:10271000848195810997099790F49F012A5F3F4F23
:10272000BF01625C7F4FC12CD12C7601D9014D9144
:102730005C91465051094630510508F42AC28091F7
:102740003D0B90913E0B9E838D8306970CF45BC2EC
:102750008F010A5F1F4F75ECC72E7DE9D72E7CE1F4
:10276000E72E71E8F72EE3E02E2E312CD8016D9183
:102770007C91F8013497A080B18080E090E00E94C5
:10278000D6592B013C01B50180E090E00E94D6595A
:102790004B015C012DEC3CEC4CE45FE30E94BF5B21
:1027A0009B01AC01C301B2010E94085987FD17C00B
:1027B0002DEC3CEC4CE45FE3C301B2010E94BF5B33
:1027C0009B01AC01C501B4010E940859E82F880F94
:1027D000FF0BEE27FF0FEE1FFF27319602C0E0E050
:1027E000F0E0A701960163E971E080E091E00E94CA
:1027F000265C6F01FF0FEE08FF08C626D726E826E5
:10280000F926BFEF2B1A3B0A0E5F1F4FED81FE81A9
:102810002E163F0609F0AACFC092350BD092360B88
:10282000E092370BF092380B80E290E090933A0BF5
:102830008093390B8FEF9FEF12CE84819581CA97D9
:10284000899708F0D6CD9F012A5F3F4FC12CD12C2C
:10285000760143E050E0D9016D917C916A50710995
:102860006930710508F0C5CDD90112966D917C9142
:102870001397665171096131710570F5D701C60171
:10288000880F991FAA1FBB1F6C017D016894C0F8B7
:102890004E5F5F4F2C5F3F4F4B335105E1F69F0179
:1028A0002A583F4FD9012D913C912A5031092930A6
:1028B000310508F09ECD2CE130E030933A0B2093A7
:1028C000390BC092350BD092360BE092370BF09259
:1028D000380B8AE090E0C3CDD90112966D917C91BE
:1028E0001397665071096730710508F082CDCC0CE2
:1028F000DD1CEE1CFF1CCCCF2091120CCF01820FEF
:10290000911D820F911DDC0112978D919C910A9768
:10291000099708F073CD10923A0B1092390B8FEF94
:102920009FEFDC018093350B9093360BA093370B10
:10293000B093380B6EC18091120C813208F466CDD1
:1029400084819581CA97899708F060CD9F012A5F9D
:102950003F4FC12CD12C760143E050E0D9016D915D
:102960007C916A5071096930710508F04FCDD90129
:1029700012966D917C9113976651710961317105C1
:1029800060F5D701C601880F991FAA1FBB1F6C01F4
:102990007D016894C0F84E5F5F4F2C5F3F4F43321C
:1029A0005105E1F69F012A5B3F4FD9012D913C91E2
:1029B0002A5031092930310508F028CD20E130E0D6
:1029C00030933A0B2093390BC092350BD092360BD3
:1029D000E092370BF092380B1CC1D90112966D9121
:1029E0007C911397665071096730710508F00ECD20
:1029F000CC0CDD1CEE1CFF1CCECF8481958189544C
:102A00009109C39708F018CE9F012A5F3F4FBF017D
:102A10006A577F4FC12CD12C7601D9014D915C9121
:102A2000495051094930510508F006CED901129696
:102A30004D915C9113974651510941315105F0F484
:102A4000D701C601880F991FAA1FBB1F6C017D010A
:102A50006894C0F82C5F3F4F26173707F1F620E245
:102A600030E030933A0B2093390BC092350BD09263
:102A7000360BE092370BF092380BEFCCD90112965F
:102A80004D915C911397465051094730510508F01C
:102A9000D3CDCC0CDD1CEE1CFF1CDCCF84819581DA
:102AA0000997099708F0F8CD868197818C974F9701
:102AB00008F0F2CD8085918589974D9708F0ECCD8F
:102AC0009F01265F3F4FC12CD12C760145E050E09D
:102AD000DBCD12966D917C91139769507109693025
:102AE000710508F0D9CDCC0CDD1CEE1CFF1CC4CD4B
:102AF0009F0126573F4FD9012D913C912C50310910
:102B00002B30310508F0C8CD20E230E030933A0B8D
:102B10002093390BC092350BD092360BE092370BD5
:102B2000F092380B88E090E09ACC848195818254B1
:102B300091098E9708F0E3CD8F01045C1F4F8DE162
:102B400090E040E050E0C7CDD8012D913C91285154
:102B5000310922313105D0F0CB0101979595879548
:102B600090933A0B8093390B8A970CF4C8CD052EBD
:102B7000000C660B770B4093350B5093360B60932C
:102B8000370B7093380B89E090E069CC440F551FE8
:102B90009FCDD90112964D915C91139749515109DE
:102BA0004331510528F112964D915C91139749508C
:102BB00051094930510508F0C2CDCC0CDD1CEE1C8A
:102BC000FF1C2C5F3F4F2617370709F0AFCD2EE0D3
:102BD00030E030933A0B2093390BC092350BD092F2
:102BE000360BE092370BF092380B8FE090E037CC49
:102BF000D701C601880F991FAA1FBB1F6C017D0159
:102C00006894C0F8DECF82E080930E0C1092120C14
:102C10004CCA86E090E023CC26960FB6F894DEBF2F
:102C20000FBECDBFDF91CF911F910F91FF90EF901D
:102C3000DF90CF90BF90AF909F908F907F906F90DC
:102C40005F904F903F902F900895FC0181890895E7
:102C500080E090E0089508950F931F93CF93DF9342
:102C6000D62FC42F122F813009F46EC008F4A0C0F3
:102C7000823021F0833009F4C6C006C1002399F1E7
:102C8000442389F16BE673E08FE490E10E94EA1E31
:102C90008D2F0E94253662E873E08FE490E10E9458
:102CA000EA1E8C2F0E94253661E973E08FE490E1E3
:102CB0000E94EA1E812F0E9425368091A50A882352
:102CC00039F0212F4C2F6D2F80E990E00E94A6361D
:102CD0008091AA0A882309F4D7C0212F4C2F6D2F89
:102CE00080E990E0CBC06FE973E08FE490E10E944F
:102CF000EA1E8D2F0E94253662E873E08FE490E192
:102D00000E94EA1E8C2F0E94253661E973E08FE451
:102D100090E10E94EA1E812F0E9425368091A50A2B
:102D2000882339F0212F4C2F6D2F80E890E00E94EE
:102D3000A6368091AA0A882309F4A6C0212F4C2F19
:102D40006D2F80E890E09AC0002309F49DC066EBE7
:102D500073E08FE490E10E94EA1E8D2F0E942536D9
:102D600064E074E08FE490E10E94EA1E8C2F0E94E0
:102D7000253661E973E08FE490E10E94EA1E812F1D
:102D80000E9425368091A50A882339F0212F4C2FE7
:102D90006D2F80EB90E00E94A6368091AA0A8823CE
:102DA00009F472C0212F4C2F6D2F80EB90E066C08C
:102DB000002309F469C064ED73E08FE490E10E94A0
:102DC000EA1E8D2F0E94253661E973E08FE490E1C1
:102DD0000E94EA1E812F0E9425368091A50A882331
:102DE00039F0212F40E06D2F80EC90E00E94A63654
:102DF0008091AA0A882309F447C0212F40E06D2F53
:102E000080EC90E03BC0002309F43EC080E1489F85
:102E1000E001112465EF73E08FE490E1DBD7BE01A0
:102E20008FE490E10E94603661E973E08FE490E105
:102E3000D1D7812F0E9425368091A50A882371F071
:102E4000BE01705EAB01440F452F441F550B5195D9
:102E50006F77212F80EE90E00E94A6368091AA0A1B
:102E6000882391F0BE01705EAB01440F452F441FD3
:102E7000550B51956F77212F80EE90E0DF91CF9128
:102E80001F910F910C940837DF91CF911F910F91F3
:102E900008952F923F924F925F926F927F928F92FE
:102EA0009F92AF92BF92CF92DF92EF92FF920F93D9
:102EB0001F93CF93DF93CDB7DEB728970FB6F89463
:102EC000DEBF0FBECDBF08EA16E0D8018D919C9100
:102ED0000E944F5DF801828193810E944F5DD8016D
:102EE00014968D919C911597009711F00E944F5D5B
:102EF000F80186819781009711F00E944F5DD801FB
:102F000018968D919C9119970E944F5D0D5D1F4FF2
:102F1000B8E0083D1B07C9F68FEF80931D02809330
:102F20001E0260E174E08FE490E154D780918C063A
:102F3000813059F038F0823059F0833071F46AE30F
:102F400074E008C060E274E005C064E274E002C0AE
:102F500060E374E08FE490E12BD764E474E08FE4E5
:102F600090E138D740918E0650E04F5F5F4F052EBD
:102F7000000C660B770B8FE490E10E942E3668E61A
:102F800073E08FE490E1B7D651E9452E56E0552E17
:102F90000FE816E066E9C62E66E0D62E77E1672ECA
:102FA000712CE6E3EE2EF12C212C312C2B826AE4DD
:102FB00076E08FE490E10ED7E9E02E16310428F494
:102FC0006AE876E08FE490E105D7B70165537109AF
:102FD0008FE490E10E94603666E876E08FE490E14D
:102FE000F9D6D8018C9190E08B30910550F5FC0119
:102FF0008827E455FF4F8F4F0C94615C6AE474E0BE
:103000001DC065E574E01AC060E674E017C06BE6A9
:1030100074E014C066E774E011C061E874E00EC0AB
:103020006CE874E00BC067E974E008C062EA74E021
:1030300005C06DEA74E002C068EB74E08FE490E1D3
:10304000C9D668E876E08FE490E1C4D6F2018081C9
:1030500090E087309105F0F4FC018827E954FF4F98
:103060008F4F0C94615C63EC74E011C06EEC74E003
:103070000EC069ED74E00BC064EE74E008C06FEE42
:1030800074E005C06AEF74E002C065E075E08FE4AB
:1030900090E1A0D668E876E08FE490E19BD69601B7
:1030A000245031093D832C83D9018C9190E08730E5
:1030B0009105F0F4FC018827E254FF4F8F4F0C94E8
:1030C000615C60E175E011C06CE175E00EC068E222
:1030D00075E00BC064E375E008C060E475E005C00E
:1030E0006CE475E002C068E575E08FE490E172D6AB
:1030F00068E876E08FE490E16DD6F6018081882360
:1031000029F0813041F46EE675E002C064E675E0B6
:103110008FE490E15FD668E876E08FE490E15AD6DC
:1031200080918E065101AA0CBB1C9501220D331D06
:1031300038872F8340E3942EF901989EE00DF11D0E
:103140001124E154F74F8081813071F050F08230CA
:1031500009F1833011F568EA75E08FE490E13AD621
:103160001CC068E775E002C068E875E08FE490E194
:1031700031D680918E062F813885989E200D311D85
:103180001124C9018154974FDC0112968C910E9441
:10319000253603C068E975E0E9CF63E973E08FE4A1
:1031A00090E118D680918E06F501E20DF31DB0E393
:1031B0008B9FE00DF11D1124E154F74F81810E9496
:1031C0002536F2018081823009F47AC120F08450E2
:1031D000833008F0E1C16A8218870F83812C912C1B
:1031E0001982D2018C91811104C02981213039F4D6
:1031F00057C1813021F43981313009F451C18AE05D
:1032000090E00E94BA5CFC018EE292E091838083A0
:1032100012821382148215828AE090E0978386835B
:1032200010861186AF81B8855A96FC93EE93599714
:10323000298162E02130A9F08A817FD7B301D801CA
:1032400059968D919C915A970E94E03B68EB75E0EE
:103250008FE490E1BFD5B3018FE490E10E94603626
:1032600010C08E2D6AD7B701F801838D948D0E940E
:10327000E03B61EC75E08FE490E1ACD58B810E947E
:103280002536AF81B88559968D919C915A9722E346
:1032900030E0FC01378326830E948A3BAF81B885EA
:1032A0005996ED91FC915A9780858170F601908135
:1032B000992311F0F1E08F2790E0AF81B8851E9639
:1032C0009C938E931D97E7D7F801E80DF91D618B4C
:1032D000728B838B948BF2018081882321F0845040
:1032E000823008F0DDC0298189E190E0213011F1C0
:1032F0000E94BA5C5C0121E0D6018C91811101C071
:1033000020E0C5012E830E944C3E86E392E0F50149
:10331000918380833A81348BC5014496968B858B4B
:1033200081E0878B2E81208FD8015E96BC92AE9271
:103330005D9728C00E94BA5C5C0121E0F6018081A3
:10334000811101C020E0C5012E830E944C3EE6E3BE
:10335000F2E0D5011196FC93EE935496EC925497BB
:10336000C501449656969C938E935597F1E05796D7
:10337000FC9357972E8158962C93D8019096BC9227
:10338000AE925F97EF81F885858D968DDC01ED918A
:10339000FC910190F081E02D1995EF81F885A58DC4
:1033A000B68D22E330E01A963C932E931997F801DC
:1033B000808181114CC0EC81FD81408150E047301B
:1033C000510530F5FA0118969C9118978827EB5310
:1033D000FF4F8F4F0C94615C9B7F01C094601896E7
:1033E0009C93AF81B8855D96ED91FC915E97808549
:1033F0008D7F0DC09B7F01C0946018969C93AF8118
:10340000B8855D96ED91FC915E978085826080879E
:10341000AF81B8855D96ED91FC915E972CE231E02D
:10342000348723878085846080875D96ED91FC9149
:103430005E9784EF91E0968785878085826080879C
:103440005D96ED91FC915E9780858E7F28C0ECE2C1
:10345000F1E01C96FC93EE931B9718968C911897AD
:10346000846018968C93AF81B8855D96ED91FC9140
:103470005E9724EF31E036872587808582608087DC
:103480005D96ED91FC915E97308B278780858160FA
:1034900080875D96ED91FC915E978085886080873E
:1034A0002F8138852E5F3F4F38872F8334E0830E7E
:1034B000911C2981213009F46FC021E0298391CE2C
:1034C00061E0862D3AD661E0862DF5D5D8018C9144
:1034D000811146C082E290E00E94BA5C4C0180E01B
:1034E00094E0F4019383828380E090E0A0E8B0E46C
:1034F00081879287A387B487BB24B394B586168A45
:10350000178A108E118E128E60E08E2D16D660E016
:103510008E2DD1D5F401F182E082B0868AE097ED5C
:10352000A3E2BCE384839583A683B783D6015B962D
:103530009C928E925A9780E090E0A0ECB0E4818754
:103540009287A387B48780E890E093838283B586CF
:1035500080911E028F3F01F52B8120931E021CC01B
:103560008AE190E00E94BA5C5C010E944C3E80E4DB
:1035700092E0D50111969C938E935496EC925497B9
:1035800083E092E056969C938E93559783E05796EE
:103590008C93F801B68EA58E6AE673E08FE490E115
:1035A00007D4FFEF2F1A3F0A23E2420E511C0D5D94
:1035B0001F4F3FEFE31AF30A83E2C80ED11C92E0DB
:1035C000690E711CA6E4EA16F10409F0EFCC289606
:1035D0000FB6F894DEBF0FBECDBFDF91CF911F9124
:1035E0000F91FF90EF90DF90CF90BF90AF909F90A2
:1035F0008F907F906F905F904F903F902F900895A5
:10360000EF92FF920F931F93CF93DF931F92CDB74B
:10361000DEB77C01FC0100811181C80169830E9431
:1036200036586981681719F0C8010E943E58C701D1
:103630000F90DF91CF911F910F91FF90EF90089520
:103640006F927F928F929F92AF92BF92CF92DF92B2
:10365000EF92FF920F931F93CF93DF931F921F92CE
:10366000CDB7DEB764EC75E08FE490E1B3D33BEE09
:10367000E32E32E0F32E00E010E0F70161917F01CC
:103680001A830983CE010196BBDF0F5F1F4F0D30F8
:10369000110599F71A821982BE016F5F7F4F8DE085
:1036A00090E00E94463FC12CD12C2EE0E22EF12C5E
:1036B0008701005D1F4F36016E187F084601FFEF3E
:1036C0008F1A9F0A8E189F08560182E0A80EB11C1F
:1036D000AE18BF08B3016E0D7F1D6154774FC7014F
:1036E0000E942D3FB4016E0D7F1D6154774FC701BD
:1036F00001960E942D3FB5016E0D7F1D6154774FDD
:10370000C70102960E942D3FF3E0EF0EF11CE01678
:10371000F10601F780E3C80ED11C78010E3EE1E00E
:103720001E0731F69FE8E92E96E0F92EB701C80191
:103730000E942D3FB7016F5F7F4FC80101960E9425
:103740002D3FB7016E5F7F4FC80102960E942D3F4B
:10375000B7016D5F7F4FC80103960E942D3FB701EF
:10376000695F7F4FC80104960E942D3FB701685FD3
:103770007F4FC80105960E942D3FB701675F7F4FBD
:10378000C80106960E94463FB701655F7F4FC8019A
:1037900008960E94463F065F1F4FE3E2EE0EF11CC3
:1037A0000E38F2E01F0711F68FE9E82E8AE0F82EB6
:1037B000B701C8010E942D3FB7016F5F7F4FC8015D
:1037C00001960E942D3FB7016E5F7F4FC8010296A0
:1037D0000E942D3FB7016D5F7F4FC80103960E9485
:1037E0002D3FB7016C5F7F4FC80104960E942D3FAB
:1037F0000B5F1F4F85E0E80EF11C023AE2E01E0766
:10380000B9F66EE876E082EA92E00E942D3F6DE81C
:1038100076E083EA92E00E942D3F6CE876E084EA4D
:1038200092E00E942D3F60E072E085EA92E00E9403
:103830002D3F6EED72E08FE490E1BAD20F900F90C1
:10384000DF91CF911F910F91FF90EF90DF90CF907C
:10385000BF90AF909F908F907F906F900895DC0104
:10386000ED91FC910190F081E02D1994DC01ED9136
:10387000FC910190F081E02D1994CF92DF92EF92AC
:10388000FF920F931F93CF93DF936C017A018B010B
:10389000C0E0D0E0CE15DF0589F0D8016D918D0133
:1038A000D601ED91FC910190F081E02DC6011995B2
:1038B000892B11F47E0102C02196ECCFC701DF9164
:1038C000CF911F910F91FF90EF90DF90CF900895CF
:1038D000FC01A089B1898C91A689B78982FD0FC0AE
:1038E0009C91818D8F5F8F73228D821749F0218D7E
:1038F000DF01A20FB11D5D969C93818F08958C917D
:103900000895FC01538D448D252F30E0842F90E0E5
:10391000821B930B541710F0CF96089501970895CA
:10392000FC01918D828D981761F0828DDF01A80FC7
:10393000B11D5D968C91928D9F5F9F73928F90E0E9
:1039400008958FEF9FEF0895FC01918D828D981758
:1039500031F0828DE80FF11D858D90E008958FEF95
:103960009FEF0895FC01918D228D892F90E0805C5E
:103970009F4F821B91098F73992708958FE99DE0CE
:10398000F1DF21E0892B09F420E0822F089587EFF1
:103990009EE0E8DF21E0892B09F420E0822F0895E2
:1039A00081E49BE0DFDF21E0892B09F420E0822F16
:1039B00008958FE490E1D6DF21E0892B09F420E01F
:1039C000822F0895FC01848DDF01A80FB11DA35A39
:1039D000BF4F2C91848D90E001968F739927848F2F
:1039E000A689B7892C93A089B1898C9180648C9326
:1039F000938D848D981306C00288F389E02D808111
:103A00008F7D80830895EF92FF920F931F93CF9342
:103A1000DF93EC0181E0888F9B8D8C8D981305C01E
:103A2000E889F989808185FD23C0F62E0B8D10E091
:103A30000F5F1F4F0F731127E02E8C8DE8120BC004
:103A40000FB607FCFACFE889F989808185FFF5CFA9
:103A5000CE01B8DFF2CF8B8DFE01E80FF11DE35AE6
:103A6000FF4FF0820B8FEA89FB898081806207C05B
:103A7000EE89FF896083E889F98980818064808389
:103A800081E090E0DF91CF911F910F91FF90EF9037
:103A90000895CF93DF93EC01888D8823C1F0EA89E4
:103AA000FB89808185FD05C0A889B9898C9186FD37
:103AB0000EC00FB607FCF5CF808185FFF2CFA88935
:103AC000B9898C9185FFEDCFCE017CDFE8CFDF9106
:103AD000CF91089580E090E0892B19F06ADF811181
:103AE00016C080E090E0892B19F05ADF811112C0D6
:103AF00080E090E0892B19F04ADF81110EC080E050
:103B000090E0892B79F03ADF81110AC008950E9474
:103B10000000E7CF0E940000EBCF0E940000EFCF33
:103B20000C940000089590E0FC013197E231F1051A
:103B300008F04EC08827E453FF4F8F4F0C94615C10
:103B4000809180008F7703C0809180008F7D80936B
:103B50008000089580918000877FF9CF84B58F77AA
:103B600002C084B58F7D84BD08958091B0008F77A9
:103B700003C08091B0008F7D8093B0000895809144
:103B800090008F7707C0809190008F7D03C0809157
:103B90009000877F8093900008958091A0008F7798
:103BA00007C08091A0008F7D03C08091A000877F17
:103BB0008093A0000895809120018F7707C08091A5
:103BC00020018F7D03C080912001877F8093200199
:103BD00008953FB7F89480912D0B90912E0BA091F2
:103BE0002F0BB091300B26B5A89B05C02F3F19F0C5
:103BF0000196A11DB11D3FBFBA2FA92F982F88276D
:103C0000820F911DA11DB11DBC01CD0142E0660FC7
:103C1000771F881F991F4A95D1F7089585ED8093E6
:103C2000BC008091BC0084FDFCCF1092020B089573
:103C30004091DC0A262F30E0240F311D213231055E
:103C4000DCF42091020B2430C9F4FC0180E090E008
:103C5000861758F43091DC0A2191DC01A654B54F47
:103C6000A30FB11D2C930196F3CF8091DC0A680F4E
:103C70006093DC0A80E0089581E0089582E0089571
:103C800008958FEF9FEF08958FEF9FEF0895809134
:103C9000B90A90E09195819591090895CF93DF93AA
:103CA0001F921F92CDB7DEB7CB01642F49835A8391
:103CB000BFDF4981842F5A81952F0F900F90DF919C
:103CC000CF910895CF93DF931F92CDB7DEB769836D
:103CD00061E0CE010196ACDF81E090E00F90DF91D2
:103CE000CF9108950E94E75DDC01ED91FC91019078
:103CF000F081E02D19946115710579F0FB010190B7
:103D00000020E9F73197AF01461B570BDC01ED911D
:103D1000FC910280F381E02D199480E090E00895F9
:103D20004F925F926F927F92EF92FF920F931F9349
:103D3000CF93DF93CDB7DEB7A1970FB6F894DEBF70
:103D40000FBECDBF7C01FA01CB0119A2223008F4CD
:103D50002AE08E010F5D1F4F422E512C612C712CD9
:103D6000BF01A30192010E947258F901CA010150DA
:103D700011096A3014F4605D01C0695CD8016C936C
:103D8000232B242B252B61F7B801C701B4DFA196A3
:103D90000FB6F894DEBF0FBECDBFDF91CF911F915C
:103DA0000F91FF90EF907F906F905F904F900895EC
:103DB0000F931F93CF93DF93EC019DDF8C0168E697
:103DC00073E0CE0198DF800F911FDF91CF911F919B
:103DD0000F91089590CF1F920F920FB60F9211245A
:103DE0000BB60F922F933F934F935F936F937F93F5
:103DF0008F939F93AF93BF93EF93FF938FE99DE0D2
:103E0000E1DDFF91EF91BF91AF919F918F917F91F4
:103E10006F915F914F913F912F910F900BBE0F903B
:103E20000FBE0F901F9018951F920F920FB60F9212
:103E300011240BB60F922F933F934F935F936F9381
:103E40007F938F939F93AF93BF93EF93FF938FE9EC
:103E50009DE03EDDFF91EF91BF91AF919F918F91DA
:103E60007F916F915F914F913F912F910F900BBE7A
:103E70000F900FBE0F901F9018951F920F920FB6C4
:103E80000F9211240BB60F922F933F934F935F9392
:103E90006F937F938F939F93AF93BF93EF93FF9312
:103EA00087EF9EE08FDDFF91EF91BF91AF919F91E2
:103EB0008F917F916F915F914F913F912F910F90D3
:103EC0000BBE0F900FBE0F901F9018951F920F9270
:103ED0000FB60F9211240BB60F922F933F934F936F
:103EE0005F936F937F938F939F93AF93BF93EF9362
:103EF000FF9387EF9EE0ECDCFF91EF91BF91AF91D4
:103F00009F918F917F916F915F914F913F912F91F1
:103F10000F900BBE0F900FBE0F901F9018951F9221
:103F20000F920FB60F9211240BB60F922F933F935F
:103F30004F935F936F937F938F939F93AF93BF93B1
:103F4000EF93FF9381E49BE03DDDFF91EF91BF9103
:103F5000AF919F918F917F916F915F914F913F9121
:103F60002F910F900BBE0F900FBE0F901F901895C2
:103F70001F920F920FB60F9211240BB60F922F9330
:103F80003F934F935F936F937F938F939F93AF93E1
:103F9000BF93EF93FF9381E49BE09ADCFF91EF9155
:103FA000BF91AF919F918F917F916F915F914F9151
:103FB0003F912F910F900BBE0F900FBE0F901F904F
:103FC00018951F920F920FB60F9211240BB60F92F5
:103FD0002F933F934F935F936F937F938F939F9311
:103FE000AF93BF93EF93FF938FE490E1EBDCFF91EE
:103FF000EF91BF91AF919F918F917F916F915F9161
:104000004F913F912F910F900BBE0F900FBE0F90CD
:104010001F9018951F920F920FB60F9211240BB696
:104020000F922F933F934F935F936F937F938F9351
:104030009F93AF93BF93EF93FF938FE490E148DC9E
:10404000FF91EF91BF91AF919F918F917F916F9170
:104050005F914F913F912F910F900BBE0F900FBE2C
:104060000F901F901895CF93DF93282F30E0F90120
:10407000E05AFC4F8491F901E65EFC4FD491F901BE
:10408000EC52FD4FC491CC2389F081114CDDEC2F13
:10409000F0E0EE0FFF1FE654FD4FA591B491EC91B7
:1040A000ED2381E090E021F480E002C080E090E028
:1040B000DF91CF9108951F93CF93DF93282F30E0A6
:1040C000F901E05AFC4F8491F901E65EFC4FD4916E
:1040D000F901EC52FD4FC491CC23C1F0162F811190
:1040E00022DDEC2FF0E0EE0FFF1FE056FD4FA59113
:1040F000B4918FB7F894111105C09C91ED2FE09504
:10410000E92302C0EC91ED2BEC938FBFDF91CF91AF
:104110001F910895FC0186898F3F71F021853285BA
:10412000662319F0232B31F403C02130310511F43B
:1041300061E001C060E0BFCF0895CF93DF9390E0CE
:10414000FC01E65EFC4F2491FC01EC52FD4F849192
:10415000882361F190E0880F991FFC01EA57FD4F19
:10416000C591D491FC01E056FD4FA591B491611128
:1041700009C09FB7F8948881209582238883EC91A9
:104180002E230BC0623061F49FB7F8943881822FE0
:10419000809583238883EC912E2B2C939FBF06C0A0
:1041A0008FB7F894E8812E2B28838FBFDF91CF91B2
:1041B0000895EF92FF921F93CF93DF93EC01162F98
:1041C0007A0161E0812FB9DF1E8BFA86E986E881EA
:1041D000F9810484F585E02D60E0CE01DF91CF9177
:1041E0001F91FF90EF901994863308F086539091B9
:1041F0007B00282F2870977F922B90937B008770ED
:10420000806480937C0080917A00806480937A003F
:1042100080917A0086FDFCCF809178002091790012
:1042200090E0922B08958F929F92AF92BF92CF927F
:10423000DF92EF92FF926B017C01CBDC4B015C01C2
:10424000C114D104E104F104E9F0C3DCDC01CB01C9
:1042500088199909AA09BB09883E9340A105B105AF
:1042600078F321E0C21AD108E108F10888EE880E3F
:1042700083E0981EA11CB11CC114D104E104F10417
:1042800021F7DECFFF90EF90DF90CF90BF90AF90FF
:104290009F908F9008952FB7F8946091290B70919B
:1042A0002A0B80912B0B90912C0B2FBF08951F92FE
:1042B0000F920FB60F9211242F933F938F939F93DA
:1042C000AF93BF938091290B90912A0BA0912B0B58
:1042D000B0912C0B3091280B23E0230F2D3720F4C5
:1042E0000196A11DB11D05C026E8230F0296A11D50
:1042F000B11D2093280B8093290B90932A0BA09338
:104300002B0BB0932C0B80912D0B90912E0BA09129
:104310002F0BB091300B0196A11DB11D80932D0B79
:1043200090932E0BA0932F0BB093300BBF91AF91B6
:104330009F918F913F912F910F900FBE0F901F90E3
:1043400018951F920F920FB60F9211240BB60F9271
:104350002F933F934F935F936F937F938F939F938D
:10436000AF93BF93EF93FF938091B900887F80361E
:1043700009F49CC068F5883209F45BC090F4803180
:1043800009F454C038F4882309F4F6C0883009F4DD
:104390004DC0F5C0883109F44CC0803209F45DC0CD
:1043A000EEC0803409F468C048F4803309F455C085
:1043B000883309F0E4C08093010BD8C0803509F43C
:1043C0004FC0883509F45DC0883409F0D8C0D6C024
:1043D000883909F4C7C0A8F4883709F467C038F4ED
:1043E000883609F463C0803709F460C0C8C08838D3
:1043F00009F4B8C0803909F45FC0803809F0BFC043
:104400005BC0803B09F486C038F4803A09F466C08A
:10441000883A09F47FC0B3C0803C09F4A7C0883C47
:1044200009F4A4C0883B09F48AC0A9C08091270B75
:1044300010C09091260B8091250B981770F5E09194
:10444000260B81E08E0F8093260BF0E0EB5FF44F9C
:1044500080818093BB0085EC86C08093010B8EC069
:10446000E091260B81E08E0F8093260B8091BB009C
:10447000F0E0EB5FF44F80839091260B8091250B49
:104480006EC0E091260B81E08E0F8093260B809109
:10449000BB00F0E0EB5FF44F80838091040B81114F
:1044A0006DC081E08093030B84EA61C083E0809358
:1044B000020B1092000BCFCF8091000B803208F0DE
:1044C00051C0E091000B81E08E0F8093000B809132
:1044D000BB00F0E0E052F54F8083BDCF85EC8093C8
:1044E000BC001092020B8091000B803230F4E091FE
:1044F000000BF0E0E052F54F10826091000B70E08D
:10450000E091DE0AF091DF0A80EE9AE019951092B0
:10451000000B35C084E08093020B1092DD0A1092EC
:10452000DC0AE091DA0AF091DB0A19958091DC0A45
:10453000811105C081E08093DC0A1092BA0AE091F3
:10454000DD0A81E08E0F8093DD0AF0E0E654F54F3E
:1045500080818093BB009091DD0A8091DC0A9817DE
:1045600008F479CF85E88093BC0009C085EC80937E
:10457000BC001092020B03C01092010B4FDBFF91A5
:10458000EF91BF91AF919F918F917F916F915F91CB
:104590004F913F912F910F900BBE0F900FBE0F9038
:1045A0001F9018951F920F920FB60F9211240BB601
:1045B0000F922F933F934F935F936F937F938F93BC
:1045C0009F93AF93BF93EF93FF9380910F0C4BDDBD
:1045D0002091130C3091140C2F5F3F4F3093140C2B
:1045E0002093130C9091120C953618F096E090934E
:1045F0000E0C90910E0C9430C9F128F4923069F0B1
:104600009330D1F05EC0953009F451C0963009F076
:1046100058C091E09093DF0C51C0811152C020919D
:10462000130C3091140C2436310508F442C010925A
:10463000DF0C1092120C1CC0813009F042C0E091D6
:10464000120C91E09E0F9093120CF0E02091130C4D
:104650003091140CEE0FFF1FE25FF34F308727837A
:104660001092140C1092130C94E029C0811117C001
:10467000E091120C91E09E0F9093120CF0E02091CB
:10468000130C3091140CEE0FFF1FE25FF34F3087D5
:1046900027831092140C1092130C93E010C02091F9
:1046A000130C3091140C2536310558F007C08111D8
:1046B00008C01092140C1092130C03C095E0909354
:1046C0000E0C9091110C9923B1F081110AC08091C8
:1046D000100C882321F08091100C61E009C02F9A02
:1046E0000AC08091100C882329F08091100C60E0A2
:1046F000E2DC01C02F98FF91EF91BF91AF919F91A4
:104700008F917F916F915F914F913F912F910F907A
:104710000BBE0F900FBE0F901F901895CF92DF9297
:10472000EF92FF92CF93DF93EC01072E000C880BE2
:10473000990B0E94D8596B017C0120E030E040E4E5
:104740005FE30E94BF5B20E030E048E452E40E9457
:104750000C590E94A559C617D707D4F020E030E0C5
:1047600040EA5FE3C701B6010E94BF5B20E030E092
:1047700048E452E40E940C5920E030E040E85FE356
:104780000E94A4580E94A55921E06C177D070CF4E3
:1047900020E0822F90E0DF91CF91FF90EF90DF90AB
:1047A000CF900895AF92BF92CF92DF92EF92FF9297
:1047B0000F931F93CF93DF938C015C018EE0A80EC3
:1047C000B11CE42EF12CC0E0D0E0C62ED12CCE15C9
:1047D000DF0571F0B6010C2E02C0759567950A943D
:1047E000E2F76170F50181915F0165DC2196EFCF01
:1047F00061E0F80185855FDC60E0F8018585DF9187
:10480000CF911F910F91FF90EF90DF90CF90BF90CD
:10481000AF9051CCFC01892B79F08491811101C0BA
:10482000089580E094919C3719F48F5F3196FACF08
:104830009111FCCF8F5F089580E008952F923F92F1
:104840004F925F926F927F928F929F92AF92BF92A0
:10485000CF92DF92EF920F931F93CF93DF931F922C
:104860001F92CDB7DEB76B01142F4DB75EB75A83D9
:1048700049838130910509F452C01CF4892B21F140
:1048800008C28230910509F4BDC0039709F001C246
:10489000E091F60CF091F70C8091F80C9091F90CE6
:1048A000A091FA0CB091FB0C80839183A283B38317
:1048B0008091FC0C8483DB015296ED91FC9153971F
:1048C00060E08C911995E7C1DB015296ED91FC9166
:1048D000539761E08C9119959093F70C8093F60CA7
:1048E000009709F4D8C1FC01408151816281738134
:1048F0004093F80C5093F90C6093FA0C7093FB0CF6
:1049000084818E3E0CF48EEE8093FC0C8091FC0C26
:1049100083310CF4E8C082E18093FC0CE4C0DB013D
:104920005F968C91829FA001839F500D11248091EE
:10493000F80C9091F90CA091FA0CB091FB0CBC0111
:10494000CD01640F751F811D911D0091FC0CF601B6
:10495000B68C6034F2E47F07FFE08F07910514F511
:104960000B1574F0D6015A964D905D906D907C9029
:104970005D970B110EC064157505860597054CF4FF
:104980006093F80C7093F90C8093FA0C9093FB0CE5
:10499000AAC04092F80C5092F90C6092FA0C7092F6
:1049A000FB0CA1C028EE33E040E050E00E944C58E0
:1049B0002093F80C3093F90C4093FA0C5093FB0CB5
:1049C0000D5F0093FC0CB0166CF00B118CC0F6015F
:1049D000828D938DA48DB58D82179307A407B5079B
:1049E0000CF081C0F601828D938DA48DB58D8093DE
:1049F000F80C9093F90CA093FA0CB093FB0CB092C6
:104A0000FC0C71C0DB015F964C91429FC001439F3B
:104A1000900D11244091F80C5091F90C6091FA0C12
:104A20007091FB0C9A01AB01281B390B410951090C
:104A30000091FC0C283EB3E03B07410551050CF109
:104A4000F601618D60175CF085899689A789B08D24
:104A500006130EC082179307A407B5074CF42093E2
:104A6000F80C3093F90C4093FA0C5093FB0C3BC0BC
:104A70008093F80C9093F90CA093FA0CB093FB0C74
:104A800032C0A8EEB3E00E9468586093F80C7093AF
:104A9000F90C8093FA0C9093FB0CEDEFE00FE09390
:104AA000FC0CD60159962C915997E2176CF0E21341
:104AB0001AC055968D909D90AD90BC9058976815F2
:104AC00079058A059B057CF4F60145895689678935
:104AD000708D4093F80C5093F90C6093FA0C70931E
:104AE000FB0C2093FC0C2DB63EB6D6011196FD01B1
:104AF00001900020E9F731975F01AA1ABB0AF6017D
:104B000080A191A10E942D58D60154962C9130E09D
:104B10002C5F3F4FA20EB31E8A0D9B1DEDB7FEB753
:104B2000E81BF90B0FB6F894FEBF0FBEEDBF2DB713
:104B30003EB72F5F3F4F5901B601C9010E94EA38C5
:104B4000D5010D900020E9F74D016091F80C7091AE
:104B5000F90C8091FA0C9091FB0C28EE422E23E088
:104B6000522E612C712CA30192010E944C58F60127
:104B700064896350E12C0AE0C40101970E947F3DE3
:104B8000F50101900020E9F71082F5010190002065
:104B9000E9F731978EE28083F50101900020E9F773
:104BA00031974F018A189B086091F80C7091F90CAD
:104BB0008091FA0C9091FB0CA30192010E944C5839
:104BC0009B01AC0197FF07C050954095309521950A
:104BD0003F4F4F4F5F4FEE24E3940AE064E0C5017E
:104BE000880D991D0E947F3D6CE472E0C5010E9412
:104BF000F25DF50101900020E9F71082D5010D90DA
:104C00000020E9F7EFE0F2E001900020E9F73197AA
:104C1000EF50F2401197F695E7958091FC0C63E018
:104C20000E94415CE15FFD4FE80FF11D87FDFA95A1
:104C300080818C93D60190966D917C919197C5015E
:104C40000E942258E091E20CF091E30CB50183E060
:104C500090E019951123C1F08091F80C9091F90C16
:104C6000A091FA0CB091FB0CE091F60CF091F70CCE
:104C700080839183A283B383D6015296ED91FC91F8
:104C8000539760E08C9119950FB6F8943EBE0FBE15
:104C90002DBE80E001C081E0E981FA810FB6F89471
:104CA000FEBF0FBEEDBF0F900F90DF91CF911F9110
:104CB0000F91EF90DF90CF90BF90AF909F908F902B
:104CC0007F906F905F904F903F902F9008952F921C
:104CD0003F924F925F926F927F928F929F92AF928C
:104CE000BF92CF92DF92EF920F931F93CF93DF93F8
:104CF0001F921F92CDB7DEB76B01142F4DB75EB771
:104D00005A83498381309105C9F11CF4892B09F13B
:104D100026C18230910509F450C0039709F01FC1E4
:104D20008091F80C9091F90CA091FA0CB091FB0CC9
:104D3000E091F60CF091F70C80839183A283B3830A
:104D4000DB015296ED91FC91539760E08C9119959F
:104D500008C1DB015296ED91FC91539761E08C9173
:104D600019959093F70C8093F60C009709F4F9C00D
:104D7000FC0180819181A281B3813DC0DB015F96FE
:104D80008C91829FA001839F500D11248091F80C7B
:104D90009091F90CA091FA0CB091FB0C840F951F27
:104DA000A11DB11DFB01428D538D648D758D84173E
:104DB0009507A607B70744F51EC0DB015F968C91E7
:104DC000829FA001839F500D11248091F80C909137
:104DD000F90CA091FA0CB091FB0C841B950BA10966
:104DE000B109FB01458956896789708D48175907B4
:104DF0006A077B074CF48093F80C9093F90CA0930E
:104E0000FA0CB093FB0C08C04093F80C5093F90CCB
:104E10006093FA0C7093FB0C2DB63EB6D60111963A
:104E2000FD0101900020E9F73197EA1BFB0BD60149
:104E300054968C9190E00396E80FF91F2DB73EB77A
:104E40002E1B3F0B0FB6F8943EBF0FBE2DBF4DB7C4
:104E50005EB74F5F5F4F5A01B601CA010E94EA3840
:104E6000D5010D900020E9F74D016091F80C70918B
:104E7000F90C8091FA0C9091FB0C24E6422E512CF7
:104E8000612C712CA30192010E944C58F601648997
:104E90006250E12C0AE0C40101970E947F3DF501B8
:104EA00001900020E9F71082F50101900020E9F758
:104EB00031978EE28083F50101900020E9F7319768
:104EC0004F018A189B086091F80C7091F90C809141
:104ED000FA0C9091FB0CA30192010E944C589B018B
:104EE000AC0197FF07C050954095309521953F4FF5
:104EF0004F4F5F4FEE24E3940AE063E0C501880D55
:104F0000991D0E947F3D6CE472E0C5010E94F25D34
:104F1000E091E20CF091E30CB50183E090E019958B
:104F20001123C1F08091F80C9091F90CA091FA0C2A
:104F3000B091FB0CE091F60CF091F70C808391831B
:104F4000A283B383D6015296ED91FC91539760E012
:104F50008C9119950FB6F8943EBE0FBE2DBE80E021
:104F600001C081E029813A810FB6F8943EBF0FBE9F
:104F70002DBF0F900F90DF91CF911F910F91EF9068
:104F8000DF90CF90BF90AF909F908F907F906F9069
:104F90005F904F903F902F9008956F927F928F92E5
:104FA0009F92AF92BF92CF92DF92EF920F931F9397
:104FB000CF93DF93CDB7DEB76B01142FADB6BEB67E
:104FC00081309105C9F11CF4892B09F1DAC08230D6
:104FD000910509F448C0039709F0D3C08091F80CFB
:104FE0009091F90CA091FA0CB091FB0CE091F60CA9
:104FF000F091F70C80839183A283B383DB015296F7
:10500000ED91FC91539760E08C911995BCC0DB0148
:105010005296ED91FC91539761E08C911995909384
:10502000F70C8093F60C009709F4ADC0FC01808169
:105030009181A281B3812DC08091F80C9091F90CDF
:10504000A091FA0CB091FB0C820F931FA11DB11D12
:10505000FB01428D538D648D758D84179507A607CE
:10506000B70704F516C08091F80C9091F90CA09147
:10507000FA0CB091FB0C821B930BA109B109FB0147
:10508000458956896789708D481759076A077B07D4
:105090004CF48093F80C9093F90CA093FA0CB09315
:1050A000FB0C08C04093F80C5093F90C6093FA0C79
:1050B0007093FB0C8DB69EB6D6011196FD01019042
:1050C0000020E9F73197EA1BFB0BD60154968C912F
:1050D00090E00396E80FF91F8DB79EB78E1B9F0BCC
:1050E0000FB6F8949EBF0FBE8DBFADB7BEB7119679
:1050F0003D01B601CD010E94EA38F3010190002084
:10510000E9F7CF012091F80C3091F90C4091FA0C9D
:105110005091FB0CD60154966C9154976F5FE12C23
:105120005F960C9101970E947F3D6CE472E0C30191
:105130000E94F25DE091E20CF091E30CB30183E098
:1051400090E019951123C1F08091F80C9091F90C21
:10515000A091FA0CB091FB0CE091F60CF091F70CD9
:1051600080839183A283B383D6015296ED91FC9103
:10517000539760E08C9119950FB6F8949EBE0FBEC0
:105180008DBE80E001C081E00FB6F894BEBE0FBEB8
:10519000ADBEDF91CF911F910F91EF90DF90CF9037
:1051A000BF90AF909F908F907F906F9008959F9247
:1051B000AF92BF92CF92DF92EF92FF920F931F9325
:1051C000CF93DF93CDB7DEB78B01942EEDB6FEB64D
:1051D0008330910534F481309105A4F5892BE9F0F1
:1051E000AAC0039709F0A7C08091F80C9091F90C20
:1051F000A091FA0CB091FB0CE091F60CF091F70C39
:1052000080839183A283B383DB015296ED91FC915D
:10521000539760E08C91199590C0DB015296ED9107
:10522000FC91539761E08C9119959093F70C8093C2
:10523000F60C009709F481C0FC0180819181A28164
:10524000B38113C081E090E0A0E0B0E04091F80CA1
:105250005091F90C6091FA0C7091FB0C452B462B88
:10526000472B19F080E090E0DC018093F80C9093DC
:10527000F90CA093FA0CB093FB0CCDB6DEB6F80196
:105280003196DF010D900020E9F7CD018E1B9F0BB9
:105290000396EDB7FEB7E81BF90B0FB6F894FEBF07
:1052A0000FBEEDBF2DB73EB72F5F3F4F5901B8017D
:1052B000C9010E94EA388091F80C9091F90CA091F4
:1052C000FA0CB091FB0C892B8A2B8B2B19F468E418
:1052D00072E002C06AE472E0C5010E94F25D6CE413
:1052E00072E0C5010E94F25DE091E20CF091E30CE6
:1052F000B50183E090E019959920C1F08091F80CF8
:105300009091F90CA091FA0CB091FB0CE091F60C85
:10531000F091F70C80839183A283B383D8015296D6
:10532000ED91FC91539760E08C9119950FB6F8942C
:10533000DEBE0FBECDBE80E001C081E00FB6F894A6
:10534000FEBE0FBEEDBEDF91CF911F910F91FF907A
:10535000EF90DF90CF90BF90AF909F9008952F92E5
:105360003F924F925F926F927F928F929F92AF92F5
:10537000BF92CF92DF92EF92FF920F931F93CF9342
:10538000DF93CDB7DEB78B01542E2DB63EB68130FC
:10539000910509F48DC01CF4892B09F12CC18230D0
:1053A000910509F455C0039709F025C18091F80CC7
:1053B0009091F90CA091FA0CB091FB0CE091F60CD5
:1053C000F091F70C80839183A283B383DB01529623
:1053D000ED91FC91539760E08C91199598C0DB0199
:1053E00090968D919C91919715DAF82E882309F467
:1053F0008EC0D8015296ED91FC91539761E08C914B
:1054000019959093F70C8093F60C009709F47FC0E0
:10541000FC0140815181628173814093F80C50936B
:10542000F90C6093FA0C7093FB0C8F2D90E0A0E0C8
:10543000B0E0481759076A077B070CF46AC010925E
:10544000F80C1092F90C1092FA0C1092FB0C61C03F
:10545000DB0190968D919C919197DCD94091F80C4D
:105460005091F90C6091FA0C7091FB0C1416150612
:10547000160617062CF4415051096109710933C011
:10548000452B462B472B09F0B6C09091F50C92FFA7
:10549000B2C090E00197092E000CAA0BBB0B8093C1
:1054A000F80C9093F90CA093FA0CB093FB0C31C05C
:1054B000FB0180A191A1AED94091F80C5091F90C5B
:1054C0006091FA0C7091FB0C90E00197092E000C92
:1054D000AA0BBB0B481759076A077B076CF44F5F91
:1054E0005F4F6F4F7F4F4093F80C5093F90C6093D0
:1054F000FA0C7093FB0C0DC0481759076A077B071D
:1055000009F079C08091F50C82FD99CF74C081E0DB
:10551000ABC08DB69EB6F801848990E06C01FFEFB8
:10552000CF1ADF0A2DB73EB72C193D090FB6F894F4
:105530003EBF0FBE2DBFADB7BEB711963D01D8011E
:105540001196FD0101900020E9F73197EA1BFB0B52
:105550000496E80FF91F2E1B3F0B0FB6F8943EBFC1
:105560000FBE2DBF8DB79EB701965C01B8010E949A
:10557000EA384090F80CD8019096ED90FC90919705
:10558000DD24A60160E070E0C3010E94EB5DE11440
:10559000F10409F03DC0B301C5010E94F25D6CE465
:1055A00072E0C5010E94F25DE091E20CF091E30C23
:1055B000B50183E090E019955520C1F08091F80C79
:1055C0009091F90CA091FA0CB091FB0CE091F60CC3
:1055D000F091F70C80839183A283B383D801529614
:1055E000ED91FC91539760E08C9119950FB6F8946A
:1055F0009EBE0FBE8DBE80E037C0EC3741F0BFEFDE
:10560000EB1AFB0AF7013197E491E111F6CF4A94C6
:105610004110F5CF462DD301E1E0CE1AD108CD01DE
:105620002A2F241B30E02C153D057CF4F701249132
:105630002C3711F02C9301C01C921196FFEFEF1A3A
:10564000FF0AFC0120812111EACFDC0180E2F30195
:1056500001900020E9F73197E619F709EC15FD05EF
:1056600008F099CF8D93F3CF0FB6F8943EBE0FBEDE
:105670002DBEDF91CF911F910F91FF90EF90DF90A2
:10568000CF90BF90AF909F908F907F906F905F90E2
:105690004F903F902F900895CF93DF93D82FC0E085
:1056A0009091E90CC917A8F46091EA0C7091EB0C89
:1056B00082E2C89F600D711D112442E250E082E534
:1056C0009DE00E9419588091520D8D1729F0CF5FEF
:1056D000E7CF80E090E002C082E59DE0DF91CF91CE
:1056E0000895AF92BF92CF92DF92EF92FF920F9305
:1056F0001F93CF93DF93CDB7DEB767970FB6F894BC
:10570000DEBF0FBECDBFEDB6FEB68823A1F1E0919E
:10571000E20CF091E30C60E070E081E090E019951C
:105720006091FD0C15E1169FB00111246150734F7B
:10573000E091E20CF091E30C82E090E01995E091A9
:10574000FD0C1E9FF0011124E052F34F82A981113C
:1057500002C080A982AB8091F50C81608093F50C2A
:105760000E944B216093ED0C7093EE0C8093EF0C34
:105770009093F00C7AC181E090E09F8B8E8BE0914A
:10578000E00CF091E10CCE01469619958C01892B25
:1057900051F00E944B216093ED0C7093EE0C8093BE
:1057A000EF0C9093F00C0230110589F03CF40130BD
:1057B000110509F098C110E005E143C0033011055F
:1057C00009F44FC00430110509F43FC18CC110E049
:1057D00005E18091FD0C90E0089FF001099FF00D1C
:1057E0001124E052F34F22A930A9321714F42150AA
:1057F00005C02091F50C22FF03C021A922AB11E0C6
:10580000089FF001099FF00D1124E052F34F82A987
:105810000E944038892BE9F226C12091F50C22FF25
:1058200003C020A922AB11E0089FF001099FF00DF1
:105830001124E052F34F82A90E944038892B09F0CD
:1058400012C18091FD0C90E0089FF001099FF00DBE
:105850001124E052F34F22A931A92317F4F62F5F48
:10586000E1CFE091FD0C15E11E9FF0011124E05203
:10587000F34F82A90E944038FC01808991890097EA
:1058800029F097FD30C10397ECF12DC19091FD0CEB
:10589000933008F028C19F5F9093FD0C02890F3F61
:1058A00011F410E019C010E08091E60C1817C8F749
:1058B0006091E40C7091E50C25E1129F600D711D63
:1058C000112445E150E0CE0101960E9419588981CA
:1058D000801711F01F5FE8CF6091E40C7091E50C28
:1058E00035E11302600D711D11248091FD0CE5E17D
:1058F0008E9FC001112445E150E08250934F0E94D9
:1059000019582EC08289C8DE892B09F4ECC0E091B9
:10591000E20CF091E30C60E070E081E090E019951A
:10592000E091FD0C1E9FF0011124E052F34F82A97B
:105930000E9440386C01BC016F5F7F4FE091E20C28
:10594000F091E30C82E090E01995F6018289A4DEE3
:105950008C01009741F48091F50C8D7F8093F50CBC
:1059600081E0BFDEC0C0FC0182899389892B99F355
:105970008091F50C82608093F50C0E944B2160931E
:10598000ED0C7093EE0C8093EF0C9093F00CF801FB
:10599000808991898230910551F12CF4009779F03A
:1059A0000197C9F0A0C08430910509F43CC06CF1A6
:1059B000059709F098C0C8010E94653842C041E0CF
:1059C000F60180899189029709F040E0B80180E0F2
:1059D00090E0C5DC36C041E0F601808991890297EC
:1059E00009F040E0B80180E090E0E1DB2AC041E04E
:1059F000F60180899189029709F040E021E030E0CA
:105A0000B80180E090E0C9DA1CC041E0F60180896D
:105A10009189029709F040E021E030E0B80180E090
:105A200090E055D90EC041E0F60180899189029736
:105A300009F040E021E030E0B80180E090E00E9411
:105A40001E24882309F44FC086CF8091FD0C81115C
:105A500006C08091F50C8E7F8093F50C44C0815078
:105A60008093FD0C7DCF1123F1F1E091FD0C25E138
:105A7000E29FF0011124E052F34F82A90E944038C6
:105A8000009789F1CDB6DEB68C010F5F1F4FF8018C
:105A900001900020E9F7CF01801B910B0196EDB733
:105AA000FEB7E81BF90B0FB6F894FEBF0FBEEDBFB3
:105AB0002DB73EB72F5F3F4F590166E472E0C90131
:105AC0000E94065EB801C5010E94F25DE091E20C01
:105AD000F091E30CB50183E090E019950FB6F894CE
