:100000000C948A0B0C94BB0B0C94BB0B0C94BB0B89
:100010000C94BB0B0C94BB0B0C94BB0B0C94BB0B48
:100020000C94BB0B0C94BB0B0C94BB0B0C94BB0B38
:100030000C94BB0B0C9454300C94BB0B0C94BB0B6A
:100040000C94BB0B0C94BB0B0C94BB0B0C94BB0B18
:100050000C94BB0B0C94BB0B0C94BB0B0C94D92EC7
:100060000C94BB0B0C94292D0C94002D0C94BB0B01
:100070000C94BB0B0C94BB0B0C94BB0B0C94BB0BE8
:100080000C94BB0B0C94BB0B0C94BB0B0C94BB0BD8
:100090000C94D72C0C94AE2C0C94BB0B0C94232FEB
:1000A0000C94BB0B0C94BB0B0C94BB0B0C94BB0BB8
:1000B0000C94BB0B0C94BB0B0C94BB0B0C94BB0BA8
:1000C0000C94BB0B0C94BB0B0C94BB0B0C94852CAD
:1000D0000C945C2C0C94BB0B0C94332C0C940A2CBD
:1000E0000C94BB0B0248704843482B4826432643D8
:1000F000FC472643FC472643FC47FC47FC47264376
:10010000FC47FC47F449624A354A1D4AF344F3442C
:10011000EE49F344EE49F344EE49EE49EE49F34427
:10012000EE49EE49E64B404C134CFB4BC046C046F3
:10013000E04BC046E04BC046E04BE04BE04BC046D6
:10014000E04BE04B7C0C800C900C900C900CBD0FA5
:10015000540F910FBD0F0410B819BA19C619BA1966
:10016000C619C819C819FF1B0A1C251C411C5D1C97
:100170005D1C791C8C1C9F1CB51CC71CD91CEF1C5A
:10018000051D1B1D291E471E651E7F1E891E9E1EE6
:10019000B31EE61EFC1E121F711F711F1C1F3D1F88
:1001A000242B272B162B1A2B202B5E2B2B2B2F2BA4
:1001B000352B392B3D2B432B472B4B2B5E2B512BB8
:1001C000552B592B79317F3140329831A031E331B1
:1001D000F03107634236B79BD8A71A39685618AE74
:1001E000BAAB558C1D3CB7CC5763BD6DEDFD753E6C
:1001F000F6177231BF000000803F08000000BE9279
:100200002449123EABAAAA2ABECDCCCC4C3E00005B
:100210000080BEABAAAAAA3E00000000BF000000FA
:10022000803F0000000000084178D3BB4387D11312
:100230003D190E3CC3BD4282AD2B3E68EC8276BEBA
:10024000D98FE1A93E4C80EFFFBE01C4FF7F3F0084
:100250000000000000002100240027002A002D00DB
:100260003000330001010000040107010A01000011
:100270002200250028002B002E003100340002014E
:100280000000050108010B010000200023002600EA
:1002900029002C002F00320000010000030106019C
:1002A00009010505050507050808080802020202FC
:1002B0000A0A080804040404010101010101010102
:1002C0000303030303030303040707070C0C0C0CCD
:1002D0000C0C0C0C020202020606060606060606B6
:1002E0000B0B0B0B0B0B0B0B010210202008081043
:1002F0002040102040800201020108040201010296
:10030000040810204080804020100804020180046E
:1003100002018040201008040201080402010102C9
:1003200004081020408001020408102040800000D2
:100330000A0B02090C0D0E0807030401000000005F
:1003400000000000000000000000000000000000AD
:10035000000000000000000000001211100000006A
:10036000000000000000000000000000000000008D
:100370000000000020536D61727420436F6E666947
:1003800067207C2041636365737320506F696E74CE
:1003900020002020202020555342202020202020F3
:1003A0007C20204C6567616379204D494449207C5D
:1003B0002020204170706C654D49444920207C20EC
:1003C0002020426C7565746F6F74682020002020B7
:1003D00020204C696E656172202020207C20202026
:1003E0002020204C6F6720202020207C20202041CE
:1003F0006E74692D4C6F6720202000204E6F7C5951
:100400006573002020202053696E676C65202020D2
:10041000207C20202020446F75626C6520202020E5
:100420007C20202020204C6F6E6720202020207C04
:10043000202020202020312B3220202020207C2032
:100440002020202020312B4C20202020207C202008
:10045000202020312B322B4C202020207C202020DB
:10046000202020322B4C2020202020002020204D36
:100470006F6D656E7461727920207C2020202020B1
:100480004C61746368202020207C20202020416E55
:10049000616C6F67202020207C2020204A6F67201D
:1004A000576865656C20207C20204D6F6D656E74EB
:1004B0006172792032207C20204D6F6D656E7461F1
:1004C00072792033207C202020204C6174636820C6
:1004D000322020207C202020204C6174636820334F
:1004E0002020200020202044697361626C65202058
:1004F00020207C20202020456E61626C6520202019
:10050000200020202020204D494449202020202068
:100510007C2020202042616E6B202B202020207C1C
:100520002020202042616E6B202D202020207C2066
:10053000202020205374617274202020207C2020F1
:1005400020202053746F7020202020207C20202029
:1005500020205461702020202020207C202020207A
:10056000204D656E7520202020207C2020202043F7
:100570006F6E6669726D2020207C202020204573DC
:1005800063617065202020207C20202020204E6583
:10059000787420202020207C2020205072657669ED
:1005A0006F75732020200030302043307C303120A4
:1005B0004323307C30322044307C3033204423309D
:1005C0007C30342045307C30352046307C3036203D
:1005D0004623307C30372047307C3038204723306A
:1005E0007C30392041307C3041204123307C304206
:1005F0002042307C30432043317C3044204323313F
:100600007C30452044317C3046204423317C3130DD
:100610002045317C31312046317C31322046233136
:100620007C31332047317C3134204723317C3135D4
:100630002041317C3136204123317C313720423119
:100640007C31382043327C3139204323327C3141A4
:100650002044327C3142204423327C3143204532D5
:100660007C31442046327C3145204623327C314661
:100670002047327C3230204723327C3231204132D5
:100680007C3232204123327C32332042327C32347D
:100690002043337C3235204323337C3236204433AD
:1006A0007C3237204423337C32382045337C323946
:1006B0002046337C3241204623337C32422047336C
:1006C0007C3243204723337C32442041337C324503
:1006D000204123337C32462042337C333020433464
:1006E0007C3331204323347C33322044347C333315
:1006F000204423347C33342045347C333520463445
:100700007C3336204623347C33372047347C3338DF
:10071000204723347C33392041347C33412041232A
:10072000347C33422042347C33432043357C334491
:10073000204323357C33452044357C3346204423F5
:10074000357C34302045357C34312046357C34329C
:10075000204623357C34332047357C3434204723EE
:10076000357C34352041357C3436204123357C348A
:10077000372042357C34382043367C3439204323BB
:10078000367C34412044367C3442204423367C3449
:10079000432045367C34442046367C34452046236D
:1007A000367C34462047367C3530204723367C352E
:1007B000312041367C3532204123367C353320428E
:1007C000367C35342043377C3535204323377C3520
:1007D000362044377C3537204423377C3538204554
:1007E000377C35392046377C3541204623377C35E8
:1007F000422047377C3543204723377C354420410E
:10080000377C3545204123377C35462042377C36BE
:10081000302043387C3631204323387C3632204424
:10082000387C3633204423387C36342045387C36B7
:10083000352046387C3636204623387C36372047EC
:10084000387C3638204723387C36392041387C368E
:1008500041204123387C36422042387C36432043B5
:10086000397C3644204323397C36452044397C3654
:1008700046204423397C37302045397C37312046A7
:10088000397C3732204623397C37332047397C374F
:1008900034204723397C37352041397C3736204195
:1008A00023397C37372042397C3738204331307C3C
:1008B000373920432331307C3741204431307C3775
:1008C0004220442331307C3743204531307C37444B
:1008D000204631307C374520462331307C37462056
:1008E0004731307C0030302042616E6B2053656CA4
:1008F0006563747C3031204D6F64756C6174696F11
:100900006E207C30322042726561746820436F6EC5
:10091000747C303320556E646566696E6564202092
:100920007C303420466F6F7420436F6E74726F7C1E
:10093000303520506F7274616D656E746F547C3009
:10094000362044617461456E74724D53427C303779
:1009500020566F6C756D6520202020207C3038205B
:1009600042616C616E6365202020207C3039205507
:100970006E646566696E656420207C30412050613C
:100980006E20202020202020207C304220457870BE
:1009900072657373696F6E207C30432045666665AF
:1009A000637420312020207C3044204566666563D6
:1009B0007420322020207C304520556E64656669A5
:1009C0006E656420207C304620556E646566696ED5
:1009D000656420207C31302047656E507572706FE1
:1009E0007365317C31312047656E507572706F735D
:1009F00065327C31322047656E507572706F736559
:100A0000337C31332047656E507572706F73653477
:100A10007C313420556E646566696E656420207C87
:100A2000313520556E646566696E656420207C31C1
:100A30003620556E646566696E656420207C3137AA
:100A400020556E646566696E656420207C313820AF
:100A5000556E646566696E656420207C3139205569
:100A60006E646566696E656420207C314120556E38
:100A7000646566696E656420207C314220556E6431
:100A80006566696E656420207C314320556E64651F
:100A900066696E656420207C314420556E6465660D
:100AA000696E656420207C314520556E64656669F9
:100AB0006E656420207C314620556E646566696EE3
:100AC000656420207C32302042616E6B2053656C5F
:100AD0006563747C3231204D6F64756C6174696F2D
:100AE0006E207C32322042726561746820436F6EE2
:100AF000747C323320556E646566696E65642020AF
:100B00007C323420466F6F7420436F6E74726F7C3A
:100B1000323520506F7274616D656E746F207C3257
:100B2000362044617461456E74724C53427C323796
:100B300020566F6C756D6520202020207C32382077
:100B400042616C616E6365202020207C3239205523
:100B50006E646566696E656420207C324120506158
:100B60006E20202020202020207C324220457870DA
:100B700072657373696F6E207C32432045666665CB
:100B8000637420312020207C3244204566666563F2
:100B90007420322020207C324520556E64656669C1
:100BA0006E656420207C324620556E646566696EF1
:100BB000656420207C33302047656E507572706FFD
:100BC0007365317C33312047656E507572706F7379
:100BD00065327C33322047656E507572706F736575
:100BE000337C33332047656E507572706F73653494
:100BF0007C333420556E646566696E656420207CA4
:100C0000333520556E646566696E656420207C33DB
:100C10003620556E646566696E656420207C3337C6
:100C200020556E646566696E656420207C333820CB
:100C3000556E646566696E656420207C3339205585
:100C40006E646566696E656420207C334120556E54
:100C5000646566696E656420207C334220556E644D
:100C60006566696E656420207C334320556E64653B
:100C700066696E656420207C334420556E64656629
:100C8000696E656420207C334520556E6465666915
:100C90006E656420207C334620556E646566696EFF
:100CA000656420207C34302044616D70657250652D
:100CB00064616C7C343120506F7274616D656E7448
:100CC0006F207C343220536F7374656E75746F209F
:100CD000207C343320536F667420506564616C202F
:100CE0007C3434204C656761746F20202020207C88
:100CF000343520486F6C64203220202020207C3442
:100D00003620536F756E64436F6E7472317C343766
:100D100020536F756E64436F6E7472327C3438206A
:100D2000536F756E64436F6E7472337C3439205325
:100D30006F756E64436F6E7472347C344120536FF0
:100D4000756E64436F6E7472357C344220536F75D8
:100D50006E64436F6E7472367C344320536F756ECD
:100D600064436F6E7472377C344420536F756E64C5
:100D7000436F6E7472387C344520536F756E6443D4
:100D80006F6E7472397C344620536F756E64436F96
:100D90006E7431307C35302047656E507572706FDF
:100DA0007365357C35312047656E507572706F7391
:100DB00065367C35322047656E507572706F73658D
:100DC000377C35332047656E507572706F736538A8
:100DD0007C353420506F7274616D656E746F437C26
:100DE000353520556E646566696E656420207C35F6
:100DF0003620556E646566696E656420207C3537E3
:100E000020556E646566696E656420207C353820E7
:100E100048522056656C6F636974797C353920556A
:100E20006E646566696E656420207C354120556E70
:100E3000646566696E656420207C3542204566667F
:100E400065637473203120207C35432045666665D8
:100E5000637473203220207C3544204566666563C8
:100E60007473203320207C354520456666656374A5
:100E700073203420207C3546204566666563747394
:100E8000203520207C3630204461746120496E6317
:100E90002020207C36312044617461204465632029
:100EA00020207C3632204E52504E204C534220207F
:100EB000207C3633204E52504E204D53422020206D
:100EC0007C36342052504E204C5342202020207C2F
:100ED00036352052504E204D5342202020207C3663
:100EE0003620556E646566696E656420207C3637F1
:100EF00020556E646566696E656420207C363820F6
:100F0000556E646566696E656420207C36392055AF
:100F10006E646566696E656420207C373020556E8E
:100F2000646566696E656420207C373120556E6487
:100F30006566696E656420207C373220556E646575
:100F400066696E656420207C373320556E64656663
:100F5000696E656420207C373420556E646566694F
:100F60006E656420207C373420556E646566696E3A
:100F7000656420207C373520556E646566696E6532
:100F80006420207C373620556E646566696E656422
:100F900020207C373720556E646566696E65642055
:100FA000207C373820416C6C536F756E644F6666D9
:100FB0007C3739205265736574416C6C436F6E7C6D
:100FC0003741204C6F63616C436F6E74726F7C3776
:100FD0004220416C6C4E6F7465734F66667C37437C
:100FE000204F6D6E694D6F64654F66667C37442097
:100FF0004F6D6E694D6F6465204F6E7C3745204D97
:101000006F6E6F4D6F6465204F6E7C374620506F5A
:101010006C794D6F6465204F6E0050726F6772611E
:101020006D204368616E67657C20436F6E74726FDC
:101030006C20436F6465207C20204E6F7465204FC8
:101040006E2F4F6666207C202050697463682042B2
:10105000656E64202000143E312D31303A2020206E
:101060002020200000000200D81B02010000000028
:101070000A000000000A0000153E312D31363A20EA
:1010800020202020200000000200D81B02010000C8
:10109000000010000000000A0000163E312D31361D
:1010A0003A2020202020200000000200D81B02014E
:1010B0000000000010000000000A000017000000FF
:1010C0000000000000000000000000000000D81B2D
:1010D0000E00000000000000000000001A101800C0
:1010E0000000000000000000000000000000000000
:1010F000D81B0E0000000000000000000000E50802
:1011000019000000000000000000000000000000C6
:101110000000D81B0E0000000000000000000000CE
:10112000A7051A00000000000000000000000000F9
:1011300000000000D81B0E000000000000000000AE
:10114000000002051B00000000000000000000007D
:10115000000000000000D81B0E000000000000008E
:1011600000000000E4041C0000000000000000007B
:101170000000000000000000D81B0E00000000006E
:101180000000000000006C041D00000000000000D2
:1011900000000000000000000000D81B0E0000004E
:1011A000000000000000000003041E302D31323723
:1011B0003A2020202020000000000200D81B03005D
:1011C000000000007F000000000A00001F302D31E9
:1011D00032373A2020202020000000000200D81BD7
:1011E0000300000000007F000000000A0000203023
:1011F0002D3132373A20202020200000000002004C
:10120000D81B0300000000007F000000000A00005F
:1012100021496E766572743A20202020000000007B
:101220000000D81B030000000000000000000000C8
:10123000FB0322436F6E6669726D000000000000C0
:1012400000000500D81B00000000000000000000A6
:1012500000000000233E302D313032333A20200090
:10126000000000000200D81B040000000000FF0383
:101270000000000A0000243E302D313032333A2085
:101280002000000000000200D81B04000000000045
:10129000FF030000000A000025000000000000001D
:1012A00000000000000000000000D81B0E0000003D
:1012B0000000000000000000CE0326000000000037
:1012C000000000000000000000000000D81B0E001D
:1012D0000000000000000000000092032700000052
:1012E0000000000000000000000000000000D81B0B
:1012F0000E0000000000000000000000E4042800D0
:1013000000000000000000000000000000000000DD
:10131000D81B0E0000000000000000000000E404E4
:101320002900000000000000000000000000000094
:101330000000D81B0E0000000000000000000000AC
:10134000E4042A000000000000000000000000008B
:1013500000000000D81B0E0000000000000000008C
:101360000000E4042B00000000000000000000006A
:10137000000000000000D81B0E000000000000006C
:1013800000000000E4042D312D393A2020202020D7
:101390002000000000000200D81B01000000000136
:1013A00009000000000A00002E312D393A202020CB
:1013B00020202000000000000200D81B01000000D7
:1013C000000109000000000A00002F0000000000DA
:1013D000000000000000000000000000D81B0E000C
:1013E00000000000000000000000740330436F6E36
:1013F0006669726D00000000000000000500D81B47
:1014000000000000000000000000000000000A4290
:10141000616E6B73205365747570000000000000EE
:101420000B0B506564616C7320536574757000001C
:101430000000000C0C496E74657266616365205390
:101440006574757000000D0D50726F66696C657380
:101450000000000000000000000E0E4F7074696F65
:101460006E73000000000000000000000F145365C0
:101470006C6563742042616E6B0000000001001413
:101480001E53656C65637420506564616C000000D8
:101490000100151F5365744D4944494368616E6EE0
:1014A000656C00010016205365744D4944494D6533
:1014B00073736167650001001721536574204D49FE
:1014C000444920436F64650000010018225365748D
:1014D000204D494449204E6F7465000001001928D1
:1014E00053656C65637420506564616C0000000195
:1014F0000015295365742046756E6374696F6E001C
:10150000000001001A2A4175746F2053656E7369DB
:101510006E6700000001001B2B536574204D6F6443
:10152000650000000000000001001C2C53657420C1
:101530005072657373204D6F64650001001D2D535B
:10154000657420506F6C617269747900000001004D
:10155000212E43616C6962726174650000000000B5
:10156000000100222F536574205A65726F0000003D
:101570000000000001002330536574204D617800A5
:101580000000000000000001002431526573706FFC
:101590006E736520437572766500010025325369CC
:1015A0006E676C6520507265737300000001001E49
:1015B00033446F75626C6520507265737300000070
:1015C00001001F344C6F6E6720507265737300000A
:1015D0000000000100203C4D49444920496E7465DB
:1015E0007266616365000100263D4D49444920490A
:1015F0004E00000000000000000100273E4D49445D
:1016000049204F5554000000000000000100283F11
:101610004D49444920544852550000000000000143
:101620000029404D49444920526F7574696E670026
:10163000000001002A414D49444920436C6F636B0F
:10164000000000000001002B464C6F6164205072C6
:101650006F66696C6500000001002647536176657E
:101660002050726F66696C650000000100285057B9
:10167000694669204D6F64650000000000000100AC
:101680002F51466163746F72792064656661756C71
:10169000740100300A506564616C696E6F28544DA6
:1016A0002900000000000A0D000B42616E6B7320E0
:1016B00053657475700000000000001422000C5087
:1016C0006564616C732053657475700000000000E0
:1016D0002834000D496E7465726661636520536538
:1016E00074757000003C41000E50726F66696C6545
:1016F000730000000000000000004647000F4F701C
:1017000074696F6E7300000000000000000000505C
:101710005100814D11241FBECFEFD1E2DEBFCDBFFE
:1017200000E00CBF13E0A0E0B2E0E8E7F2EB00E07D
:101730000BBF02C007900D92A034B107D9F72EE07D
:10174000A0E4B3E001C01D92A437B207E1F71BE0AB
:10175000CAE8DBE000E006C021970109802FFE0106
:101760000E94B654C938D10780E00807A9F70E9443
:1017700063390C943A590C9400002F923F924F9287
:101780005F926F927F928F929F92AF92BF92CF9211
:10179000DF92EF92FF920F931F93CF93DF93CDB71A
:1017A000DEB727970FB6F894DEBF0FBECDBF21E09E
:1017B00030E0DC012D933C93A3E2EA2EA5E0FA2E63
:1017C000BAE0AB2EB12C1CE2812E9924939404EF45
:1017D000C02EDD24D394F7018081882309F4B9C099
:1017E000870122E0D8015D968D919C915E970097CC
:1017F00009F496C0DC01ED91FC910280F381E02DAB
:101800002F8319953C012F818230910509F47EC008
:1018100034F40097B9F1019709F45FC081C00397D0
:1018200009F479C084E06816710409F079C0D80120
:101830005D96ED91FC915E97148613868085846099
:1018400080875D96ED91FC915E9716861586808562
:10185000826080875D96ED91FC915E97B08AA78645
:101860008085816080875D96ED91FC915E97808593
:101870008B7F80875D96ED91FC915E9780858D7F53
:1018800080872BC0D8015D96ED91FC915E97948680
:1018900083868085846080875D96ED91FC915E975C
:1018A000D686C5868085826080875D96ED91FC91A5
:1018B0005E97D08AC7868085816080875D96ED912E
:1018C000FC915E978085846080875D96ED91FC91A8
:1018D0005E9780858260808723C0D701EC918E2F30
:1018E00090E0FC013197EA30F105D0F48827EE55FD
:1018F000FF4F8F4F0C94B654809122058F5F03C029
:10190000809122058150809322050AC0F7018081D1
:10191000863031F4C9C2D7018C91863009F401C3F5
:101920000E5F1F4F213011F021E05CCF6114710474
:1019300081F0F701858D968DDC01ED91FC9104809D
:10194000F581E02D19958C3409F417C3823509F41B
:101950005BC3B3E2EB0EF11CE3E5EE16E7E0FE0637
:1019600009F039CF82ED98E09093290880932808F8
:101970008091CF0890E090932B0880932A08809163
:101980009C0990E090932D0880932C088091CB08BF
:10199000853009F0DBC28091D4089091D508885831
:1019A00091098D35910588F48091CF08843041F4F8
:1019B0008091D6089091D7088097479708F440C344
:1019C0008091CF08843408F022C38091CF088A31F7
:1019D00008F454C08091D2089091D308843F91407C
:1019E00080F410922708109226088FEF9FEFDC01F9
:1019F0008093220890932308A0932408B09325088D
:101A00005BC08091D4089091D50885974B97B0F52D
:101A1000E8EDF8E082E090E040E050E0BA018C01AF
:101A20000F5F1F4F2091CF0830E0021713076CF4AF
:101A30009F0122503109D9012D913C912750310944
:101A40002730310508F43EC3C80101979595879565
:101A500090932708809326080C972CF4109227085F
:101A6000109226080BC040932208509323086093DD
:101A700024087093250884E090E0FBC38091CF0890
:101A80008A3108F44DC08091D2089091D3088032F9
:101A9000934008F4A6CF8091D4089091D508C697BA
:101AA000869708F42BC33CC0409322085093230828
:101AB00060932408709325088BE090E0DAC32081BE
:101AC0003181255231092B31310508F027C3440FEC
:101AD000551F661F771F4160029634968C010F5F79
:101AE0001F4F2091CF0830E00217130764F49F01C5
:101AF00022503109D9012D913C912C5031092B30C4
:101B00003105E8F2C80101979595879590932708CC
:101B1000809326080C9744F6109227081092260806
:101B20008091CF08823208F44CC08091D408909103
:101B3000D5080697079708F044C0E8EDF8E082E082
:101B400090E040E050E0BA018C010F5F1F4F209100
:101B5000CF0830E002171307DCF4DF0112972D9154
:101B60003C9111972E5131092731310508F0E3C21C
:101B7000440F551F661F771F4160208131813496C5
:101B8000235031092530310510F40296DDCFC8010C
:101B900001979595879590932708809326084097FD
:101BA0002CF410922708109226080BC040932208AC
:101BB0005093230860932408709325088CE090E0EC
:101BC00058C31C821B8281E090E09A8389838091B4
:101BD000CF088D3008F46BC049E753E0BE016D5F5C
:101BE0007F4FCE0101960E943138892B09F05FC0EA
:101BF00049E753E0BE016D5F7F4FCE0101960E9421
:101C00003138019709F053C049E753E0BE016D5FD9
:101C10007F4FCE0101960E943138892B09F047C0D1
:101C2000C12CD12C760100E010E08091CF0890E02B
:101C300029813A81281739075CF549E753E0BE014D
:101C40006D5F7F4FCE0101960E9431385C0149E7FC
:101C500053E0BE016D5F7F4FCE0101960E94313887
:101C6000B1E0AB16B10449F4892B09F5CC0CDD1CAD
:101C7000EE1CFF1C6894C0F808C0AB28C1F40197A3
:101C8000B1F4CC0CDD1CEE1CFF1C0F5F1F4FCDCF41
:101C90001093270800932608C0922208D0922308A8
:101CA000E0922408F092250881E090E0E2C21C82D4
:101CB0001B8281E090E09A83898380912A08909129
:101CC0002B08181619060CF058C0E0912808F0915E
:101CD000290882E090E09A838983828193818997A1
:101CE0004E9708F04AC083E090E09A83898384810C
:101CF00095810B970A9708F040C04CEB51E0BE016C
:101D00006D5F7F4FCE0101960E943138892BA9F576
:101D10004CEB51E0BE016D5F7F4FCE0101960E94FA
:101D20003138019751F5C12CD12C760100E010E03B
:101D300029813A8180912A0890912B082817390728
:101D40000CF03CC24CEB51E0BE016D5F7F4FCE0109
:101D500001960E9431384C010330110509F0F8C199
:101D60004CEB51E0BE016D5F7F4FCE0101960E94AA
:101D700031388816990609F4EBC1E0912808F091F2
:101D8000290882819381C697869708F074C384815D
:101D900095814B97459708F06EC3DF0116967F013A
:101DA00026ECE20EF11C20E030E040E050E060E084
:101DB00070E080E090E00D911C911197095011099D
:101DC0000830110508F057C312960D911C91139716
:101DD000015111090D30110508F0FFC101E00E9409
:101DE000C45421601496AE15BF0529F7209322082C
:101DF00030932308409324085093250800E20E9462
:101E0000DF54209320083093210885E090E09093E0
:101E10001F0880931E0880E390E09093270880932A
:101E200026088091220890912308A0912408B0915F
:101E3000250822E02093CB081092CF088F3FEFEFC8
:101E40009E07AE07BE0799F185382AE792072FEF64
:101E5000A207B10509F43AC608F074C2853AEAE56A
:101E60009E07EFEFAE07B10509F444C608F030C68F
:101E7000873D28E292072FEFA207B10509F4BAC007
:101E800008F03AC68D3FE2E09E07EFEFAE07B105DE
:101E900009F0A8C010926C078093680790936907B7
:101EA000A0936A07B0936B0783E090E062C620912D
:101EB0006C07253008F447C0809168079091690746
:101EC000A0916A07B0916B078538FAE79F07FFEF8B
:101ED000AF07B10509F4FAC508F4D0C185323AED6F
:101EE00093073FEFA307B10509F4C7C508F448C03D
:101EF00085313AEE93073FEFA307B10509F452C0CD
:101F000098F48D31F2EE9F07FFEFAF07B10509F0AE
:101F100061C28093680790936907A0936A07B093A2
:101F20006B0784E090E025C68D3032EF93073FEFDA
:101F3000A307B10509F476C28F3FEFEF9E07AE0706
:101F4000BE0709F050C22F5F20936C078EE298E025
:101F50000E94282A892B09F442C08EE298E00E9450
:101F6000062A8534F1F224F4833409F49DCF37C076
:101F70008C3409F449C0823591F581E090E0F9C5CF
:101F80008534FAEB9F07FFEFAF07B10509F4ECC109
:101F900008F011C28D3532EA93073FEFA307B10570
:101FA00009F002C280916707882309F4E4C16091B7
:101FB0004A0A862F846080934A0A6C6085E49AE01E
:101FC0000E945431E091450AF091460A0484F58557
:101FD000E02D6FEF85E49AE019951092670780E095
:101FE00090E0C7C58D3DF2E29F07FFEFAF07B10557
:101FF00009F066C110926C07809368079093690797
:10200000A0936A07B0936B0782E090E0B2C580911D
:10201000D6089091D708825491098E9708F0D5CCB4
:1020200020E030E080E090E0DC01F901E852F74F79
:1020300040815181495051094930510588F0C5CC42
:102040008091D8089091D9080997099708F0B8CCE1
:1020500010922708109226088FEF9FEFDC011AC01C
:10206000F901E652F74F4081518147515109423100
:102070005105D8F4880F991FAA1FBB1F81602C5FE0
:102080003F4F2038310589F620E230E030932708B1
:10209000209326088093220890932308A093240875
:1020A000B093250883E090E0E4C040815181465020
:1020B00051094730510508F088CC880F991FAA1F95
:1020C000BB1FDDCF20813181235131092F303105F4
:1020D00040F4440F551F661F771F416002963496E7
:1020E0009ECC208131812A5031092930310508F0F8
:1020F000C5CC440F551F661F771FF0CF8091D608BF
:102100009091D708C697869708F00ACDEAEDF8E0D7
:1021100083E090E040E050E0BA01E0CC20813181E2
:102120002C5031092A30310508F0FACC440F551FE4
:10213000661F771FD1CC2D913C912C5031092B304B
:10214000310508F03ECD440F551F661F771F15CD92
:102150004CEB51E0BE016D5F7F4FCE0101960E94B6
:1021600031385C010330110569F44CEB51E0BE01DC
:102170006D5F7F4FCE0101960E943138A816B906D7
:1021800009F0FBCD8114910459F4AA94AB2809F00D
:10219000F4CDCC0CDD1CEE1CFF1C6894C0F80BC009
:1021A0008A94892809F0E9CDAB2809F0E6CDCC0C5A
:1021B000DD1CEE1CFF1C0F5F1F4FBACD10932708CC
:1021C00000932608C0922208D0922308E0922408A7
:1021D000F092250882E090E04CC012960D911C917F
:1021E0001397045011090530110508F044C101E0AE
:1021F0000E94C454F7CD980122503109D9012D9184
:102200003C91295031092830310508F0E2C1BC0168
:102210006F5F7F4FD8012D913C91275031092730B6
:10222000310508F0D4C3440F551F416002960C5F7E
:102230001F4F2091CF0830E02450310982179307B7
:10224000D4F2019795958795909327088093260857
:102250008A970CF4BEC1052E000C660B770B4093D9
:10226000220850932308609324087093250889E07E
:1022700090E090931F0880931E08D3CD853AEAE53D
:102280009E07EFEFAE07B10509F434C458F5873D5A
:1022900028E292072FEFA207B10509F4ADCEC8F4EA
:1022A0008D3FE2E09E07EFEFAE07B10509F4F4CDF4
:1022B0008D3DF2E29F07FFEFAF07B10509F49CCE19
:1022C000109268071092690710926A0710926B07C4
:1022D0003DCE873B28E492072FEFA207B10509F016
:1022E00013C4DACD8F38E0E79E07EFEFAE07B105F4
:1022F00049F48093680790936907A0936A07B093A5
:102300006B073BCE8039F0E79F07FFEFAF07B105C2
:1023100048F4873928E692072FEFA207B10509F0A4
:1023200003C46ACE8D38E2E79E07EFEFAE07B10532
:1023300009F4DEC38738F8E79F07FFEFAF07B10561
:10234000C1F2BECF85322AED92072FEFA207B10569
:1023500009F493C308F04EC08534EAEB9E07EFEF13
:10236000AE07B10509F08BC39091040281E0892783
:1023700080930402EBCDE091450AF091460A048473
:10238000F585E02D60E085E49AE0199560914A0AB0
:102390006B7F60934A0A686085E49AE00E9454313A
:1023A00081E0809367071BCE85359A4AAF4FB10510
:1023B00009F48AC385CF8D33F2EC9F07FFEFAF0797
:1023C000B10509F496CF85339A4CAF4FB10509F4A6
:1023D0006BC376CF873128EE92072FEFA207B105A6
:1023E00009F497CD6DCF8F30904FAF4FB10509F005
:1023F00067CF41C385312AEE92072FEFA207B105BF
:1024000009F4D0CD08F4A0C38F3020EF92072FEF4E
:10241000A207B10509F42FC38D30924FAF4FB1051C
:1024200009F04ECF82E090910402992339F0815057
:10243000809322050E94DC1A47D688CD90E0019750
:1024400023E2289F8001299F100D11240D5D1A4F52
:10245000D8011E961C921E921D9780E047D468EC0E
:1024600070E080E090E00E94952E81E090E0F8011D
:10247000968785876BCD8091CF08893370F18281F3
:102480009381895791098335910508F441C125C08D
:10249000D90112966D917C91139766517109613142
:1024A000710508F061C1D701C601880F991FAA1FE5
:1024B000BB1F6C017D016894C0F84E5F5F4F2C5FBD
:1024C0003F4F4B33510509F432C1D9016D917C91D5
:1024D0006A50710969307105D8F28091CF08823253
:1024E00031F4828193810A97099708F44DC1828162
:1024F00093818957910983359105D0F48091CF0854
:102500008132B0F084819581CA97899788F49F01C0
:102510002A5F3F4FC12CD12C760143E050E0D90116
:102520006D917C916A5071096930710508F44BC155
:10253000828193818C549109C59778F48091CF085A
:10254000843031F4848195818097479708F49AC14B
:102550008091CF08843408F07CC18091CF08863404
:1025600060F1828193810C970B9708F4D9C125C043
:10257000D90112966D917C9113976E517109673153
:10258000710508F005C2D701C601880F991FAA1F5F
:10259000BB1F6C017D016894C0F84E5F5F4F2C5FDC
:1025A0003F4F4534510509F4D6C1D9016D917C9155
:1025B0006C5071096B307105D8F28091CF08883565
:1025C00040F082819381855891098B35910508F4FB
:1025D000EFC18091CF088032E1F482819381069728
:1025E0000697B8F4848195810997099790F49F0123
:1025F0002A5F3F4FBF01625C7F4FC12CD12C760117
:10260000D9014D915C91465051094630510508F46D
:10261000EBC120912A0830912B083E832D83263070
:1026200031050CF41CC28F010A5F1F4F75ECC72ED9
:102630007DE9D72E7CE1E72E71E8F72EE3E02E2E20
:10264000312CD8016D917C91F8013497A080B18034
:1026500080E090E00E942F522B013C01B50180E008
:1026600090E00E942F524B015C012DEC3CEC4CE4BD
:102670005FE30E9418549B01AC01C301B2010E94A8
:10268000615187FD17C02DEC3CEC4CE45FE3C301C6
:10269000B2010E9418549B01AC01C501B4010E9413
:1026A0006151E82F880FFF0BEE27FF0FEE1FFF276A
:1026B000319602C0E0E0F0E0A701960163E971E025
:1026C00080E091E00E947B546F01FF0FEE08FF084D
:1026D000C626D726E826F926BFEF2B1A3B0A0E5F3F
:1026E0001F4FED81FE812E163F0609F0AACFC09242
:1026F0002208D0922308E0922408F092250880E274
:1027000090E090932708809326088FEF9FEFB1CD3C
:1027100084819581CA97899708F0DFCE9F012A5F4F
:102720003F4FC12CD12C760143E050E0CECE9F012B
:102730002A583F4FD9012D913C912A503109293017
:10274000310508F0CACE2CE130E030932708209301
:102750002608C0922208D0922308E0922408F09222
:1027600025088AE090E085CDD90112966D917C9183
:102770001397665071096730710508F0AECECC0C26
:10278000DD1CEE1CFF1C99CE2091CF08CF01820FDB
:10279000911D820F911DDC0112978D919C910A97DA
:1027A000099708F0A4CE10922708109226088FEF00
:1027B0009FEFDC018093220890932308A0932408C4
:1027C000B093250852C1D90112966D917C9113974F
:1027D000665171096131710588F112966D917C9194
:1027E0001397665071096730710508F0A1CECC0CC3
:1027F000DD1CEE1CFF1C4E5F5F4F2C5F3F4F4332D2
:10280000510509F08CCE9F012A5B3F4FD9012D91D4
:102810003C912A5031092930310508F089CE20E158
:1028200030E03093270820932608C0922208D092E7
:102830002308E0922408F092250817C1D701C601A9
:10284000880F991FAA1FBB1F6C017D016894C0F8F7
:10285000D2CF8481958189549109C39708F07DCEA8
:102860009F012A5F3F4FBF016A577F4FC12CD12C78
:102870007601D9014D915C9149505109493051057A
:10288000B8F06BCE868197810997099708F060CEE2
:1028900010922708109226088FEF9FEFDC0180939B
:1028A000220890932308A0932408B0932508E0C041
:1028B000D90112964D915C911397465151094131BE
:1028C0005105F0F4D701C601880F991FAA1FBB1F3D
:1028D0006C017D016894C0F82C5F3F4F26173707C5
:1028E00041F620E230E03093270820932608C0927A
:1028F0002208D0922308E0922408F0922508B8C05C
:10290000D90112964D915C91139746505109473069
:10291000510508F022CECC0CDD1CEE1CFF1CDCCFD8
:10292000848195810997099708F047CE8681978120
:102930008C974F9708F041CE8085918589974D9768
:1029400008F03BCE9F01265F3F4FC12CD12C760172
:1029500045E050E02ACE9F0126573F4FD9012D91E7
:102960003C912C5031092B30310508F026CE20E265
:1029700030E03093270820932608C0922208D09296
:102980002308E0922408F092250888E090E071CCBA
:10299000D90112966D917C91139769507109693034
:1029A000710508F00ACECC0CDD1CEE1CFF1CF5CD29
:1029B00084819581825491098E9708F00ACE8F0107
:1029C000045C1F4F8DE190E040E050E032CCD80134
:1029D0002D913C91285131092231310510F0CB0164
:1029E00030CC440F551F22CCD90112964D915C91E9
:1029F0001397495151094331510508F5D701C601D3
:102A0000880F991FAA1FBB1F6C017D016894C0F835
:102A10002C5F3F4F2617370709F0F2CD2EE030E04C
:102A20003093270820932608C0922208D0922308CA
:102A3000E0922408F09225088FE090E01ACCD901AA
:102A400012964D915C9113974950510949305105A7
:102A500008F0DFCDCC0CDD1CEE1CFF1CD9CF82E0D2
:102A60008093CB081092CF0871CA86E090E001CC29
:102A700087E090E0FECB85E0D6CC81E0D4CC8634F4
:102A8000FAEB9F07FFEFAF07B10580F08D33E2EC63
:102A90009E07EFEFAE07B10509F465C085339A4C88
:102AA000AF4FB10509F00CCC83E0BDCC8D3522EAE7
:102AB00092072FEFA207B10509F474CA85359A4A27
:102AC000AF4FB10509F0FCCB8AE0ADCC86E0ABCCD2
:102AD0008F38E0E79E07EFEFAE07B10509F443C07A
:102AE000D8F08D38E2E79E07EFEFAE07B10521F58C
:102AF00088E099CC84E097CC873B28E492072FEFBD
:102B0000A207B10509F4C6C9853B9A44AF4FB10588
:102B100009F0D6CB89E087CC873928E692072FEFDA
:102B2000A207B10509F466CA85399A46AF4FB105C7
:102B300009F0C6CB87E077CC8738F8E79F07FFEF2F
:102B4000AF07B10581F0BCCB8D31E2EE9E07EFEF10
:102B5000AE07B10559F08731F8EE9F07FFEFAF07D9
:102B6000B10521F0ADCB10926C07C3CB10926C076E
:102B7000D0C927960FB6F894DEBF0FBECDBFDF9148
:102B8000CF911F910F91FF90EF90DF90CF90BF906A
:102B9000AF909F908F907F906F905F904F903F90FD
:102BA0002F900895FC018189089580E090E00895B8
:102BB0000895CF93DF93EB018130910569F1CCF457
:102BC000892B09F08FC020E042E060E185E49AE0C3
:102BD0000E94333385E49AE00E942C330E9403372D
:102BE00040E150E060E270E083E797E00E944056E9
:102BF00079C082309105A9F0039709F073C061E0B4
:102C000080E00E94CA3683E797E00E94C53661E003
:102C100080E00E94CA3663C085E49AE00E942C33AB
:102C200061C060E080E00E94CA3683E797E00E94BE
:102C3000C53660E080E00E94CA366EEB72E0CE01DD
:102C40000E945256892B19F48EED92E01BC06BEC5A
:102C500072E0CE010E945256892B29F587ED92E051
:102C60000E94C53680914103893020F484E393E0CB
:102C70000E94C5368091220590E001960E944F3651
:102C80008DED92E00E94C53680914103893020F499
:102C900084E393E00E94C5368091410390E0019661
:102CA0000E944F361FC065EE72E0CE010E94525660
:102CB000892BA9F480914003813059F038F082309B
:102CC00059F0833079F484E193E00AC085EF92E013
:102CD00007C08EEF92E004C08AE093E001C0CE010D
:102CE0000E94C53681E0DF91CF9108958F929F9227
:102CF000AF92BF92DF92EF92FF920F931F93CF9309
:102D0000DF93CDB7DEB761970FB6F894DEBF0FBE85
:102D1000CDBFF82E809167078111E9C08E010F5F4A
:102D20001F4F81E1D8011D928A95E9F7E0900102D9
:102D3000D80120E033E28AE0D82E822F203108F03B
:102D40008FE0482F50E0349FF001359FF00D1124A3
:102D5000ED5DFA4F9081911124C08E15C9F09281DA
:102D6000911104C065857685672B91F0945092305F
:102D7000C0F4349FF001359FF00D1124ED5DFA4F42
:102D800045855685452B21F047855089452B49F4CB
:102D90006D2D0E948A54E92FF0E0EA5BFD4F90818F
:102DA00001C090E29D932F5F203139F6F11007C0EA
:102DB000B80185E997E00E945256892BA1F081E184
:102DC000E5E9F7E0DF011D928A95E9F740E150E07F
:102DD000B801CF010E94625660E080E00E94CA36CE
:102DE000C8010E94C53681E1F80111928A95E9F780
:102DF000F80101900020E9F72091220530E02F5FD3
:102E00003F4F3F932F9323E233E03F932F93CF0124
:102E100001979F938F930E947156E09101020F904A
:102E20000F900F900F900F900F90E03168F583E2B4
:102E3000E89FF0011124ED5DFA4FA585B6852AE0E3
:102E400030E00E94BE542FE730E040E050E00E94A6
:102E5000A55049015A01D8010D900020E9F7CD0194
:102E6000A90160E572E001970E946256F8010190A5
:102E70000020E9F7CF014AE050E0481959096BE218
:102E800073E001970E946256F11007C0B80184E810
:102E900097E00E945256892BA1F081E1E4E8F7E027
:102EA000DF011D928A95E9F740E150E0B801CF01BA
:102EB0000E94625661E080E00E94CA36C8010E940A
:102EC000C53680910402882381F061E085E00E948C
:102ED000CA3660914A0A862F826080934A0A6A60E5
:102EE00085E49AE00E94543102C00E940337619643
:102EF0000FB6F894DEBF0FBECDBFDF91CF911F910B
:102F00000F91FF90EF90DF90BF90AF909F908F90C8
:102F100008950F931F93CF93DF93D62FC42F122FB3
:102F2000813009F449C008F468C0823021F0833050
:102F300009F485C0C4C0809154070023F1F04423F4
:102F4000E1F0882321F080E990E00E94CF37809162
:102F50005907882339F0212F4C2F6D2F80E990E0FD
:102F60000E940B3780915E07882309F4A8C0212FA7
:102F70004C2F6D2F80E990E09CC0882339F0212FE1
:102F80004C2F6D2F80E890E00E94CF378091590739
:102F9000882339F0212F4C2F6D2F80E890E00E947C
:102FA0000B3780915E07882309F489C0212F4C2FAD
:102FB0006D2F80E890E07DC0002309F480C08091EF
:102FC0005407882321F080EB90E00E94CF37809156
:102FD0005907882339F0212F4C2F6D2F80EB90E07B
:102FE0000E940B3780915E07882309F468C0212F67
:102FF0004C2F6D2F80EB90E05CC0002309F45FC084
:1030000080915407882329F040E080EC90E00E94F2
:10301000CF3780915907882339F0212F40E06D2F59
:1030200080EC90E00E940B3780915E07882309F4C2
:1030300046C0212F40E06D2F80EC90E03AC0002385
:10304000F1F180E1489FE001112480915407882329
:1030500071F0BE01705EAB01440F452F441F550B4C
:1030600051956F77212F80EE90E00E94CF378091AD
:103070005907882371F0BE01705EAB01440F452FE4
:10308000441F550B51956F77212F80EE90E00E94E1
:103090000B3780915E07882391F0BE01705EAB0113
:1030A000440F452F441F550B51956F77212F80EE0C
:1030B00090E0DF91CF911F910F910C946D37DF91CC
:1030C000CF911F910F9108952F923F924F925F924F
:1030D0006F927F928F929F92AF92BF92CF92DF9228
:1030E000EF92FF920F931F93CF93DF93CDB7DEB78D
:1030F0002A970FB6F894DEBF0FBECDBF0CE315E0E4
:10310000D8018D919C910E94A455F80182819381F0
:103110000E94A455D80114968D919C911597009703
:1031200011F00E94A455F80186819781009711F053
:103130000E94A455D80118968D919C9119970E94D0
:10314000A4550D5D1F4FB7E00C361B07C9F68FEF76
:10315000809302028093010203E215E09AE2C92EF5
:1031600095E0D92E27E1A22EB12C36E3E32EF12CE7
:103170004CE2242E3324339454EF452E552453949B
:10318000ED828AEC982E9E0C9601255031093B83E6
:103190002A83D9018C91823009F456C118F488230E
:1031A00029F0C1C18450823008F0BDC1AC821A87B9
:1031B0000987812C912C19829601245031093F8373
:1031C0002E83AA81BB818C91811104C02981213079
:1031D00009F42AC18AE090E00E940F55FC018EE2BA
:1031E00092E09183808312821382148215828AE096
:1031F00090E09783868310861186A985BA855A96B2
:10320000FC93EE9359972981213039F0B501D8010B
:1032100059968D919C915A9704C0B701F801838DFE
:10322000948D0E940934A985BA8559968D919C91F7
:103230005A9722E330E0FC01378326830E94B6339D
:10324000A985BA855996ED91FC915A978085817030
:10325000F6019081992311F0F1E08F2790E0A98584
:10326000BA851E969C938E931D970E94CD2EF801D1
:10327000E80DF91D618B728B838B948B298189E119
:1032800090E0213011F10E940F553C0121E0D60160
:103290008C91811101C020E0C30128870E94D434A1
:1032A00086E392E0F301918380833C81348BC301F8
:1032B0004496968B858B81E0878B2885208FD8015B
:1032C0005E967C926E925D9729C00E940F553C01DC
:1032D00021E0F6018081811101C020E0C30128872F
:1032E0000E94D434E6E3F2E0D3011196FC93EE930E
:1032F0003D8154963C935497C301449656969C93B3
:103300008E93559781E057968C93579728855896BA
:103310002C93D80190967C926E925F97E985FA85FE
:10332000858D968DDC01ED91FC910190F081E02D71
:103330001995E985FA85A58DB68D22E330E01A96B8
:103340003C932E931997F8018081811148C0EE813A
:10335000FF81408150E04730510530F5FA01189661
:103360009C9118978827E455FF4F8F4F0C94B654C3
:103370009B7F01C0946018969C93A985BA855D9641
:10338000ED91FC915E9780858D7F0DC09B7F01C084
:10339000946018969C93A985BA855D96ED91FC91F1
:1033A0005E97808582608087A985BA855D96ED915C
:1033B000FC915E97348623868085846080875D9645
:1033C000ED91FC915E975686458680858260808768
:1033D0005D96ED91FC915E9780858E7F24C01C9652
:1033E0003C922E921B9718968C9118978460189691
:1033F0008C93A985BA855D96ED91FC915E97568672
:1034000045868085826080875D96ED91FC915E9710
:10341000508A47868085816080875D96ED91FC911A
:103420005E9780858860808729853A852E5F3F4F2B
:103430003A87298734E0830E911C2981213009F4D1
:1034400072C031E03983BDCE61E08A2D0E941F2E0B
:1034500061E08A2D0E947A2DD8018C91811147C09C
:1034600082E290E00E940F553C0180E094E0F3017D
:103470009383828380E090E0A0E8B0E48187928724
:10348000A387B487882483948586168A178A108E2A
:10349000118E128E60E08E2D0E941F2E60E08E2D08
:1034A0000E947A2DF301F182E08280868AE097ED16
:1034B000A3E2BCE384839583A683B783D6015B969E
:1034C0007C926E925A9780E090E0A0ECB0E4818705
:1034D0009287A387B48780E890E093838283858670
:1034E000809101028F3FF9F4909201021CC08AE1A1
:1034F00090E00E940F554C010E94D43480E492E089
:10350000D40111969C938E935496EC92549785E037
:1035100092E056969C938E93559783E057968C93A2
:10352000F801968E858E0D5D1F4FFFEFEF1AFF0A93
:1035300023E2C20ED11C32E0A30EB11C86E4E816D1
:10354000F10409F01DCE2A960FB6F894DEBF0FBE27
:10355000CDBFDF91CF911F910F91FF90EF90DF9042
:10356000CF90BF90AF909F908F907F906F905F9023
:103570004F903F902F900895EF92FF920F931F93DB
:10358000CF93DF931F92CDB7DEB77C01FC010081A2
:103590001181C80169830E948F506981681719F0F1
:1035A000C8010E949750C7010F90DF91CF911F91E2
:1035B0000F91FF90EF9008956F927F928F929F925C
:1035C000AF92BF92CF92DF92EF92FF920F931F9331
:1035D000CF93DF931F921F92CDB7DEB73EEAE32E63
:1035E00032E0F32E00E010E0F70161917F011A83D1
:1035F0000983CE010196C0DF0F5F1F4F0D3011050B
:1036000099F7C12CD12C2DE0E22EF12C8701005D21
:103610001F4F36016E187F084601FFEF8F1A9F0A71
:103620008E189F08560182E0A80EB11CAE18BF0884
:10363000B3016E0D7F1D6E5B7C4FC7010E94C738C2
:10364000B4016E0D7F1D6E5B7C4FC70101960E9419
:10365000C738B5016E0D7F1D6E5B7C4FC7010296AA
:103660000E94C738F3E0EF0EF11CE016F10601F7F7
:1036700080E3C80ED11C78010D3EE1E01E0731F653
:1036800093E2E92E95E0F92EB701C8010E94C738F0
:10369000B7016F5F7F4FC80101960E94C738B7011D
:1036A0006E5F7F4FC80102960E94C738B7016D5FF9
:1036B0007F4FC80103960E94C738B701695F7F4FEB
:1036C000C80104960E94C738B701685F7F4FC801E0
:1036D00005960E94C738B701675F7F4FC8010696FD
:1036E0000E94B535B701655F7F4FC80108960E94FB
:1036F000B535065F1F4FE3E2EE0EF11C0D38F2E028
:103700001F0711F683E5E82E87E0F82EB701C80100
:103710000E94C738B7016F5F7F4FC80101960E94B2
:10372000C738B7016E5F7F4FC80102960E94C73845
:10373000B7016D5F7F4FC80103960E94C738B7017C
:103740006C5F7F4FC80104960E94C7380B5F1F4F04
:1037500085E0E80EF11C013AE2E01E07B9F662E2EC
:1037600075E081EA92E00E94C73861E473E082EA82
:1037700092E00E94C73860E473E083EA92E00E941E
:10378000C73860E072E084EA92E00E94C7380F9088
:103790000F90DF91CF911F910F91FF90EF90DF90ED
:1037A000CF90BF90AF909F908F907F906F90089533
:1037B0002F923F924F925F926F927F928F929F9241
:1037C000AF92BF92CF92DF92EF92FF920F931F932F
:1037D000CF93DF9300D000D0CDB7DEB7082E000C1A
:1037E000990BAA0BBB0BFC017497ED31F10508F0A6
:1037F00078C38827ED54FF4F8F4F0C94B65466233F
:1038000019F0809122050AC080916E078150809343
:10381000220574C3662399F08091410390E00196DC
:10382000092E000CAA0BBB0B80936E0790936F07B9
:10383000A0937007B09371070EE617E062C3809102
:103840006E0781508093410359C3209122058091D6
:10385000410390E0FC01EE0FFF1FE80FF91F662304
:1038600041F080E3289FE00DF11D1124EE5BFC4F39
:103870005DC090E3299FE00DF11D1124EE5BFC4F2C
:103880006EC2209122058091410390E0FC01EE0F71
:10389000FF1FE80FF91F662341F080E3289FE00D2A
:1038A000F11D1124EE5BFC4F2EC090E3299FE00D2B
:1038B000F11D1124EE5BFC4F3DC220912205809149
:1038C000410390E0FC01EE0FFF1FE80FF91F662394
:1038D00041F080E3289FE00DF11D1124EE5BFC4FC9
:1038E00038C090E3299FE00DF11D1124EE5BFC4FE1
:1038F00038C0E0914103662341F023E2E29FF001EA
:103900001124ED5DFA4F80819BC283E2E89FF001B4
:103910001124ED5DFA4F0EC2E0914103662341F0A0
:1039200093E2E99FF0011124ED5DFA4F818188C295
:1039300023E2E29FF0011124ED5DFA4F10C2E09105
:103940004103662341F083E2E89FF0011124ED5D1D
:10395000FA4F828175C293E2E99FF0011124ED5D77
:10396000FA4F80916E078283C9C2E09141036623BA
:1039700039F023E2E29FF0011124ED5DFA4F30C2ED
:1039800083E2E89FF0011124ED5DFA4F31C2E0912E
:103990004103662339F093E2E99FF0011124ED5DC4
:1039A000FA4F34C223E2E29FF0011124ED5DFA4F99
:1039B00035C2E0914103662341F083E2E89FF001C4
:1039C0001124ED5DFA4F85813BC293E2E99FF0013E
:1039D0001124ED5DFA4F80916E0785838FC2E091CF
:1039E0004103662341F023E2E29FF0011124ED5DE3
:1039F000FA4F868125C283E2E89FF0011124ED5D34
:103A0000FA4F80916E07868379C2E0914103662365
:103A100041F093E2E99FF0011124ED5DFA4F8781B7
:103A20000FC223E2E29FF0011124ED5DFA4F809175
:103A30006E07878363C261115BC2E091410383E239
:103A4000E89FF0011124ED5DFA4F8281823009F088
:103A500052C20E94CD2E6B017C0185E49AE00E9447
:103A60002C3360E080E00E94CA3600E110E085EA75
:103A70000E94443601501109D1F7E091410393E2CD
:103A8000E99FF0011124ED5DFA4F8FEF93E09287EB
:103A900081871486138643E2342E50E1252E0E943E
:103AA000CD2EDC01CB018C199D09AE09BF098034F4
:103AB0009F41A105B10508F01EC2809141038A5CB7
:103AC0000E94762E2091410330E0329EF001339E19
:103AD000F00D1124ED5DFA4F41855285BC016D5EFC
:103AE0007F4F641775071CF4AC014C5E5F4F329E2C
:103AF000F001339EF00D1124ED5DFA4F528741879E
:103B000043855485BC0163517109461757071CF45E
:103B1000AC0144515109329EF001339EF00D112445
:103B2000ED5DFA4F548743870E94CD2EDC01CB0117
:103B30008C199D09AE09BF09BC01CD0134E0660FA7
:103B4000771F881F991F3A95D1F720E43FE140E0A5
:103B500050E00E94A55060E0822D821B0E94CA3670
:103B600084E393E00E94C53661E080E00E94CA369B
:103B7000E09141033E9EF0011124ED5DFA4F8185F5
:103B800092850E944F36E1E0F0E0FE83ED830091E4
:103B90004103309E800111240D5D1A4FF8016185AB
:103BA00072856F5F7F4F072E000C880B990B0E9468
:103BB00031520E949A530E946C529B01AC01F80151
:103BC00003851485B8016F5F7F4F072E000C880BAB
:103BD000990B29833A834B835C830E9431520E9464
:103BE0009A530E946C522B013C01ED81FE81BF0172
:103BF000FF0F880B990B0E9431524B015C01298108
:103C00003A814B815C8160E070E080E891E40E9441
:103C1000FC50A30192010E94FC5020E030E040E8FB
:103C20005FE30E94FC509B01AC01C501B4010E94FE
:103C3000615187FF0AC084E393E00E94C5368D81FD
:103C40009E8101969E838D83A2CFC8010E944F362C
:103C500026CFE0914103662369F023E2E29FF00161
:103C60001124ED5DFA4F8281823009F041C18185D6
:103C70009285D6CD83E2E89FF0011124ED5DFA4FE5
:103C800080916E0790916F079287818737C1E0918D
:103C90004103662369F093E2E99FF0011124ED5D91
:103CA000FA4F8281823009F023C183859485B8CD93
:103CB00023E2E29FF0011124ED5DFA4F80916E073F
:103CC00090916F079487838719C1E0914103662320
:103CD00061F083E2E89FF0011124ED5DFA4F8281EB
:103CE000823009F005C18085ABC093E2E99FF00105
:103CF0001124ED5DFA4F80916E078087FFC0662327
:103D000019F0809140039CC080916E07809340031E
:103D1000F5C0E0914003662339F025E0E29FF00111
:103D20001124ED5AF84FEFCD85E0E89FF001112402
:103D3000ED5AF84F80916E078083E0C0E091400318
:103D4000662339F095E0E99FF0011124ED5AF84F10
:103D5000EDCD25E0E29FF0011124ED5AF84F80915E
:103D60006E078183CBC0E0914003662339F085E084
:103D7000E89FF0011124ED5AF84FEBCD95E0E99F53
:103D8000F0011124ED5AF84F80916E0782838091E3
:103D90005507882321F083E08093DD0D02C0109247
:103DA000DD0D80915A07882321F083E08093850CF4
:103DB00002C01092850C80915F07882321F083E078
:103DC00080932D0B9BC010922D0B98C0E091400367
:103DD000662341F025E0E29FF0011124ED5AF84FEF
:103DE00083812EC085E0E89FF0011124ED5AF84F41
:103DF00080916E07838382C0E0914003662341F087
:103E000095E0E99FF0011124ED5AF84F848118C024
:103E100025E0E29FF0011124ED5AF84F80916E07E2
:103E200084836CC0662319F080916D0709C080916E
:103E30006E0780936D0762C0662331F080910002A7
:103E400090E0A0E0B0E0F0CC80916E07809300029B
:103E5000882349F0813009F051C020E04BE353E062
:103E600064E070E005C020E046E353E065E070E008
:103E70008DE19BE00E94453541C0611139C085E468
:103E80009AE00E942C33C12CD12C760100E010E086
:103E900060E0C8010E949750D701C6012CE0B5959B
:103EA000A795979587952A95D1F760E00E94CA3625
:103EB00085EA0E9444360F5F1F4F8FE0C80ED11C69
:103EC000E11CF11C011590E1190711F799E088E157
:103ED0000FB6F894A895809360000FBE9093600091
:103EE000FFCF00E010E061110CC066DBEDD809C027
:103EF00000E010E006C000E010E0F7CF0EE617E0AB
:103F0000F4CFC80126960FB6F894DEBF0FBECDBF22
:103F1000DF91CF911F910F91FF90EF90DF90CF90A5
:103F2000BF90AF909F908F907F906F905F904F90D9
:103F30003F902F900895DC01ED91FC910190F0816C
:103F4000E02D1994DC01ED91FC910190F081E02DC0
:103F50001994FC01892B79F08491811101C0089595
:103F600080E094919C3719F48F5F3196FACF9111CC
:103F7000FCCF8F5F089580E00895CF93DF93EC012D
:103F80006F5F7F4F0E945B5662E672E0CE01DF9169
:103F9000CF910C944756CF92DF92EF92FF920F93FE
:103FA0001F93CF93DF93CDB7DEB78C01CDB6DEB6CE
:103FB000DC015296ED91FC91539761E08C9119953B
:103FC0007C019093B4098093B309009751F50F5F7A
:103FD0001F4FF80101900020E9F7CF01801B910BE2
:103FE00002962DB73EB7281B390B0FB6F8943EBF8B
:103FF0000FBE2DBF8DB79EB701967C0162E672E0C1
:104000000E945B56B801C7010E94475660E672E005
:10401000C7010E944756E0919F09F091A009B7019E
:1040200028C0FC0101900020E9F7CF018E199F09FB
:104030000296ADB7BEB7A81BB90B0FB6F894BEBFBA
:104040000FBEADBF0DB71EB70F5F1F4F62E672E028
:10405000C8010E945B56B701C8010E94475660E63E
:1040600072E0C8010E944756E0919F09F091A009B3
:10407000B80183E090E019950FB6F894DEBE0FBE4C
:10408000CDBE80E00FB6F894DEBE0FBECDBEDF9190
:10409000CF911F910F91FF90EF90DF90CF900895F7
:1040A0002F923F924F925F926F927F928F929F9248
:1040B000AF92BF92CF92DF92EF920F931F93CF9365
:1040C000DF931F921F92CDB7DEB76B01142F4DB750
:1040D0005EB75A8349838130910509F452C01CF4BC
:1040E000892B21F107C28230910509F4BDC00397E5
:1040F00009F000C2E091B309F091B4098091B509CB
:104100009091B609A091B709B091B80980839183C5
:10411000A283B3838091B9098483DB015296ED9128
:10412000FC91539760E08C911995E6C1DB015296A2
:10413000ED91FC91539761E08C9119959093B4099E
:104140008093B309009709F4D7C1FC0140815181E4
:10415000628173814093B5095093B6096093B709A2
:104160007093B80984818E3E0CF48EEE8093B90969
:104170008091B90983310CF4E8C082E18093B909D8
:10418000E4C0DB015F968C91829FA001839F500D5C
:1041900011248091B5099091B609A091B709B09109
:1041A000B809BC01CD01640F751F811D911D0091DF
:1041B000B909F601B68C6034F2E47F07FFE08F079F
:1041C000910514F50B1574F0D6015A964D905D903B
:1041D0006D907C905D970B110EC06415750586057A
:1041E00097054CF46093B5097093B6098093B709AD
:1041F0009093B809AAC04092B5095092B60960924E
:10420000B7097092B809A1C028EE33E040E050E051
:104210000E94A5502093B5093093B6094093B70981
:104220005093B8090D5F0093B909B0166CF00B11EB
:104230008CC0F601828D938DA48DB58D8217930766
:10424000A407B5070CF081C0F601828D938DA48D73
:10425000B58D8093B5099093B609A093B709B09333
:10426000B809B092B90971C0DB015F964C91429FC9
:10427000C001439F900D11244091B5095091B6099A
:104280006091B7097091B8099A01AB01281B390BED
:10429000410951090091B909283EB3E03B074105A6
:1042A00051050CF1F601618D60175CF085899689E6
:1042B000A789B08D06130EC082179307A407B50710
:1042C0004CF42093B5093093B6094093B709509345
:1042D000B8093BC08093B5099093B609A093B7097C
:1042E000B093B80932C0A8EEB3E00E94C150609309
:1042F000B5097093B6098093B7099093B809EDEFAB
:10430000E00FE093B909D60159962C915997E2171D
:104310006CF0E2131AC055968D909D90AD90BC90B4
:104320005897681579058A059B057CF4F60145893F
:1043300056896789708D4093B5095093B60960938B
:10434000B7097093B8092093B9092DB63EB6D601C6
:104350001196FD0101900020E9F731975F01AA1A3B
:10436000BB0AF60180A191A10E948650D601549605
:104370002C9130E02C5F3F4FA20EB31E8A0D9B1D87
:10438000EDB7FEB7E81BF90B0FB6F894FEBF0FBEF2
:10439000EDBF2DB73EB72F5F3F4F5901B601C901A1
:1043A000ECDDD5010D900020E9F74D016091B509D4
:1043B0007091B6098091B7099091B80928EE422E04
:1043C00023E0522E612C712CA30192010E94A55072
:1043D000F60164896350E12C0AE0C40101970E9450
:1043E0002134F50101900020E9F71082F5010190D8
:1043F0000020E9F731978EE28083F50101900020DB
:10440000E9F731974F018A189B086091B5097091BF
:10441000B6098091B7099091B809A30192010E9451
:10442000A5509B01AC0197FF07C050954095309572
:1044300021953F4F4F4F5F4FEE24E3940AE064E035
:10444000C501880D991D0E94213460E672E0C50106
:104450000E944756F50101900020E9F71082D5012E
:104460000D900020E9F7E1E1F2E001900020E9F78A
:104470003197E151F2401197F695E7958091B9098E
:1044800063E00E949654EF5EFD4FE80FF11D87FD3B
:10449000FA9580818C93D60190966D917C9191973D
:1044A000C5010E947B50E0919F09F091A009B501E0
:1044B00083E090E019951123C1F08091B5099091A6
:1044C000B609A091B709B091B809E091B309F0918C
:1044D000B40980839183A283B383D6015296ED9170
:1044E000FC91539760E08C9119950FB6F8943EBEFD
:1044F0000FBE2DBE80E001C081E0E981FA810FB6D8
:10450000F894FEBF0FBEEDBF0F900F90DF91CF91DB
:104510001F910F91EF90DF90CF90BF90AF909F9041
:104520008F907F906F905F904F903F902F90089565
:104530002F923F924F925F926F927F928F929F92B3
:10454000AF92BF92CF92DF92EF920F931F93CF93D0
:10455000DF931F921F92CDB7DEB76B01142F4DB7BB
:104560005EB75A83498381309105C9F11CF4892BC8
:1045700009F125C18230910509F450C0039709F073
:104580001EC18091B5099091B609A091B709B0916B
:10459000B809E091B309F091B40980839183A283B3
:1045A000B383DB015296ED91FC91539760E08C91BF
:1045B000199507C1DB015296ED91FC91539761E08B
:1045C0008C9119959093B4098093B309009709F4DD
:1045D000F8C0FC0180819181A281B3813DC0DB01E3
:1045E0005F968C91829FA001839F500D1124809132
:1045F000B5099091B609A091B709B091B809840F97
:10460000951FA11DB11DFB01428D538D648D758DCC
:1046100084179507A607B70744F51EC0DB015F9610
:104620008C91829FA001839F500D11248091B50928
:104630009091B609A091B709B091B809841B950B68
:10464000A109B109FB01458956896789708D481711
:1046500059076A077B074CF48093B5099093B60914
:10466000A093B709B093B80908C04093B509509317
:10467000B6096093B7097093B8092DB63EB6D60156
:104680001196FD0101900020E9F73197EA1BFB0B21
:10469000D60154968C9190E00396E80FF91F2DB740
:1046A0003EB72E1B3F0B0FB6F8943EBF0FBE2DBF7B
:1046B0004DB75EB74F5F5F4F5A01B601CA015DDC6F
:1046C000D5010D900020E9F74D016091B509709179
:1046D000B6098091B7099091B80924E6422E512C71
:1046E000612C712CA30192010E94A550F6016489EE
:1046F0006250E12C0AE0C40101970E942134F501C7
:1047000001900020E9F71082F50101900020E9F7FF
:1047100031978EE28083F50101900020E9F731970F
:104720004F018A189B086091B5097091B609809174
:10473000B7099091B809A30192010E94A5509B016D
:10474000AC0197FF07C050954095309521953F4F9C
:104750004F4F5F4FEE24E3940AE063E0C501880DFC
:10476000991D0E94213460E672E0C5010E944756FF
:10477000E0919F09F091A009B50183E090E01995BF
:104780001123C1F08091B5099091B609A091B709A4
:10479000B091B809E091B309F091B4098083918395
:1047A000A283B383D6015296ED91FC91539760E0BA
:1047B0008C9119950FB6F8943EBE0FBE2DBE80E0C9
:1047C00001C081E029813A810FB6F8943EBF0FBE47
:1047D0002DBF0F900F90DF91CF911F910F91EF9010
:1047E000DF90CF90BF90AF909F908F907F906F9011
:1047F0005F904F903F902F9008956F927F928F928D
:104800009F92AF92BF92CF92DF92EF920F931F933E
:10481000CF93DF93CDB7DEB76B01142FADB6BEB625
:1048200081309105C9F11CF4892B09F1D9C082307E
:10483000910509F448C0039709F0D2C08091B509E9
:104840009091B609A091B709B091B809E091B30968
:10485000F091B40980839183A283B383DB015296E4
:10486000ED91FC91539760E08C911995BBC0DB01F1
:104870005296ED91FC91539761E08C91199590932C
:10488000B4098093B309009709F4ACC0FC0180819E
:104890009181A281B3812DC08091B5099091B60913
:1048A000A091B709B091B809820F931FA11DB11D46
:1048B000FB01428D538D648D758D84179507A60776
:1048C000B70704F516C08091B5099091B609A0917B
:1048D000B709B091B809821B930BA109B109FB017B
:1048E000458956896789708D481759076A077B077C
:1048F0004CF48093B5099093B609A093B709B0938F
:10490000B80908C04093B5095093B6096093B70938
:104910007093B8098DB69EB6D6011196FD0101902F
:104920000020E9F73197EA1BFB0BD60154968C91D6
:1049300090E00396E80FF91F8DB79EB78E1B9F0B73
:104940000FB6F8949EBF0FBE8DBFADB7BEB7119620
:104950003D01B601CD0111DBF30101900020E9F723
:10496000CF012091B5093091B6094091B709509116
:10497000B809D60154966C9154976F5FE12C5F96FD
:104980000C9101970E94213460E672E0C3010E94FD
:104990004756E0919F09F091A009B30183E090E0B0
:1049A00019951123C1F08091B5099091B609A09194
:1049B000B709B091B809E091B309F091B4098083C7
:1049C0009183A283B383D6015296ED91FC915397C4
:1049D00060E08C9119950FB6F8949EBE0FBE8DBE07
:1049E00080E001C081E00FB6F894BEBE0FBEADBE40
:1049F000DF91CF911F910F91EF90DF90CF90BF90FB
:104A0000AF909F908F907F906F9008959F92AF92FC
:104A1000BF92CF92DF92EF92FF920F931F93CF93AB
:104A2000DF93CDB7DEB78B01942EEDB6FEB68330A3
:104A3000910534F481309105A4F5892BE9F0A9C0E2
:104A4000039709F0A6C08091B5099091B609A0918D
:104A5000B709B091B809E091B309F091B409808326
:104A60009183A283B383DB015296ED91FC9153971E
:104A700060E08C9119958FC0DB015296ED91FC910D
:104A8000539761E08C9119959093B4098093B30981
:104A9000009709F480C0FC0180819181A281B381DB
:104AA00013C081E090E0A0E0B0E04091B5095091E2
:104AB000B6096091B7097091B809452B462B472B71
:104AC00019F080E090E0DC018093B5099093B6097D
:104AD000A093B709B093B809CDB6DEB6F801319608
:104AE000DF010D900020E9F7CD018E1B9F0B03968F
:104AF000EDB7FEB7E81BF90B0FB6F894FEBF0FBE7B
:104B0000EDBF2DB73EB72F5F3F4F5901B801C90127
:104B100034DA8091B5099091B609A091B709B091A6
:104B2000B809892B8A2B8B2B19F46CE572E002C033
:104B30006EE572E0C5010E94475660E672E0C5016D
:104B40000E944756E0919F09F091A009B50183E0CA
:104B500090E019959920C1F08091B5099091B6091E
:104B6000A091B709B091B809E091B309F091B409E7
:104B700080839183A283B383D8015296ED91FC91F7
:104B8000539760E08C9119950FB6F894DEBE0FBE76
:104B9000CDBE80E001C081E00FB6F894FEBE0FBE2E
:104BA000EDBEDF91CF911F910F91FF90EF90DF90BD
:104BB000CF90BF90AF909F9008952F923F924F92C9
:104BC0005F926F927F928F929F92AF92BF92CF929D
:104BD000DF92EF92FF920F931F93CF93DF93CDB7A6
:104BE000DEB78B01542E2DB63EB68130910509F407
:104BF0008DC01CF4892B09F12BC18230910509F479
:104C000055C0039709F024C18091B5099091B60968
:104C1000A091B709B091B809E091B309F091B40936
:104C200080839183A283B383DB015296ED91FC9143
:104C3000539760E08C91199598C0DB0190968D9107
:104C40009C91919786D9F82E882309F48EC0D801BB
:104C50005296ED91FC91539761E08C911995909348
:104C6000B4098093B309009709F47FC0FC01408127
:104C70005181628173814093B5095093B609609365
:104C8000B7097093B8098F2D90E0A0E0B0E0481705
:104C900059076A077B070CF46AC01092B509109295
:104CA000B6091092B7091092B80961C0DB0190965D
:104CB0008D919C9191974DD94091B5095091B6092C
:104CC0006091B7097091B8091416150616061706F3
:104CD0002CF4415051096109710933C0452B462B11
:104CE000472B09F0B5C09091B20992FFB1C090E096
:104CF0000197092E000CAA0BBB0B8093B50990936A
:104D0000B609A093B709B093B80931C0FB0180A1DF
:104D100091A11FD94091B5095091B6096091B70989
:104D20007091B80990E00197092E000CAA0BBB0BFB
:104D3000481759076A077B076CF44F5F5F4F6F4F47
:104D40007F4F4093B5095093B6096093B7097093AC
:104D5000B8090DC0481759076A077B0709F078C0E2
:104D60008091B20982FD99CF73C081E0AAC08DB64F
:104D70009EB6F801848990E06C01FFEFCF1ADF0A3C
:104D80002DB73EB72C193D090FB6F8943EBF0FBEA4
:104D90002DBFADB7BEB711963D01D8011196FD01EB
:104DA00001900020E9F73197EA1BFB0B0496E80F0E
:104DB000F91F2E1B3F0B0FB6F8943EBF0FBE2DBF41
:104DC0008DB79EB701965C01B801D7D84090B50960
:104DD000D8019096ED90FC909197DD24A60160E0BB
:104DE00070E0C3010E944056E114F10409F03DC097
:104DF000B301C5010E94475660E672E0C5010E94FA
:104E00004756E0919F09F091A009B50183E090E039
:104E100019955520C1F08091B5099091B609A091DE
:104E2000B709B091B809E091B309F091B409808352
:104E30009183A283B383D8015296ED91FC9153974D
:104E400060E08C9119950FB6F8949EBE0FBE8DBE92
:104E500080E037C0EC3741F0BFEFEB1AFB0AF701F7
:104E60003197E491E111F6CF4A944110F5CF462DE8
:104E7000D301E1E0CE1AD108CD012A2F241B30E066
:104E80002C153D057CF4F70124912C3711F02C935F
:104E900001C01C921196FFEFEF1AFF0AFC0120815E
:104EA0002111EACFDC0180E2F30101900020E9F753
:104EB0003197E619F709EC15FD0508F099CF8D93A8
:104EC000F3CF0FB6F8943EBE0FBE2DBEDF91CF914B
:104ED0001F910F91FF90EF90DF90CF90BF90AF9018
:104EE0009F908F907F906F905F904F903F902F900A
:104EF0000895CF93DF93D82FC0E09091A609C917EA
:104F0000A8F46091A7097091A80982E2C89F600D7A
:104F1000711D112442E250E08FE09AE00E9472502D
:104F200080910F0A8D1729F0CF5FE7CF80E090E0E6
:104F300002C08FE09AE0DF91CF910895AF92BF92C7
:104F4000CF92DF92EF92FF920F931F93CF93DF9355
:104F5000CDB7DEB767970FB6F894DEBF0FBECDBFF3
:104F6000EDB6FEB6882399F1E0919F09F091A00972
:104F700060E070E081E090E019956091BA0915E178
:104F8000169FB00111246454764FE0919F09F0916F
:104F9000A00982E090E01995E091BA091E9FF00106
:104FA0001124E356F64F82A9811102C080A982AB79
:104FB0008091B20981608093B209EFD66093AA090B
:104FC0007093AB098093AC099093AD0978C181E0EF
:104FD00090E09F8B8E8BE0919D09F0919E09CE0110
:104FE000469619958C01892B49F0D7D66093AA096A
:104FF0007093AB098093AC099093AD090230110511
:1050000089F03CF40130110509F097C110E005E189
:1050100043C00330110509F44FC00430110509F4F1
:105020003EC18BC110E005E18091BA0990E0089F74
:10503000F001099FF00D1124E356F64F22A930A983
:10504000321714F4215005C02091B20922FF03C089
:1050500021A922AB11E0089FF001099FF00D112456
:10506000E356F64F82A90E94A238892BE9F225C1A6
:105070002091B20922FF03C020A922AB11E0089FB2
:10508000F001099FF00D1124E356F64F82A90E940A
:10509000A238892B09F011C18091BA0990E0089FCC
:1050A000F001099FF00D1124E356F64F22A931A912
:1050B0002317F4F62F5FE1CFE091BA0915E11E9FA7
:1050C000F0011124E356F64F82A90E94A238FC0198
:1050D00080899189009729F097FD2FC10397ECF102
:1050E0002CC19091BA09933008F027C19F5F90932B
:1050F000BA0902890F3F11F410E019C010E0809145
:10510000A3091817C8F76091A1097091A20925E1B8
:10511000129F600D711D112445E150E0CE010196F2
:105120000E9472508981801711F01F5FE8CF609153
:10513000A1097091A20935E11302600D711D1124BE
:105140008091BA09E5E18E9FC001112445E150E04C
:105150008554964F0E9472502EC08289CADE892BD8
:1051600009F4EBC0E0919F09F091A00960E070E0C4
:1051700081E090E01995E091BA091E9FF001112499
:10518000E356F64F82A90E94A2386C01BC016F5F02
:105190007F4FE0919F09F091A00982E090E019957E
:1051A000F6018289A6DE8C01009741F48091B20954
:1051B0008D7F8093B20981E0C1DEBFC0FC0182898E
:1051C0009389892B99F38091B20982608093B20907
:1051D000E4D56093AA097093AB098093AC099093CE
:1051E000AD09F801808991898230910551F12CF443
:1051F000009779F00197C9F0A0C08430910509F4B7
:105200003CC06CF1059709F098C0C8010E94CB1F03
:1052100042C041E0F60180899189029709F040E09F
:10522000B80180E090E0C9DC36C041E0F601808939
:105230009189029709F040E0B80180E090E0E6DB58
:105240002AC041E0F60180899189029709F040E087
:1052500021E030E0B80180E090E0CFDA1CC041E00E
:10526000F60180899189029709F040E021E030E061
:10527000B80180E090E05CD90EC041E0F601808981
:105280009189029709F040E021E030E0B80180E028
:1052900090E00E945020882309F44FC087CF80916E
:1052A000BA09811106C08091B2098E7F8093B2093C
:1052B00044C081508093BA097ECF1123F1F1E0916F
:1052C000BA0925E1E29FF0011124E356F64F82A9C5
:1052D0000E94A238009789F1CDB6DEB68C010F5F2F
:1052E0001F4FF80101900020E9F7CF01801B910BBF
:1052F0000196EDB7FEB7E81BF90B0FB6F894FEBFA9
:105300000FBEEDBF2DB73EB72F5F3F4F59016AE586
:1053100072E0C9010E945B56B801C5010E94475660
:10532000E0919F09F091A009B50183E090E0199503
:105330000FB6F894DEBE0FBECDBE0FB6F894FEBE1B
:105340000FBEEDBE67960FB6F894DEBF0FBECDBFA1
:10535000DF91CF911F910F91FF90EF90DF90CF9051
:10536000BF90AF900895CF92DF92EF92FF920F938C
:105370001F93CF93DF936C017A018B01C0E0D0E0E3
:10538000CE15DF0589F0D8016D918D01D601ED9123
:10539000FC910190F081E02DC6011995892B11F443
:1053A0007E0102C02196ECCFC701DF91CF911F9102
:1053B0000F91FF90EF90DF90CF900895FC01A089AE
:1053C000B1898C91A689B78982FD0FC09C91818D8E
:1053D0008F5F8F73228D821749F0218DDF01A20F1D
:1053E000B11D5D969C93818F08958C910895FC0169
:1053F000538D448D252F30E0842F90E0821B930B3A
:10540000541710F0CF96089501970895FC01918DDF
:10541000828D981761F0828DDF01A80FB11D5D9616
:105420008C91928D9F5F9F73928F90E008958FEF84
:105430009FEF0895FC01918D828D981731F0828D38
:10544000E80FF11D858D90E008958FEF9FEF08958F
:10545000FC01918D228D892F90E0805C9F4F821BF3
:1054600091098F73992708958CE59AE0F1DF21E087
:10547000892B09F420E0822F089584EB9BE0E8DF7C
:1054800021E0892B09F420E0822F08958EE298E034
:10549000DFDF21E0892B09F420E0822F08958CE0E2
:1054A0009DE0D6DF21E0892B09F420E0822F0895CA
:1054B000FC01848DDF01A80FB11DA35ABF4F2C91B1
:1054C000848D90E001968F739927848FA689B78980
:1054D0002C93A089B1898C9180648C93938D848D59
:1054E000981306C00288F389E02D80818F7D808328
:1054F0000895EF92FF920F931F93CF93DF93EC01E8
:1055000081E0888F9B8D8C8D981305C0E889F9897F
:10551000808185FD23C0F62E0B8D10E00F5F1F4F9D
:105520000F731127E02E8C8DE8120BC00FB607FC0D
:10553000FACFE889F989808185FFF5CFCE01B8DF00
:10554000F2CF8B8DFE01E80FF11DE35AFF4FF08281
:105550000B8FEA89FB898081806207C0EE89FF8911
:105560006083E889F98980818064808381E090E0AC
:10557000DF91CF911F910F91FF90EF900895CF93FE
:10558000DF93EC01888D8823C1F0EA89FB89808153
:1055900085FD05C0A889B9898C9186FD0EC00FB61E
:1055A00007FCF5CF808185FFF2CFA889B9898C915E
:1055B00085FFEDCFCE017CDFE8CFDF91CF9108955D
:1055C00080E090E0892B19F06ADF811116C080E03D
:1055D00090E0892B19F05ADF811112C080E090E031
:1055E000892B19F04ADF81110EC080E090E0892BF1
:1055F00079F03ADF81110AC008950E940000E7CFD8
:105600000E940000EBCF0E940000EFCF0C9400003E
:10561000089590E0FC013197E231F10508F04EC0A9
:105620008827E053FF4F8F4F0C94B6548091800031
:105630008F7703C0809180008F7D809380000895D4
:1056400080918000877FF9CF84B58F7702C084B5C1
:105650008F7D84BD08958091B0008F7703C08091C5
:10566000B0008F7D8093B0000895809190008F7777
:1056700007C0809190008F7D03C080919000877F4C
:105680008093900008958091A0008F7707C080914B
:10569000A0008F7D03C08091A000877F8093A00031
:1056A0000895809120018F7707C0809120018F7D20
:1056B00003C080912001877F8093200108953FB728
:1056C000F89480911A0890911B08A0911C08B09141
:1056D0001D0826B5A89B05C02F3F19F00196A11DF6
:1056E000B11D3FBFBA2FA92F982F8827820F911D78
:1056F000A11DB11DBC01CD0142E0660F771F881FBF
:10570000991F4A95D1F7089585ED8093BC0080914B
:10571000BC0084FDFCCF1092EF0708954091C907AB
:10572000262F30E0240F311D21323105DCF4209189
:10573000EF072430C9F4FC0180E090E0861758F4AC
:105740003091C9072191DC01A955B84FA30FB11DB4
:105750002C930196F3CF8091C907680F6093C90716
:1057600080E0089581E0089582E0089508958FEF24
:105770009FEF08958FEF9FEF08958091A60790E027
:105780009195819591090895CF93DF931F921F9270
:10579000CDB7DEB7CB01642F49835A83BFDF498180
:1057A000842F5A81952F0F900F90DF91CF910895FC
:1057B000CF93DF931F92CDB7DEB7698361E0CE014F
:1057C0000196ACDF81E090E00F90DF91CF910895DA
:1057D000DC01ED91FC910684F785E02D41E01995FF
:1057E00081E090E008950E943C566115710579F0C2
:1057F000FB0101900020E9F73197AF01461B570BE1
:10580000DC01ED91FC910280F381E02D199480E0A0
:1058100090E008951F920F920FB60F9211240BB6CD
:105820000F922F933F934F935F936F937F938F9339
:105830009F93AF93BF93EF93FF938CE59AE038DE8D
:10584000FF91EF91BF91AF919F918F917F916F9158
:105850005F914F913F912F910F900BBE0F900FBE14
:105860000F901F9018951F920F920FB60F92112450
:105870000BB60F922F933F934F935F936F937F934A
:105880008F939F93AF93BF93EF93FF938CE59AE031
:1058900095DDFF91EF91BF91AF919F918F917F9196
:1058A0006F915F914F913F912F910F900BBE0F9091
:1058B0000FBE0F901F9018951F920F920FB60F9268
:1058C00011240BB60F922F933F934F935F936F93D7
:1058D0007F938F939F93AF93BF93EF93FF9384EB4B
:1058E0009BE0E6DDFF91EF91BF91AF919F918F918A
:1058F0007F916F915F914F913F912F910F900BBED0
:105900000F900FBE0F901F9018951F920F920FB619
:105910000F9211240BB60F922F933F934F935F93E7
:105920006F937F938F939F93AF93BF93EF93FF9367
:1059300084EB9BE043DDFF91EF91BF91AF919F918D
:105940008F917F916F915F914F913F912F910F9028
:105950000BBE0F900FBE0F901F9018951F920F92C5
:105960000FB60F9211240BB60F922F933F934F93C4
:105970005F936F937F938F939F93AF93BF93EF93B7
:10598000FF938EE298E094DDFF91EF91BF91AF918C
:105990009F918F917F916F915F914F913F912F9147
:1059A0000F900BBE0F900FBE0F901F9018951F9277
:1059B0000F920FB60F9211240BB60F922F933F93B5
:1059C0004F935F936F937F938F939F93AF93BF9307
:1059D000EF93FF938EE298E0F1DCFF91EF91BF919E
:1059E000AF919F918F917F916F915F914F913F9177
:1059F0002F910F900BBE0F900FBE0F901F90189518
:105A00001F920F920FB60F9211240BB60F922F9385
:105A10003F934F935F936F937F938F939F93AF9336
:105A2000BF93EF93FF938CE09DE042DDFF91EF91F8
:105A3000BF91AF919F918F917F916F915F914F91A6
:105A40003F912F910F900BBE0F900FBE0F901F90A4
:105A500018951F920F920FB60F9211240BB60F924A
:105A60002F933F934F935F936F937F938F939F9366
:105A7000AF93BF93EF93FF938CE09DE09FDCFF918A
:105A8000EF91BF91AF919F918F917F916F915F91B6
:105A90004F913F912F910F900BBE0F900FBE0F9023
:105AA0001F901895CF93DF93282F30E0F901E25D26
:105AB000FC4F8491F901E851FD4FD491F901EE5565
:105AC000FD4FC491CC2389F08111A3DDEC2FF0E0D0
:105AD000EE0FFF1FE857FD4FA591B491EC91ED2318
