:100000000C9454090C948B210C9460210C94352190
:100010000C940A210C94DF200C94B4200C948920B9
:100020000C945E200C9437290C9437290C943729B2
:100030000C9485090C94E7220C9485090C9485098D
:100040000C9485090C9485090C9485090C948509F8
:100050000C9485090C9485090C9485090C94142042
:100060000C9485090C94B31D0C94FD1D0C9485090A
:100070000C9485090C9485090C9485090C948509C8
:100080000C9485090C9485090C9485090C948509B8
:100090000C94D6240C94AD240C9485090C94B621B0
:1000A0000C9485090C9485090C9485090C94850998
:1000B0000C9485090C9485090C9485090C94850988
:1000C0000C9485090C9485090C9485090C9484245E
:1000D0000C945B240C9485090C9432240C94092410
:1000E0000C948509380A3C0A6E0D050D420D6E0D03
:1000F000B50DB919C419DF19FB19171A171A331AD4
:10010000491A5F1A751A801B9E1BBC1BD61BE01B6D
:10011000EF1BCA1CCD1CBC1CC01CC61C041DD11C62
:10012000D51CDB1CDF1CE31CE91CED1CF11C041DB1
:10013000F71CFB1CFF1C23252925EA2542254A25FF
:100140008D259A2507634236B79BD8A71A3968567A
:1001500018AEBAAB558C1D3CB7CC5763BD6DEDFDE9
:10016000753EF6177231BF000000803F08000000A6
:10017000BE922449123EABAAAA2ABECDCCCC4C3E9C
:1001800000000080BEABAAAAAA3E00000000BF008B
:100190000000803F0000000000084178D3BB438787
:1001A000D1133D190E3CC3BD4282AD2B3E68EC829B
:1001B00076BED98FE1A93E4C80EFFFBE01C4FF7F20
:1001C0003F000000000000002100240027002A005A
:1001D0002D003000330001010000040107010A0175
:1001E00000002200250028002B002E0031003400E2
:1001F00002010000050108010B010000200023009E
:10020000260029002C002F0032000001000003010D
:100210000601090105050505070508080808020289
:1002200002020A0A08080404040401010101010190
:1002300001010303030303030303040707070C0C73
:100240000C0C0C0C0C0C020202020606060606063A
:1002500006060B0B0B0B0B0B0B0B010210202008DF
:100260000810204010204080020102010804020111
:100270000102040810204080804020100804020180
:1002800080040201804020100804020108040201D9
:100290000102040810204080010204081020408060
:1002A00000000A0B02090C0D0E08070304010000F0
:1002B000000000000000000000000000000000003E
:1002C00000000000000000000000000012111000FB
:1002D000000000000000000000000000000000001E
:1002E00000000000000020536D61727420436F6EA7
:1002F000666967207C2041636365737320506F6972
:100300006E742000202020202055534220202020E1
:10031000207C2020204D494449204F555420202046
:100320007C2020204170706C654D4944492020207C
:1003300000202020204C696E656172202020207CE6
:1003400020202020204C6F6720202020207C20208F
:1003500020416E74692D4C6F6720202000204E6F65
:100360007C596573002020204D6F6D656E7461723D
:100370007920207C20202020204C6174636820207C
:1003800020207C20202020416E616C6F672020207F
:10039000207C2020204A6F6720576865656C2020EC
:1003A0000020202020204D49444920202020207C6E
:1003B0002020202042616E6B202B202020207C20DA
:1003C00020202042616E6B202D202020207C2020C8
:1003D0002020204D656E7520202020207C202020AC
:1003E00020436F6E6669726D2020207C20202020C3
:1003F000457363617065202020207C202020202010
:100400004E65787420202020200030302043307C3E
:100410003031204323307C30322044307C30332054
:100420004423307C30342045307C30352046307CCD
:100430003036204623307C30372047307C3038201F
:100440004723307C30392041307C304120412330FB
:100450007C30422042307C30432043317C30442089
:100460004323317C30452044317C304620442331C5
:100470007C31302045317C31312046317C31322095
:100480004623317C31332047317C313420472331BE
:100490007C31352041317C3136204123317C31376C
:1004A0002042317C31382043327C313920432332A1
:1004B0007C31412044327C3142204423327C314320
:1004C0002045327C31442046327C3145204623325F
:1004D0007C31462047327C3230204723327C323117
:1004E0002041327C3232204123327C32332042326E
:1004F0007C32342043337C3235204323337C323604
:100500002044337C3237204423337C323820453337
:100510007C32392046337C3241204623337C3242C0
:100520002047337C3243204723337C3244204133FD
:100530007C3245204123337C32462042337C3330A9
:100540002043347C3331204323347C333220443401
:100550007C3333204423347C33342045347C33359E
:100560002046347C3336204623347C3337204734CE
:100570007C3338204723347C33392041347C334169
:10058000204123347C33422042347C3343204335A2
:100590007C3344204323357C33452044357C33462B
:1005A000204423357C34302045357C343120463599
:1005B0007C3432204623357C34332047357C343438
:1005C000204723357C34352041357C343620412387
:1005D000357C34372042357C34382043367C3439FE
:1005E000204323367C34412044367C34422044234B
:1005F000367C34432045367C34442046367C3445B2
:10060000204623367C34462047367C35302047232D
:10061000367C35312041367C3532204123367C35DD
:10062000332042367C35342043377C353520432314
:10063000377C35362044377C3537204423377C35AA
:10064000382045377C35392046377C3541204623D4
:10065000377C35422047377C3543204723377C356C
:10066000442041377C3545204123377C35462042A4
:10067000377C36302043387C3631204323387C3673
:10068000322044387C3633204423387C36342045AD
:10069000387C36352046387C3636204623387C3642
:1006A000372047387C3638204723387C363920417C
:1006B000387C3641204123387C36422042387C3613
:1006C000432043397C3644204323397C364520443B
:1006D000397C3646204423397C37302045397C37F5
:1006E000312046397C3732204623397C3733204746
:1006F000397C3734204723397C37352041397C37E2
:1007000036204123397C37372042397C3738204323
:1007100031307C373920432331307C37412044311C
:10072000307C374220442331307C37432045313000
:100730007C37442046327C3745204623327C37467E
:100740002047327C0030302042616E6B2053656C54
:100750006563747C3031204D6F64756C6174696FB2
:100760006E207C30322042726561746820436F6E67
:10077000747C303320556E646566696E6564202034
:100780007C303420466F6F7420436F6E74726F7CC0
:10079000303520506F7274616D656E746F547C30AB
:1007A000362044617461456E74724D53427C30371B
:1007B00020566F6C756D6520202020207C303820FD
:1007C00042616C616E6365202020207C30392055A9
:1007D0006E646566696E656420207C3041205061DE
:1007E0006E20202020202020207C30422045787060
:1007F00072657373696F6E207C3043204566666551
:10080000637420312020207C304420456666656377
:100810007420322020207C304520556E6465666946
:100820006E656420207C304620556E646566696E76
:10083000656420207C31302047656E507572706F82
:100840007365317C31312047656E507572706F73FE
:1008500065327C31322047656E507572706F7365FA
:10086000337C31332047656E507572706F73653419
:100870007C313420556E646566696E656420207C29
:10088000313520556E646566696E656420207C3163
:100890003620556E646566696E656420207C31374C
:1008A00020556E646566696E656420207C31382051
:1008B000556E646566696E656420207C313920550B
:1008C0006E646566696E656420207C314120556EDA
:1008D000646566696E656420207C314220556E64D3
:1008E0006566696E656420207C314320556E6465C1
:1008F00066696E656420207C314420556E646566AF
:10090000696E656420207C314520556E646566699A
:100910006E656420207C314620556E646566696E84
:10092000656420207C32302042616E6B2053656C00
:100930006563747C3231204D6F64756C6174696FCE
:100940006E207C32322042726561746820436F6E83
:10095000747C323320556E646566696E6564202050
:100960007C323420466F6F7420436F6E74726F7CDC
:10097000323520506F7274616D656E746F207C32F9
:10098000362044617461456E74724C53427C323738
:1009900020566F6C756D6520202020207C32382019
:1009A00042616C616E6365202020207C32392055C5
:1009B0006E646566696E656420207C3241205061FA
:1009C0006E20202020202020207C3242204578707C
:1009D00072657373696F6E207C324320456666656D
:1009E000637420312020207C324420456666656394
:1009F0007420322020207C324520556E6465666963
:100A00006E656420207C324620556E646566696E92
:100A1000656420207C33302047656E507572706F9E
:100A20007365317C33312047656E507572706F731A
:100A300065327C33322047656E507572706F736516
:100A4000337C33332047656E507572706F73653435
:100A50007C333420556E646566696E656420207C45
:100A6000333520556E646566696E656420207C337D
:100A70003620556E646566696E656420207C333768
:100A800020556E646566696E656420207C3338206D
:100A9000556E646566696E656420207C3339205527
:100AA0006E646566696E656420207C334120556EF6
:100AB000646566696E656420207C334220556E64EF
:100AC0006566696E656420207C334320556E6465DD
:100AD00066696E656420207C334420556E646566CB
:100AE000696E656420207C334520556E64656669B7
:100AF0006E656420207C334620556E646566696EA1
:100B0000656420207C34302044616D7065725065CE
:100B100064616C7C343120506F7274616D656E74E9
:100B20006F207C343220536F7374656E75746F2040
:100B3000207C343320536F667420506564616C20D0
:100B40007C3434204C656761746F20202020207C29
:100B5000343520486F6C64203220202020207C34E3
:100B60003620536F756E64436F6E7472317C343708
:100B700020536F756E64436F6E7472327C3438200C
:100B8000536F756E64436F6E7472337C34392053C7
:100B90006F756E64436F6E7472347C344120536F92
:100BA000756E64436F6E7472357C344220536F757A
:100BB0006E64436F6E7472367C344320536F756E6F
:100BC00064436F6E7472377C344420536F756E6467
:100BD000436F6E7472387C344520536F756E644376
:100BE0006F6E7472397C344620536F756E64436F38
:100BF0006E7431307C35302047656E507572706F81
:100C00007365357C35312047656E507572706F7332
:100C100065367C35322047656E507572706F73652E
:100C2000377C35332047656E507572706F73653849
:100C30007C353420506F7274616D656E746F437CC7
:100C4000353520556E646566696E656420207C3597
:100C50003620556E646566696E656420207C353784
:100C600020556E646566696E656420207C35382089
:100C700048522056656C6F636974797C353920550C
:100C80006E646566696E656420207C354120556E12
:100C9000646566696E656420207C35422045666621
:100CA00065637473203120207C354320456666657A
:100CB000637473203220207C35442045666665636A
:100CC0007473203320207C35452045666665637447
:100CD00073203420207C3546204566666563747336
:100CE000203520207C3630204461746120496E63B9
:100CF0002020207C363120446174612044656320CB
:100D000020207C3632204E52504E204C5342202020
:100D1000207C3633204E52504E204D53422020200E
:100D20007C36342052504E204C5342202020207CD0
:100D300036352052504E204D5342202020207C3604
:100D40003620556E646566696E656420207C363792
:100D500020556E646566696E656420207C36382097
:100D6000556E646566696E656420207C3639205551
:100D70006E646566696E656420207C373020556E30
:100D8000646566696E656420207C373120556E6429
:100D90006566696E656420207C373220556E646517
:100DA00066696E656420207C373320556E64656605
:100DB000696E656420207C373420556E64656669F1
:100DC0006E656420207C373420556E646566696EDC
:100DD000656420207C373520556E646566696E65D4
:100DE0006420207C373620556E646566696E6564C4
:100DF00020207C373720556E646566696E656420F7
:100E0000207C373820416C6C536F756E644F66667A
:100E10007C3739205265736574416C6C436F6E7C0E
:100E20003741204C6F63616C436F6E74726F7C3717
:100E30004220416C6C4E6F7465734F66667C37431D
:100E4000204F6D6E694D6F64654F66667C37442038
:100E50004F6D6E694D6F6465204F6E7C3745204D38
:100E60006F6E6F4D6F6465204F6E7C374620506FFC
:100E70006C794D6F6465204F6E0050726F677261C0
:100E80006D204368616E67657C20436F6E74726F7E
:100E90006C20436F6465207C20204E6F7465204F6A
:100EA0006E2F4F6666207C20205069746368204254
:100EB000656E64202000143E312D31303A20202010
:100EC0002020200000000200921902010000000012
:100ED0000A000000000A0000153E312D31363A208C
:100EE00020202020200000000200921902010000B2
:100EF000000010000000000A0000163E312D3136BF
:100F00003A20202020202000000002009219020137
:100F10000000000010000000000A000017000000A0
:100F20000000000000000000000000000000921916
:100F30000E00000000000000000000007A0E180003
:100F400000000000000000000000000000000000A1
:100F500092190E000000000000000000000045078C
:100F60001900000000000000000000000000000068
:100F7000000092190E0000000000000000000000B8
:100F80000A041A0000000000000000000000000039
:100F90000000000092190E00000000000000000098
:100FA0000000A1031B000000000000000000000082
:100FB00000000000000092190E0000000000000078
:100FC0000000000065031C496E766572743A2020AB
:100FD0002020000000000000921903000000000023
:100FE0000000000000005D031D436F6E6669726DB6
:100FF0000000000000000000050092190000000041
:10100000000000000000000000001E3E302D3130C6
:1010100032333A2020000000000002009219040040
:1010200000000000FF030000000A00001F3E302DFA
:10103000313032333A2020000000000002009219C3
:10104000040000000000FF030000000A0000200070
:101050000000000000000000000000000000000090
:1010600092190E0000000000000000000000310393
:10107000210000000000000000000000000000004F
:10108000000092190E0000000000000000000000A7
:101090000403220000000000000000000000000027
:1010A0000000000092190E00000000000000000087
:1010B0000000E60223436F6E6669726D0000000057
:1010C0000000000005009219000000000000000070
:1010D0000000000000000A42616E6B7320536574CB
:1010E00075700000000000000B0B506564616C73AC
:1010F00020536574757000000000000C0C4F707474
:10110000696F6E73000000000000000000000D1405
:1011100053656C6563742042616E6B0000000001D2
:1011200000141E53656C65637420506564616C0027
:1011300000000100151F5365744D4944494368611F
:101140006E6E656C00010016205365744D4944496C
:101150004D65737361676500010017215365742045
:101160004D49444920436F64650000010018225333
:101170006574204D494449204E6F7465000001009C
:10118000192853656C65637420506564616C0000B8
:1011900000010015295365742046756E6374696FEC
:1011A0006E00000001001A2A536574204D6F6465BB
:1011B0000000000000000001001B2B53657420504C
:1011C0006F6C617269747900000001001C2C43612E
:1011D0006C69627261746500000000000001001D0E
:1011E0002D536574205A65726F00000000000000E6
:1011F00001001E2E536574204D6178000000000030
:1012000000000001001F2F526573706F6E73652020
:1012100043757276650001002032496E746572660E
:10122000616365000000000000010021335769463A
:1012300069204D6F64650000000000000100223449
:10124000466163746F72792064656661756C7401C0
:1012500000230A506564616C696E6F28544D290043
:10126000000000000A0C000B42616E6B7320536596
:101270007475700000000000001422000C506564BA
:10128000616C732053657475700000000000282F96
:10129000000D4F7074696F6E730000000000000055
:1012A0000000003234006E3D11241FBECFEFD1E2AA
:1012B000DEBFCDBF00E00CBF13E0A0E0B2E0E2E78C
:1012C000F1E900E00BBF02C007900D92A838B1070A
:1012D000D9F72BE0A8E8B3E001C01D92AA35B20708
:1012E000E1F719E0C4E5D9E000E006C02197010963
:1012F000802FFE010E944744C335D10780E00807D4
:10130000A9F70E94763A0C94B7480C9400002F92EB
:101310003F924F925F926F927F928F929F92AF9285
:10132000BF92CF92DF92EF92FF920F931F93CF93D2
:10133000DF9300D000D0CDB7DEB721E030E0DC0194
:101340002D933C9303E414E0AAE0CA2ED12CBCE216
:10135000AB2EBB24B39484EFE82EFF24F394F80162
:1013600084859585009709F4A9C02081222309F47A
:10137000A5C0DC01ED91FC910280F381E02D19956F
:101380009C018230910509F47DC034F40097B1F1DD
:10139000019709F45EC080C08330910509F477C0DD
:1013A000049709F079C0D8011C96ED91FC911D9726
:1013B000148613868085846080871C96ED91FC914D
:1013C0001D97168615868085826080871C96ED9114
:1013D000FC911D97D08AC7868085816080871C9686
:1013E000ED91FC911D9780858B7F80871C96ED91F8
:1013F000FC911D9780858D7F80872BC0D8011C961E
:10140000ED91FC911D97B486A386808584608087CA
:101410001C96ED91FC911D97F686E586808582608D
:1014200080871C96ED91FC911D97F08AE786808558
:10143000816080871C96ED91FC911D97808584606A
:1014400080871C96ED91FC911D9780858260808736
:1014500023C0D801EC918E2F90E0FC013197E7304A
:10146000F105D0F48827EE58FF4F8F4F0C94474476
:10147000809142048F5F03C0809142048150809329
:1014800042040AC0F8018081833031F4BEC2D80121
:101490008C91833009F4F6C2232B81F0F801848506
:1014A0009585DC01ED91FC910480F581E02D199585
:1014B0008C3409F413C3823509F457C3025F1F4FFC
:1014C000B5E003321B0709F04ACF81EB97E0909318
:1014D000510B8093500B8091AE0790E09093530B8B
:1014E0008093520B80917B0890E09093550B8093F2
:1014F000540B8091AA07853009F0D9C28091B307B7
:101500009091B407885891098D35910588F48091A0
:10151000AE07843041F48091B5079091B60780976B
:10152000479708F43EC38091AE07843408F020C387
:101530008091AE078A3108F454C08091B107909130
:10154000B207843F914080F410924F0B10924E0BE3
:101550008FEF9FEFDC0180934A0B90934B0BA0938E
:101560004C0BB0934D0B5BC08091B3079091B407C7
:1015700085974B97B0F5E7EBF7E082E090E040E02D
:1015800050E0BA018C010F5F1F4F2091AE0730E091
:10159000021713076CF49F0122503109D9012D91D4
:1015A0003C91275031092730310508F432C3C80176
:1015B00001979595879590934F0B80934E0B0C97C1
:1015C0002CF410924F0B10924E0B0BC040934A0B11
:1015D00050934B0B60934C0B70934D0B84E090E059
:1015E000F1C38091AE078A3108F44DC08091B107F4
:1015F0009091B2078032934008F4A6CF8091B30750
:101600009091B407C697869708F41FC33CC04093D7
:101610004A0B50934B0B60934C0B70934D0B8BE02C
:1016200090E0D0C320813181255231092B31310521
:1016300008F01BC3440F551F661F771F41600296B9
:1016400034968C010F5F1F4F2091AE0730E00217D8
:10165000130764F49F0122503109D9012D913C9167
:101660002C5031092B303105E8F2C80101979595CE
:10167000879590934F0B80934E0B0C9744F61092E6
:101680004F0B10924E0B8091AE07823208F44AC085
:101690008091B3079091B4070697079708F042C06E
:1016A000E7EBF7E022E030E040E050E0BA01C901AA
:1016B0000196A091AE07B0E08A179B07CCF4DF013A
:1016C00012970D911C9111970E51110907311105B7
:1016D00008F0D8C2440F551F661F771F4160A081D4
:1016E000B18134961397159720F42E5F3F4FDFCFCB
:1016F000C90101979595879590934F0B80934E0B59
:1017000040972CF410924F0B10924E0B0BC040934D
:101710004A0B50934B0B60934C0B70934D0B8CE02A
:1017200090E050C31C821B8281E090E09A83898301
:101730008091AE078D3008F46BC049E753E0BE01DD
:101740006D5F7F4FCE0101960E94853F892B09F086
:101750005FC049E753E0BE016D5F7F4FCE01019648
:101760000E94853F019709F053C049E753E0BE014D
:101770006D5F7F4FCE0101960E94853F892B09F056
:1017800047C0C12CD12C760100E010E08091AE075B
:1017900090E029813A81281739075CF549E753E041
:1017A000BE016D5F7F4FCE0101960E94853F5C01B7
:1017B00049E753E0BE016D5F7F4FCE0101960E9465
:1017C000853FB1E0AB16B10449F4892B09F5CC0C87
:1017D000DD1CEE1CFF1C6894C0F808C0AB28C1F4E7
:1017E0000197B1F4CC0CDD1CEE1CFF1C0F5F1F4FEA
:1017F000CDCF10934F0B00934E0BC0924A0BD0925B
:101800004B0BE0924C0BF0924D0B81E090E0DAC272
:101810001C821B8281E090E09A8389838091520B25
:101820009091530B181619060CF058C0E091500B0C
:10183000F091510B82E090E09A83898382819381B9
:1018400089974E9708F04AC083E090E09A83898395
:10185000848195810B970A9708F040C04CEB51E0CA
:10186000BE016D5F7F4FCE0101960E94853F892B9F
:10187000A9F54CEB51E0BE016D5F7F4FCE010196A3
:101880000E94853F019751F5C12CD12C760100E0D3
:1018900010E029813A818091520B9091530B2817C7
:1018A00039070CF031C24CEB51E0BE016D5F7F4F48
:1018B000CE0101960E94853F4C010330110509F0CD
:1018C000EDC14CEB51E0BE016D5F7F4FCE01019643
:1018D0000E94853F8816990609F4E0C1E091500BFB
:1018E000F091510B82819381C697869708F028C2A8
:1018F000848195814B97459708F022C2DF011696A7
:101900007F0126ECE20EF11C20E030E040E050E0E8
:1019100060E070E080E090E00D911C91119709501B
:1019200011090830110508F00BC212960D911C9197
:101930001397015111090D30110508F0F4C101E0B0
:101940000E94554421601496AE15BF0529F72093D7
:101950004A0B30934B0B40934C0B50934D0B00E2D2
:101960000E9470442093480B3093490B85E090E02F
:101970009093470B8093460B80E390E090934F0B3E
:1019800080934E0B80914A0B90914B0BA0914C0B86
:10199000B0914D0B22E02093AA071092AE078F3F23
:1019A000EFEF9E07AE07BE0799F185382AE7920749
:1019B0002FEFA207B10509F450C608F06CC2853AB2
:1019C000EAE59E07EFEFAE07B10509F45AC608F045
:1019D00046C6873D28E292072FEFA207B10509F41A
:1019E000BAC008F050C68D3FE2E09E07EFEFAE07A9
:1019F000B10509F0A8C010928D03809389039093DC
:101A00008A03A0938B03B0938C0383E090E078C6A5
:101A100020918D03253008F447C08091890390916F
:101A20008A03A0918B03B0918C038538FAE79F0756
:101A3000FFEFAF07B10509F410C608F4C8C185323D
:101A40003AED93073FEFA307B10509F4DDC508F4AC
:101A500048C085313AEE93073FEFA307B10509F47B
:101A600052C098F48D31F2EE9F07FFEFAF07B1053A
:101A700009F059C28093890390938A03A0938B0342
:101A8000B0938C0384E090E03BC68D3032EF930737
:101A90003FEFA307B10509F46EC28F3FEFEF9E073A
:101AA000AE07BE0709F048C22F5F20938D0387E081
:101AB00097E00E947A1C892B09F442C087E097E0E6
:101AC0000E94581C8534F1F224F4833409F49DCF2C
:101AD00037C08C3409F449C0823591F581E090E03B
:101AE0000FC68534FAEB9F07FFEFAF07B10509F486
:101AF000E4C108F009C28D3532EA93073FEFA3072E
:101B0000B10509F0FAC180918803882309F4DCC18A
:101B10006091C809862F84608093C8096C6083EC4B
:101B200099E00E94D127E091C309F091C40904848F
:101B3000F585E02D6FEF83EC99E0199510928803FD
:101B400080E090E0DDC58D3DF2E29F07FFEFAF073B
:101B5000B10509F05EC110928D03809389039093C3
:101B60008A03A0938B03B0938C0382E090E0C8C5F6
:101B70008091B5079091B607825491098E9708F02D
:101B8000D7CC20E030E080E090E0DC01F901E954BE
:101B9000F84F40815181495051094930510588F031
:101BA000C7CC8091B7079091B8070997099708F0BB
:101BB000BACC10924F0B10924E0B8FEF9FEFDC01BF
:101BC00017C2F901E754F84F40815181475151093B
:101BD0004231510588F4880F991FAA1FBB1F8160ED
:101BE0002C5F3F4F2038310589F620E230E03093FA
:101BF0004F0B20934E0BFCC140815181465051093F
:101C00004730510508F094CC880F991FAA1FBB1FBD
:101C1000E7CF20813181235131092F30310540F444
:101C2000440F551F661F771F416002963496AACC59
:101C3000208131812A5031092930310508F0D1CC79
:101C4000440F551F661F771FF0CF8091B507909105
:101C5000B607C697869708F016CDE9EBF7E083E064
:101C600090E040E050E0BA01ECCC208131812C5072
:101C700031092A30310508F006CD440F551F661F83
:101C8000771FDDCC0D90BC91A02D1C971B9708F001
:101C900049CD440F551F661F771F21CD4CEB51E0F6
:101CA000BE016D5F7F4FCE0101960E94853F5C01B2
:101CB0000330110569F44CEB51E0BE016D5F7F4FBD
:101CC000CE0101960E94853FA816B90609F006CEFE
:101CD0008114910459F4AA94AB2809F0FFCDCC0CDF
:101CE000DD1CEE1CFF1C6894C0F80BC08A94892888
:101CF00009F0F4CDAB2809F0F1CDCC0CDD1CEE1CC5
:101D0000FF1C0F5F1F4FC5CD10934F0B00934E0B61
:101D1000C0924A0BD0924B0BE0924C0BF0924D0BC1
:101D200082E090E04FC012960D911C9113970450E1
:101D300011090530110520F401E00E94554403CE3D
:101D40008091AE07893340F0828193818957910950
:101D50008335910508F465C28091AE07823209F49B
:101D600052C182819381895791098335910508F485
:101D7000D6C2828193818C549109C59708F04FC1D6
:101D80008091AE07843009F045C1848195818097A8
:101D9000479708F03FC1868197810997099708F016
:101DA00039C110924F0B10924E0B8FEF9FEFDC0159
:101DB00080934A0B90934B0BA0934C0BB0934D0B1D
:101DC00087E090E09093470B8093460BDBCD853AFC
:101DD000EAE59E07EFEFAE07B10509F452C458F5E6
:101DE000873D28E292072FEFA207B10509F4B5CE8F
:101DF000C8F48D3FE2E09E07EFEFAE07B10509F4AE
:101E0000FCCD8D3DF2E29F07FFEFAF07B10509F46E
:101E1000A4CE1092890310928A0310928B03109221
:101E20008C0345CE873B28E492072FEFA207B1052C
:101E300009F031C4E2CD8F38E0E79E07EFEFAE073F
:101E4000B10549F48093890390938A03A0938B038F
:101E5000B0938C0343CE8039F0E79F07FFEFAF07C5
:101E6000B10548F4873928E692072FEFA207B1059C
:101E700009F021C472CE8D38E2E79E07EFEFAE077E
:101E8000B10509F4FCC38738F8E79F07FFEFAF07F8
:101E9000B105C1F2BECF85322AED92072FEFA2071E
:101EA000B10509F4B1C308F04EC08534EAEB9E07D2
:101EB000EFEFAE07B10509F0A9C39091000281E0F0
:101EC000892780930002F3CDE091C309F091C40902
:101ED0000484F585E02D60E083EC99E0199560912C
:101EE000C8096B7F6093C809686083EC99E00E9421
:101EF000D12781E08093880323CE85359A4AAF4F5E
:101F0000B10509F4A8C385CF8D33F2EC9F07FFEF2D
:101F1000AF07B10509F496CF85339A4CAF4FB105A1
:101F200009F489C376CF873128EE92072FEFA207F5
:101F3000B10509F49FCD6DCF8F30904FAF4FB105F4
:101F400009F067CF5FC385312AEE92072FEFA20712
:101F5000B10509F4D8CD08F4BEC38F3020EF920745
:101F60002FEFA207B10509F44DC38D30924FAF4F4B
:101F7000B10509F04ECF82E090910002992339F02B
:101F80008150809342040E94D218C0D690CD90E038
:101F900001972EE0289F8001299F100D11240D5BD1
:101FA0001B4FD80119961C921E9218971A968D9164
:101FB0009C911B97DC01ED91FC910190F081E02D4B
:101FC000199580E0B0D568EC70E080E090E00E9468
:101FD000D01F81E090E0F80191878087828593850A
:101FE000DC01ED91FC910280F381E02D19955FCD2C
:101FF00080934A0B90934B0BA0934C0BB0934D0BDB
:1020000083E090E0DFCE828193810A97099708F4FC
:1020100067C1A7CE8091AE07843408F0E5C18091F6
:10202000AE07863460F1828193810C970B9708F498
:102030002CC225C0D90112966D917C9113976E51D7
:1020400071096731710508F058C2D701C601880FC0
:10205000991FAA1FBB1F6C017D016894C0F84E5FD9
:102060005F4F2C5F3F4F4534510509F429C2D90118
:102070006D917C916C5071096B307105D8F2809133
:10208000AE07883578F182819381855891098B3527
:10209000910508F442C226C0BC016F5F7F4FD80192
:1020A0002D913C91275031092730310508F044C269
:1020B000440F551F416002960C5F1F4F2091AE07E1
:1020C00030E024503109821793070CF03EC298018A
:1020D00022503109D9012D913C91295031092830E4
:1020E0003105D0F28091AE078032E1F48281938194
:1020F00006970697B8F4848195810997099790F41B
:102100009F012A5F3F4FBF01625C7F4FC12CD12CE2
:102110007601D9014D915C914650510946305105E7
:1021200008F42FC22091520B3091530B3E832D8324
:10213000263031050CF460C28F010A5F1F4F75EC29
:10214000C72E7DE9D72E7CE1E72E71E8F72EE3E07C
:102150002E2E312CD8016D917C91F8013497A080FE
:10216000B18080E090E00E94B3412B013C01B501B9
:1021700080E090E00E94B3414B015C012DEC3CEC0F
:102180004CE45FE30E949C439B01AC01C301B2019C
:102190000E94E54087FD17C02DEC3CEC4CE45FE36A
:1021A000C301B2010E949C439B01AC01C501B40173
:1021B0000E94E540E82F880FFF0BEE27FF0FEE1F70
:1021C000FF27319602C0E0E0F0E0A701960163E945
:1021D00071E080E091E00E941F446F01FF0FEE0864
:1021E000FF08C626D726E826F926BFEF2B1A3B0A9A
:1021F0000E5F1F4FED81FE812E163F0609F0AACF1C
:10220000C0924A0BD0924B0BE0924C0BF0924D0BCC
:1022100080E290E090934F0B80934E0B8FEF9FEFF7
:10222000D1CD84819581CA97899708F095CD9F017A
:102230002A5F3F4FC12CD12C760143E050E0D901F9
:102240006D917C916A5071096930710508F084CDF7
:10225000D90112966D917C91139766517109613184
:10226000710570F5D701C601880F991FAA1FBB1F02
:102270006C017D016894C0F84E5F5F4F2C5F3F4F4B
:102280004B335105E1F69F012A583F4FD9012D915B
:102290003C912A5031092930310508F05DCD2CE1FF
:1022A00030E030934F0B20934E0BC0924A0BD092EC
:1022B0004B0BE0924C0BF0924D0B8AE090E082CDFC
:1022C000D90112966D917C91139766507109673010
:1022D000710508F041CDCC0CDD1CEE1CFF1CCCCFF1
:1022E0002091AE07CF01820F911D820F911DDC015D
:1022F00012978D919C910A97099708F032CD109210
:102300004F0B10924E0B8FEF9FEFDC0180934A0B27
:1023100090934B0BA0934C0BB0934D0B62C08091EC
:10232000AE07813208F425CD84819581CA978997BB
:1023300008F01FCD9F012A5F3F4FC12CD12C7601A1
:1023400043E050E0D9016D917C916A507109693088
:10235000710508F00ECDD90112966D917C911397FD
:10236000665171096131710560F5D701C601880FA9
:10237000991FAA1FBB1F6C017D016894C0F84E5FB6
:102380005F4F2C5F3F4F43325105E1F69F012A5BBF
:102390003F4FD9012D913C912A5031092930310507
:1023A00008F0E7CC20E130E030934F0B20934E0B48
:1023B000C0924A0BD0924B0BE0924C0BF0924D0B1B
:1023C00010C0D90112966D917C91139766507109D6
:1023D0006730710508F0CDCCCC0CDD1CEE1CFF1C69
:1023E000CECF86E090E0EECC84819581895491092E
:1023F000C39708F014CE9F012A5F3F4FBF016A5771
:102400007F4FC12CD12C7601D9014D915C9149505F
:1024100051094930510508F002CED90112964D916B
:102420005C9113974651510941315105F0F4D701A0
:10243000C601880F991FAA1FBB1F6C017D016894FC
:10244000C0F82C5F3F4F26173707F1F620E230E047
:1024500030934F0B20934E0BC0924A0BD0924B0BF4
:10246000E0924C0BF0924D0BABCCD90112964D91F2
:102470005C911397465051094730510508F0CFCD74
:10248000CC0CDD1CEE1CFF1CDCCF848195810997F0
:10249000099708F0F4CD868197818C974F9708F0C3
:1024A000EECD8085918589974D9708F0E8CD9F0105
:1024B000265F3F4FC12CD12C760145E050E0D7CDAF
:1024C0009F0126573F4FD9012D913C912C50310946
:1024D0002B30310508F0D3CD20E230E030934F0BA4
:1024E00020934E0BC0924A0BD0924B0BE0924C0BB8
:1024F000F0924D0B88E090E065CCD90112966D9179
:102500007C911397695071096930710508F0B7CD56
:10251000CC0CDD1CEE1CFF1CA2CD84819581825465
:1025200091098E9708F0DECD8F01045C1F4F8DE17D
:1025300090E040E050E0C2CDD8012D913C9128516F
:10254000310922313105D0F0CB010197959587955E
:1025500090934F0B80934E0B8A970CF4C3CD052EAE
:10256000000C660B770B40934A0B50934B0B609318
:102570004C0B70934D0B89E090E024CC440F551F19
:102580009ACDD90112964D915C91139749515109F9
:102590004331510508F5D701C601880F991FAA1FBD
:1025A000BB1F6C017D016894C0F82C5F3F4F26175C
:1025B000370709F0AECD2EE030E030934F0B20937B
:1025C0004E0BC0924A0BD0924B0BE0924C0BF09208
:1025D0004D0B8FE090E0F6CBD90112964D915C91B6
:1025E0001397495051094930510508F09BCDCC0C47
:1025F000DD1CEE1CFF1CD9CF82E08093AA0710924D
:10260000AE0755CA85E0B8CC81E0B6CC8634FAEB8B
:102610009F07FFEFAF07B10580F08D33E2EC9E0717
:10262000EFEFAE07B10509F465C085339A4CAF4FA3
:10263000B10509F0EECB83E09FCC8D3522EA9207FD
:102640002FEFA207B10509F45ECA85359A4AAF4F4C
:10265000B10509F0DECB8AE08FCC86E08DCC8F38D7
:10266000E0E79E07EFEFAE07B10509F443C0D8F0ED
:102670008D38E2E79E07EFEFAE07B10521F588E060
:102680007BCC84E079CC873B28E492072FEFA2072C
:10269000B10509F4B0C9853B9A44AF4FB10509F0C3
:1026A000B8CB89E069CC873928E692072FEFA207DB
:1026B000B10509F450CA85399A46AF4FB10509F002
:1026C000A8CB87E059CC8738F8E79F07FFEFAF0723
:1026D000B10581F09ECB8D31E2EE9E07EFEFAE07A4
:1026E000B10559F08731F8EE9F07FFEFAF07B1054D
:1026F00021F08FCB10928D03A5CB10928D03BAC918
:1027000026960FB6F894DEBF0FBECDBFDF91CF91F6
:102710001F910F91FF90EF90DF90CF90BF90AF90FF
:102720009F908F907F906F905F904F903F902F90F1
:102730000895C6978131910514F080E190E09C01E5
:1027400097FF02C020E030E08EE0829FF001839F7F
:10275000F00D1124ED5BFB4F80859185861797075F
:1027600011F020938E038EE0829FF001839FF00D85
:102770001124ED5BFB4F71876087CB010895FC014D
:102780008189089580E090E008950895089508955E
:102790000895089508950F931F93CF93DF931F9289
:1027A000CDB7DEB78C01DC0112968D919C91139709
:1027B000DC01ED91FC91642B0190F081E02D2983E7
:1027C0001995F80182819381DC01ED91FC910190D2
:1027D000F081E02D2981622F1995F8018281938182
:1027E000DC01ED91FC910680F781E02D0F90DF91E7
:1027F000CF911F910F911994EF92FF920F93CF9366
:10280000DF931F92CDB7DEB77C01DC0112968D916C
:102810009C911397DC01ED91FC91642B0190F08168
:10282000E02D29831995F70182819381DC01ED91D7
:10283000FC910190F081E02D2981622F1995F7011B
:1028400082819381DC01ED91FC910190F081E02D7A
:10285000602F1995F70182819381DC01ED91FC9144
:102860000680F781E02D0F90DF91CF910F91FF90BF
:10287000EF901994CF93DF93EC018A819B81DC0167
:10288000ED91FC910084F185E02D1995181619063B
:102890005CF48A819B81DC01ED91FC910284F385DB
:1028A000E02D199581E001C080E0DF91CF9108957E
:1028B00008950895CF93DF93EB018130910569F17D
:1028C000CCF4892B09F073C020E042E060E183EC96
:1028D00099E00E94E02783EC99E00E94D9270E94AA
:1028E000D13640E150E060E270E087EB93E00E9477
:1028F000BD455DC082309105A9F0039709F057C02E
:1029000061E080E00E94973687EB93E00E94923668
:1029100061E080E00E94973647C083EC99E00E9416
:10292000D92745C060E080E00E94973687EB93E0AE
:102930000E94923660E080E00E94973665E373E083
:10294000CE010E94CF45892B19F485E593E01BC089
:1029500062E473E0CE010E94CF45892B29F58EE415
:1029600093E00E94923680914104893020F48DE6F4
:1029700093E00E9492368091420490E001960E947A
:102980001C3684E593E00E949236809141048930A0
:1029900020F48DE693E00E9492368091410490E00D
:1029A00001960E941C3603C0CE010E94923681E03F
:1029B000DF91CF9108958F929F92AF92BF92CF9265
:1029C000DF92EF92FF920F931F93CF93DF93C697FF
:1029D0008131910514F080E190E0EC0197FF02C095
:1029E000C0E0D0E08EE08C9FF0018D9FF00D1124AF
:1029F000ED5BFB4FC480D5806C157D0544F086816E
:102A000097819B01861797071CF49C0101C09601D2
:102A10000D2C000CEE08FF08C901330FAA0BBB0BED
:102A20009C01AD012C193D094E095F09AFEFB3E0E0
:102A30000E9445402EE02C9F80012D9F100D1124F7
:102A40000D5B1B4FF801268137814901330FAA081E
:102A5000BB08A50194012C193D094E095F090E948C
:102A60002940B901F80183818130D9F0823071F5B4
:102A7000B901330F880B990B0E94B54120E030EC6F
:102A80004FEF53E40E94E9400E94564120E030E0BD
:102A900040E85FE30E94804028EB3EE140E253E4DF
:102AA0000FC0B9016F5F7F4F072E000C880B990B89
:102AB0000E94B5410E94294329E23CE943E153E4E5
:102AC0000E949C430E94FF430E9482418EE08C9FA3
:102AD000F0018D9FF00D1124ED5BFB4F80859185FA
:102AE000861B970B97FF03C09195819591094F978E
:102AF00014F0C093A0038EE08C9FF0018D9FF00D29
:102B00001124ED5BFB4F71876087CB01DF91CF9183
:102B10001F910F91FF90EF90DF90CF90BF90AF90FB
:102B20009F908F9008958F929F92AF92BF92FF9245
:102B30000F931F93CF93DF93CDB7DEB761970FB697
:102B4000F894DEBF0FBECDBFF82E809188038111AF
:102B5000CDC08E010F5F1F4F81E1D8011D928A9574
:102B6000E9F73091A003D80120E04EE05AE0822F2F
:102B7000203108F08FE0489FF0011124ED5BFB4FFE
:102B8000908191110FC0831721F060857185672BAB
:102B900049F4652F0E942E44E92FF0E0E95BFD4FD8
:102BA000908101C090E29D932F5F203101F7F110D9
:102BB00007C0B80181EA93E00E94CF45892BA1F0BC
:102BC00081E1E1EAF3E0DF011D928A95E9F740E156
:102BD00050E0B801CF010E94DF4560E080E00E9434
:102BE0009736C8010E94923681E1F80111928A95C8
:102BF000E9F7F80101900020E9F72091420430E064
:102C00002F5F3F4F3F932F932CE533E03F932F935C
:102C1000CF0101979F938F930E94EE45E091A0030F
:102C20008EE0E89FF0011124ED5BFB4FA085B1859C
:102C30002AE030E00E944F442FEF33E040E050E0C4
:102C40000E94294049015A01D8010D900020E9F75E
:102C5000CD01A90161E572E001970E94DF45F8010D
:102C600001900020E9F7CF014AE050E048195909E6
:102C700064E673E001970E94DF450F900F900F907C
:102C80000F900F900F90F11007C0B8018FE893E0FC
:102C90000E94CF45892BA1F081E1EFE8F3E0DF014D
:102CA0001D928A95E9F740E150E0B801CF010E94FA
:102CB000DF4561E080E00E949736C8010E949236AD
:102CC00080910002882381F061E085E00E949736C0
:102CD0006091C809862F82608093C8096A6083EC7E
:102CE00099E00E94D12702C00E94D13661960FB6AA
:102CF000F894DEBF0FBECDBFDF91CF911F910F9132
:102D0000FF90BF90AF909F908F9008952F923F9229
:102D10004F925F926F927F928F929F92AF92BF92EB
:102D2000CF92DF92EF92FF920F931F93CF93DF9397
:102D3000C3E4D4E08E0177E7872E72E0972ED801A6
:102D40001A96ED91FC911B97309781F191828082C8
:102D5000278130852115310539F085819681D9018A
:102D600016969C938E931597809105079091060770
:102D7000E817F90721F430930607209305078581AA
:102D80009681009729F0DC0118963C932E931797B3
:102D90002091030730910407E217F30721F4909381
:102DA000040780930307CF010E942145025F1F4F54
:102DB000B5E003321B0719F680914004813039F0E9
:102DC00018F08230A1F009C088E29BE002C08EE1D9
:102DD0009BE090937D0880937C0855E4252E54E079
:102DE000352E16E3612C712C60E3F62E03C087E7C5
:102DF0009AE0EFCFF10131978081813009F4A3C0CF
:102E000020F0823009F413C17FC1888181115FC035
:102E1000809142044301880C991C860C971CF40194
:102E2000F89EE00DF11D11249F012D5D3A4F4901DF
:102E3000D9018C91813001F198F0823061F18330B9
:102E4000D9F587E190E00E948C442C018FE7E82EB1
:102E5000D40111960C91119712962C9140EE26C038
:102E600087E190E00E948C442C013FE7E32EF401BF
:102E70000181228140EC1AC087E190E00E948C44DD
:102E80002C012FE7E22ED40111960C911197129686
:102E90002C9140EB0BC087E190E00E948C442C0108
:102EA0009FE7E92EF4010181228140E9612FC201EF
:102EB0000E94C6295B864A868A859B85DC01ED9146
:102EC000FC910480F581E02D69E973E1199589E1B0
:102ED00090E00E948C444C010E94172927E332E0C5
:102EE000F40131832083148BC4014496968B858B27
:102EF00031E0378B108E9D868C86C4010E9463263C
:102F0000EC85FD8582E390E092878187ACE2B1E0B9
:102F1000B487A387808584608087EC85FD8524EF56
:102F200031E036872587808582608087EC85FD8546
:102F3000308B2787808581608087EC85FD85808543
:102F400088608087E1C0809142044301880C991C0D
:102F5000860C971CD401F89EA00DB11D1124FD0113
:102F6000ED5DFA4F4F018081813059F1B0F0823030
:102F7000C9F1833009F04FC08BE190E00E948C448E
:102F80002C0144E6A42EB12CC12CD12C5FE7E52EF8
:102F9000F4010181228140EE38C08BE190E00E9473
:102FA0008C442C01A4E6AA2EB12CC12CD12CBFE755
:102FB000EB2ED40111960C91119712962C9140ECA6
:102FC00024C08BE190E00E948C442C01E4E6AE2EFC
:102FD000B12CC12CD12CFFE7EF2EF401018122810D
:102FE00040EB13C08BE190E00E948C442C0164E61E
:102FF000A62EB12CC12CD12C7FE7E72ED40111963F
:103000000C91119712962C9140E9612FC2010E94F8
:103010008B295B864A868A859B85DC01ED91FC9134
:103020000480F581E02D69E973E119956DC088810F
:10303000811155C020914204C301880F991F860D4C
:10304000971DF29E800D911D1124FC01ED5DFA4F3C
:103050004F0180818130E1F070F0823019F18330CE
:1030600099F589E190E00E948C442C01F4010181E2
:1030700020E040EE23C089E190E00E948C442C01C6
:10308000D40111960C91119712962C9140EC16C018
:1030900089E190E00E948C442C01F401018122819D
:1030A00040EB0CC089E190E00E948C442C01D401DB
:1030B00011960C91119712962C9140E9612FC20143
:1030C0000E94F9295B864A868A859B85DC01ED9101
:1030D000FC910480F581E02D6BED74E119958AE196
:1030E00090E00E948C444C010E94172921E432E0B8
:1030F000F40131832083148B81E092E0968B858BE1
:1031000093E0978B9D868C86888181110DC0D101BB
:103110008C91882349F08A859B85DC01ED91FC9197
:103120000680F781E02D1995BFEF6B1A7B0A2E966A
:10313000EEE02E0E311C1F5F163409F05BCEDF91DE
:10314000CF911F910F91FF90EF90DF90CF90BF90A4
:10315000AF909F908F907F906F905F904F903F9037
:103160002F900895EF92FF920F931F93CF93DF93C9
:103170001F92CDB7DEB77C01FC0100811181C8012F
:1031800069830E9413406981681719F0C8010E9481
:103190001B40C7010F90DF91CF911F910F91FF90BE
:1031A000EF9008956F927F928F929F92AF92BF920D
:1031B000CF92DF92EF92FF920F931F93CF93DF9303
:1031C0001F921F92CDB7DEB787E7E82E83E0F82E77
:1031D00000E010E0F70161917F011A830983CE01BD
:1031E0000196C0DF0F5F1F4F0D30110599F7C12CFD
:1031F000D12C0DE010E07801E0E3EE0EF11C360179
:10320000601A710A4601FFEF8F1A9F0A801A910A0D
:10321000560182E0A80EB11CA01AB10AB301600FDA
:10322000711F6D5D7A4FC8010E941F3AB401600F93
:10323000711F6D5D7A4FC80101960E941F3AB5015A
:10324000600F711F6D5D7A4FC80102960E941F3A90
:103250000D5F1F4F0E151F0509F7F0E3CF0ED11CB0
:1032600087018DEEE81681E0F80629F603E414E004
:10327000B801C7010E941F3AB8016F5F7F4FC701B5
:1032800001960E941F3AB8016E5F7F4FC7010296F8
:103290000E941F3AB8016D5F7F4FC70103960E94DD
:1032A0001F3AB8016C5F7F4FC70104960E94F7393F
:1032B000B8016A5F7F4FC70106960E94F739E8E0C0
:1032C000EE0EF11C025F1F4FFDE6EF16F2E0FF0667
:1032D00079F662E474E08DE692E00E941F3A61E4C0
:1032E00074E08EE692E00E941F3A60E474E08FE69C
:1032F00092E00E941F3A6DE172E080E792E00E9446
:103300001F3A0F900F90DF91CF911F910F91FF9077
:10331000EF90DF90CF90BF90AF909F908F907F9075
:103320006F9008952F923F924F925F926F927F928B
:103330008F929F92AF92BF92CF92DF92EF92FF92C5
:103340000F931F93CF93DF9300D000D0CDB7DEB79C
:10335000082E000C990BAA0BBB0BFC017497E031F3
:10336000F10508F070C28827E758FF4F8F4F0C9483
:103370004744662319F0809142040AC08091B20349
:1033800081508093420428C2662399F080914104C1
:1033900090E00196092E000CAA0BBB0B8093B203A0
:1033A0009093B303A093B403B093B50302EB13E07F
:1033B00056C28091B2038150809341040DC2209186
:1033C00042048091410490E0FC01EE0FFF1FE80FE2
:1033D000F91F662341F080E3289FE00DF11D1124C1
:1033E000ED5DFA4F60C090E3299FE00DF11D1124BF
:1033F000ED5DFA4F60C0209142048091410490E05D
:10340000FC01EE0FFF1FE80FF91F662341F080E378
:10341000289FE00DF11D1124ED5DFA4F2EC090E3C1
:10342000299FE00DF11D1124ED5DFA4F2EC0209172
:1034300042048091410490E0FC01EE0FFF1FE80F71
:10344000F91F662341F080E3289FE00DF11D112450
:10345000ED5DFA4F3EC090E3299FE00DF11D112470
:10346000ED5DFA4F3EC0E0914104662341F02EE04D
:10347000E29FF0011124ED5BFB4F8081A5C18EE03E
:10348000E89FF0011124ED5BFB4F8091B203808334
:10349000A3C1E0914104662341F09EE0E99FF00161
:1034A0001124ED5BFB4F81818FC12EE0E29FF00183
:1034B0001124ED5BFB4F8091B20381838DC1E091BC
:1034C0004104662341F08EE0E89FF0011124ED5B9A
:1034D000FB4F828179C19EE0E99FF0011124ED5BF1
:1034E000FB4F8091B203828377C16111B6C1E09135
:1034F00041042EE0E29FF0011124ED5BFB4F81813E
:10350000823009F0A7C184D56B017C0183EC99E07E
:103510000E94D92760E080E00E94973600E110E029
:1035200085EA0E94113601501109D1F7E09141045A
:103530008EE0E89FF0011124ED5BFB4F8FEF93E0ED
:1035400095838483178216824EE0342E50E1252E17
:103550005FD5DC01CB018C199D09AE09BF09803410
:103560009F41A105B10508F075C1809141048A5CB5
:103570000E94372B2091410430E0329EF001339EAF
:10358000F00D1124ED5BFB4F44815581BC016D5E54
:103590007F4F641775071CF4AC014C5E5F4F329E81
:1035A000F001339EF00D1124ED5BFB4F55834483F6
:1035B00046815781BC0163517109461757071CF4B6
:1035C000AC0144515109329EF001339EF00D11249B
:1035D000ED5BFB4F578346831BD5DC01CB018C1978
:1035E0009D09AE09BF09BC01CD0134E0660F771F0C
:1035F000881F991F3A95D1F720E43FE140E050E061
:103600000E94294060E0822D821B0E9497368DE641
:1036100093E00E94923661E080E00E949736E0914C
:1036200041043E9EF0011124ED5BFB4F84819581A6
:103630000E941C36E1E0F0E0FE83ED83009141043E
:10364000309E800111240D5B1B4FF8016481758150
:103650006F5F7F4F072E000C880B990B0E94B541BE
:103660000E941E430E94F0419B01AC01F8010681BB
:103670001781B8016F5F7F4F072E000C880B990BE5
:1036800029833A834B835C830E94B5410E941E4389
:103690000E94F0412B013C01ED81FE81BF01FF0F33
:1036A000880B990B0E94B5414B015C0129813A813D
:1036B0004B815C8160E070E080E891E40E94804092
:1036C000A30192010E94804020E030E040E85FE3E7
:1036D0000E9480409B01AC01C501B4010E94E540FD
:1036E00087FF0AC08DE693E00E9492368D819E810D
:1036F00001969E838D83A2CFC8010E941C3628CFDD
:10370000E0914104662369F02EE0E29FF00111246C
:10371000ED5BFB4F8181823009F09FC084819581F0
:1037200039CE8EE0E89FF0011124ED5BFB4F8091D4
:10373000B2039091B303958384834EC0E09141041A
:10374000662369F09EE0E99FF0011124ED5BFB4FD9
:103750008181823009F081C0868197811BCE2EE065
:10376000E29FF0011124ED5BFB4F8091B203909139
:10377000B3039783868330C0E0914104662361F0F0
:103780008EE0E89FF0011124ED5BFB4F81818230D8
:1037900009F063C0838118C09EE0E99FF001112405
:1037A000ED5BFB4F8091B203838316C0662319F053
:1037B0008091400409C08091B203809340040CC002
:1037C000662331F080911D0290E0A0E0B0E0E6CDEC
:1037D0008091B20380931D0202EB13E038C06111A7
:1037E0003CC083EC99E00E94D927C12CD12C7601F2
:1037F00000E010E060E0C8010E941B40D701C60154
:103800002CE0B595A795979587952A95D1F760E017
:103810000E94973685EA0E9411360F5F1F4FEFE036
:10382000CE0ED11CE11CF11C0115F0E11F0711F7B0
:1038300099E088E10FB6F894A895809360000FBED8
:1038400090936000FFCF00E010E0611108C0AADC97
:103850005DDA05C000E010E0FACF00E010E0C8013A
:1038600026960FB6F894DEBF0FBECDBFDF91CF9185
:103870001F910F91FF90EF90DF90CF90BF90AF908E
:103880009F908F907F906F905F904F903F902F9080
:103890000895FC01538D448D252F30E0842F90E056
:1038A000821B930B541710F0CF960895019708953B
:1038B000FC01918D828D981761F0828DDF01A80F38
:1038C000B11D5D968C91928D9F5F9F73928F90E05A
:1038D00008958FEF9FEF0895FC01918D828D9817C9
:1038E00031F0828DE80FF11D858D90E008958FEF06
:1038F0009FEF0895FC01918D228D892F90E0805CCF
:103900009F4F821B91098F739927089580E090E063
:10391000892B19F060D7811116C080E090E0892BC7
:1039200019F050D7811112C080E090E0892B19F076
:1039300040D781110EC080E090E0892B79F030D71C
:1039400081110AC008950E940000E7CF0E94000084
:10395000EBCF0E940000EFCF0C940000089590E0A0
:10396000FC013197E231F10508F04EC08827E75796
:10397000FF4F8F4F0C944744809180008F7703C096
:10398000809180008F7D80938000089580918000D9
:10399000877FF9CF84B58F7702C084B58F7D84BDD2
:1039A00008958091B0008F7703C08091B0008F7D23
:1039B0008093B0000895809190008F7707C0809128
:1039C00090008F7D03C080919000877F809390004E
:1039D00008958091A0008F7707C08091A0008F7D0F
:1039E00003C08091A000877F8093A00008958091FC
:1039F00020018F7707C0809120018F7D03C08091C7
:103A00002001877F8093200108953FB7F89480912B
:103A10003C0490913D04A0913E04B0913F0426B532
:103A2000A89B05C02F3F19F00196A11DB11D3FBFF6
:103A3000BA2FA92F982F8827820F911DA11DB11D84
:103A4000BC01CD0142E0660F771F881F991F4A9580
:103A5000D1F70895089585ED8093BC008091BC0056
:103A600084FDFCCF1092110408954091EB03262FA2
:103A700030E0240F311D21323105DCF42091110496
:103A80002430C9F4FC0180E090E0861758F43091AE
:103A9000EB032191DC01A753BC4FA30FB11D2C9365
:103AA0000196F3CF8091EB03680F6093EB0380E006
:103AB000089581E0089582E0089508958FEF9FEFC3
:103AC00008958FEF9FEF08958091C80390E091953E
:103AD000819591090895CF93DF931F921F92CDB7DF
:103AE000DEB7CB01642F49835A83BFDF4981842F1E
:103AF0005A81952F0F900F90DF91CF910895CF931A
:103B0000DF931F92CDB7DEB7698361E0CE010196E6
:103B1000ACDF81E090E00F90DF91CF910895DC0160
:103B2000ED91FC910684F785E02D41E0199581E047
:103B300090E00895FC01A089B1898C91A689B7898C
:103B400082FD0FC09C91818D8F5F8F73228D8217B4
:103B500049F0218DDF01A20FB11D5D969C93818FED
:103B600008958C9108951F920F920FB60F92112411
:103B70000BB60F922F933F934F935F936F937F9367
:103B80008F939F93AF93BF93EF93FF938EE798E04C
:103B9000D1DFFF91EF91BF91AF919F918F917F9175
:103BA0006F915F914F913F912F910F900BBE0F90AE
:103BB0000FBE0F901F901895FC01848DDF01A80F98
:103BC000B11DA35ABF4F2C91848D90E001968F7345
:103BD0009927848FA689B7892C93A089B1898C9164
:103BE00080648C93938D848D981306C00288F3892A
:103BF000E02D80818F7D808308951F920F920FB6F4
:103C00000F9211240BB60F922F933F934F935F9314
:103C10006F937F938F939F93AF93BF93EF93FF9394
:103C20008EE798E0C9DFFF91EF91BF91AF919F912F
:103C30008F917F916F915F914F913F912F910F9055
:103C40000BBE0F900FBE0F901F901895EF92FF9232
:103C50000F931F93CF93DF93EC0181E0888F9B8DAF
:103C60008C8D981305C0E889F989808185FD23C072
:103C7000F62E0B8D10E00F5F1F4F0F731127E02EF4
:103C80008C8DE8120BC00FB607FCFACFE889F989D2
:103C9000808185FFF5CFCE018FDFF2CF8B8DFE01C6
:103CA000E80FF11DE35AFF4FF0820B8FEA89FB8981
:103CB0008081806207C0EE89FF896083E889F98985
:103CC00080818064808381E090E0DF91CF911F91BB
:103CD0000F91FF90EF900895CF93DF93EC01888DC3
:103CE0008823C1F0EA89FB89808185FD05C0A88908
:103CF000B9898C9186FD0EC00FB607FCF5CF808187
:103D000085FFF2CFA889B9898C9185FFEDCFCE01CF
:103D100053DFE8CFDF91CF910895CF93DF93282F22
:103D200030E0F901E056FD4F8491F901E65AFD4F6C
:103D3000D491F901EC5EFD4FC491CC2389F081113F
:103D40000EDEEC2FF0E0EE0FFF1FE650FE4FA591C8
:103D5000B491EC91ED2381E090E021F480E002C089
:103D600080E090E0DF91CF9108951F93CF93DF9390
:103D7000282F30E0F901E056FD4F8491F901E65A11
:103D8000FD4FD491F901EC5EFD4FC491CC23C1F0FD
:103D9000162F8111E4DDEC2FF0E0EE0FFF1FE05253
:103DA000FE4FA591B4918FB7F894111105C09C9165
:103DB000ED2FE095E92302C0EC91ED2BEC938FBF42
:103DC000DF91CF911F910895AF92BF92CF92DF9272
:103DD000EF92FF920F931F93CF93DF938C015C01BF
:103DE0008EE0A80EB11CE42EF12CC0E0D0E0C62E6F
:103DF000D12CCE15DF0571F0B6010C2E02C07595E1
:103E000067950A94E2F76170F50181915F01ADDF7A
:103E10002196EFCF61E0F8018585A7DF60E0F8012A
:103E20008585DF91CF911F910F91FF90EF90DF90EB
:103E3000CF90BF90AF9099CFFC0186898F3F71F0F2
:103E400021853285662319F0232B31F403C02130FC
:103E5000310511F461E001C060E087CF08950F9350
:103E60001F93CF93DF93EC01162F042F61E04130B5
:103E700009F060E08B8579DF8C858F3F11F060E081
:103E800074DF023079F08C8184FF02C048E00BC0FF
:103E9000612F70E084E0759567958A95E1F744E0BD
:103EA000CE0192DF44E0612FCE01DF91CF911F91CF
:103EB0000F918ACFCF93DF9390E0FC01E65AFD4F3C
:103EC0002491FC01EC5EFD4F8491882361F190E028
:103ED000880F991FFC01EA53FE4FC591D491FC0154
:103EE000E052FE4FA591B491611109C09FB7F894BB
:103EF0008881209582238883EC912E230BC0623029
:103F000061F49FB7F8943881822F8095832388834A
:103F1000EC912E2B2C939FBF06C08FB7F894E881AD
:103F20002E2B28838FBFDF91CF910895EF92FF92C0
:103F30001F93CF93DF93EC01162F7A0161E0812F5D
:103F4000B9DF1E8BFA86E986E881F9810484F5855C
:103F5000E02D60E0CE01DF91CF911F91FF90EF90B7
:103F60001994863308F0865390917B00282F28708F
:103F7000977F922B90937B008770806480937C0066
:103F800080917A00806480937A0080917A0086FD27
:103F9000FCCF809178002091790090E0922B0895D9
:103FA0008F929F92AF92BF92CF92DF92EF92FF9249
:103FB0006B017C012ADD4B015C01C114D104E104D9
:103FC000F104E9F022DDDC01CB0188199909AA0985
:103FD000BB09883E9340A105B10578F321E0C21AE0
:103FE000D108E108F10888EE880E83E0981EA11C34
:103FF000B11CC114D104E104F10421F7DECFFF901C
:10400000EF90DF90CF90BF90AF909F908F900895EA
:104010002FB7F894609138047091390480913A0474
:1040200090913B042FBF08951F920F920FB60F92ED
:1040300011242F933F938F939F93AF93BF938091BE
:10404000380490913904A0913A04B0913B04309126
:10405000370423E0230F2D3720F40196A11DB11D55
:1040600005C026E8230F0296A11DB11D2093370439
:104070008093380490933904A0933A04B0933B049E
:1040800080913C0490913D04A0913E04B0913F0486
:104090000196A11DB11D80933C0490933D04A09313
:1040A0003E04B0933F04BF91AF919F918F913F9198
:1040B0002F910F900FBE0F901F9018951F920F9287
:1040C0000FB60F9211240BB60F922F933F934F937D
:1040D0005F936F937F938F939F93AF93BF93EF9370
:1040E000FF93E0911B02F0911C021995FF91EF9153
:1040F000BF91AF919F918F917F916F915F914F9100
:104100003F912F910F900BBE0F900FBE0F901F90FD
:1041100018951F920F920FB60F9211240BB60F92A3
:104120002F933F934F935F936F937F938F939F93BF
:10413000AF93BF93EF93FF93E0911902F0911A02AE
:104140001995FF91EF91BF91AF919F918F917F91C1
:104150006F915F914F913F912F910F900BBE0F90F8
:104160000FBE0F901F9018951F920F920FB60F92CF
:1041700011240BB60F922F933F934F935F936F933E
:104180007F938F939F93AF93BF93EF93FF93E091B0
:104190000F02F09110021995FF91EF91BF91AF912D
:1041A0009F918F917F916F915F914F913F912F914F
:1041B0000F900BBE0F900FBE0F901F9018951F927F
:1041C0000F920FB60F9211240BB60F922F933F93BD
:1041D0004F935F936F937F938F939F93AF93BF930F
:1041E000EF93FF93E0910D02F0910E021995FF916C
:1041F000EF91BF91AF919F918F917F916F915F915F
:104200004F913F912F910F900BBE0F900FBE0F90CB
:104210001F9018951F920F920FB60F9211240BB694
:104220000F922F933F934F935F936F937F938F934F
:104230009F93AF93BF93EF93FF93E0911702F09199
:1042400018021995FF91EF91BF91AF919F918F91B6
:104250007F916F915F914F913F912F910F900BBE86
:104260000F900FBE0F901F9018951F920F920FB6D0
:104270000F9211240BB60F922F933F934F935F939E
:104280006F937F938F939F93AF93BF93EF93FF931E
:10429000E0911502F09116021995FF91EF91BF91EF
:1042A000AF919F918F917F916F915F914F913F91CE
:1042B0002F910F900BBE0F900FBE0F901F9018956F
:1042C0001F920F920FB60F9211240BB60F922F93DD
:1042D0003F934F935F936F937F938F939F93AF938E
:1042E000BF93EF93FF93E0911302F091140219959D
:1042F000FF91EF91BF91AF919F918F917F916F91BE
:104300005F914F913F912F910F900BBE0F900FBE79
:104310000F901F9018951F920F920FB60F921124B5
:104320000BB60F922F933F934F935F936F937F93AF
:104330008F939F93AF93BF93EF93FF93E0911102FD
:10434000F09112021995FF91EF91BF91AF919F915A
:104350008F917F916F915F914F913F912F910F902E
:104360000BBE0F900FBE0F901F9018951F920F92CB
:104370000FB60F9211240BB60F922F933F934F93CA
:104380005F936F937F938F939F93AF93BF93EF93BD
:10439000FF938091B900887F803609F49CC068F54E
:1043A000883209F45BC090F4803109F454C038F4C9
:1043B000882309F4F6C0883009F44DC0F5C088316F
:1043C00009F44CC0803209F45DC0EEC0803409F4B9
:1043D00068C048F4803309F455C0883309F0E4C05C
:1043E00080931004D8C0803509F44FC0883509F493
:1043F0005DC0883409F0D8C0D6C0883909F4C7C078
:10440000A8F4883709F467C038F4883609F463C023
:10441000803709F460C0C8C0883809F4B8C0803952
:1044200009F45FC0803809F0BFC05BC0803B09F46D
:1044300086C038F4803A09F466C0883A09F47FC02F
:10444000B3C0803C09F4A7C0883C09F4A4C0883BF1
:1044500009F48AC0A9C08091360410C09091350437
:1044600080913404981770F5E091350481E08E0F47
:1044700080933504F0E0EC5EFB4F80818093BB00BD
:1044800085EC86C0809310048EC0E091350481E0F5
:104490008E0F809335048091BB00F0E0EC5EFB4F03
:1044A000808390913504809134046EC0E09135048E
:1044B00081E08E0F809335048091BB00F0E0EC5ECC
:1044C000FB4F80838091130481116DC081E0809344
:1044D000120484EA61C083E08093110410920F04F7
:1044E000CFCF80910F04803208F051C0E0910F04CB
:1044F00081E08E0F80930F048091BB00F0E0E151CA
:10450000FC4F8083BDCF85EC8093BC0010921104DA
:1045100080910F04803230F4E0910F04F0E0E1511B
:10452000FC4F108260910F0470E0E091ED03F09178
:10453000EE038FEE93E0199510920F0435C084E0DE
:10454000809311041092EC031092EB03E091E903C5
:10455000F091EA0319958091EB03811105C081E088
:104560008093EB031092C903E091EC0381E08E0F7E
:104570008093EC03F0E0E753FC4F80818093BB0015
:104580009091EC038091EB03981708F479CF85E8BC
:104590008093BC0009C085EC8093BC00109211048C
:1045A00003C01092100457DAFF91EF91BF91AF91C1
:1045B0009F918F917F916F915F914F913F912F913B
:1045C0000F900BBE0F900FBE0F901F9018951F926B
:1045D0000F920FB60F9211240BB60F922F933F93A9
:1045E0004F935F936F937F938F939F93AF93BF93FB
:1045F000EF93FF938091AB0790DB2091AF07309151
:10460000B0072F5F3F4F3093B0072093AF079091D3
:10461000AE07953618F096E09093AA079091AA07F6
:104620009430C9F128F4923069F09330D1F05EC033
:10463000953009F451C0963009F058C091E090933C
:104640007B0851C0811152C02091AF073091B00753
:104650002436310508F442C010927B081092AE0750
:104660001CC0813009F042C0E091AE0791E09E0F7E
:104670009093AE07F0E02091AF073091B007EE0FB6
:10468000FF1FE655F84F308727831092B00710922E
:10469000AF0794E029C0811117C0E091AE0791E007
:1046A0009E0F9093AE07F0E02091AF073091B007D6
:1046B000EE0FFF1FE655F84F308727831092B007A3
:1046C0001092AF0793E010C02091AF073091B00770
:1046D0002536310558F007C0811108C01092B00787
:1046E0001092AF0703C095E09093AA079091AD0791
:1046F0009923B1F081110AC08091AC07882321F081
:104700008091AC0761E009C02F9A0AC08091AC0784
:10471000882329F08091AC0760E027DB01C02F9847
:10472000FF91EF91BF91AF919F918F917F916F9189
:104730005F914F913F912F910F900BBE0F900FBE45
:104740000F901F901895CF92DF92EF92FF920F93E8
:104750001F93CF93DF936C017A018B01C0E0D0E00F
:10476000CE15DF0589F0D8016D918D01D601ED914F
:10477000FC910190F081E02DC6011995892B11F46F
:104780007E0102C02196ECCFC701DF91CF911F912E
:104790000F91FF90EF90DF90CF9008950E94B94560
:1047A0008AED99E0A7D821E0892B09F420E0822F37
:1047B000089581E89AE09ED821E0892B09F420E051
:1047C000822F089587E097E095D821E0892B09F49E
:1047D00020E0822F08958EE798E08CD821E0892B85
:1047E00009F420E0822F08956115710579F0FB012D
:1047F00001900020E9F73197AF01461B570BDC0110
:10480000ED91FC910280F381E02D199480E090E01D
:1048100008951F920F920FB60F9211240BB60F92AC
:104820002F933F934F935F936F937F938F939F93B8
:10483000AF93BF93EF93FF938AED99E0BDD9FF91BA
:10484000EF91BF91AF919F918F917F916F915F9108
:104850004F913F912F910F900BBE0F900FBE0F9075
:104860001F9018951F920F920FB60F9211240BB63E
:104870000F922F933F934F935F936F937F938F93F9
:104880009F93AF93BF93EF93FF938AED99E052D933
:10489000FF91EF91BF91AF919F918F917F916F9118
:1048A0005F914F913F912F910F900BBE0F900FBED4
:1048B0000F901F9018951F920F920FB60F92112410
:1048C0000BB60F922F933F934F935F936F937F930A
:1048D0008F939F93AF93BF93EF93FF9381E89AE0F9
:1048E0006BD9FF91EF91BF91AF919F918F917F9184
:1048F0006F915F914F913F912F910F900BBE0F9051
:104900000FBE0F901F9018951F920F920FB60F9227
:1049100011240BB60F922F933F934F935F936F9396
:104920007F938F939F93AF93BF93EF93FF9381E810
:104930009AE000D9FF91EF91BF91AF919F918F9134
:104940007F916F915F914F913F912F910F900BBE8F
:104950000F900FBE0F901F9018951F920F920FB6D9
:104960000F9211240BB60F922F933F934F935F93A7
:104970006F937F938F939F93AF93BF93EF93FF9327
:1049800087E097E019D9FF91EF91BF91AF919F9187
:104990008F917F916F915F914F913F912F910F90E8
:1049A0000BBE0F900FBE0F901F9018951F920F9285
:1049B0000FB60F9211240BB60F922F933F934F9384
:1049C0005F936F937F938F939F93AF93BF93EF9377
:1049D000FF9387E097E0AED8FF91EF91BF91AF9141
:1049E0009F918F917F916F915F914F913F912F9107
:1049F0000F900BBE0F900FBE0F901F90189508954B
:104A0000089580E090E00895FC0172876187089521
:104A100021E0FC01228F0895CF92DF92EF92FF9266
:104A20000F931F93CF93DF93EC012A813B812730B3
:104A3000310508F0F4C0162FF9018827E556FF4F1D
:104A40008F4F0C944744662309F4EDC081E090E059
:104A5000B9C0DEDACC80DD80EE80FF80AB01BC0126
:104A60004C195D096E097F0989859A85A0E0B0E03F
:104A7000481759076A077B0708F4D5C083E090E020
:104A80009B838A83111120C0888582FF1AC084E02D
:104A900090E039C0611194C0BBDA0C811D812E8178
:104AA0003F81AB01BC01401B510B620B730B8B852B
:104AB0009C85A0E0B0E0481759076A077B0708F417
:104AC000B2C01B821A8226C0A3DA0C811D812E81FE
:104AD0003F81AB01BC01401B510B620B730B8D85F9
:104AE0009E85A0E0B0E0481759076A077B0708F4E5
:104AF0009AC08885837051F08BDA6C837D838E83B6
:104B00009F8385E090E09B838A838DC087E090E05F
:104B10009B838A8301E010E088C08885662311F0BA
:104B200080FD1BC081FD03C001E010E073C003E005
:104B300010E070C0611111C02530310531F4888555
:104B400081FD06C001E010E005C000E010E002C0F9
:104B500003E010E01B821A8268C05ADA0C811D81C2
:104B60002E813F81AB01BC01401B510B620B730BCB
:104B70008F859889092E000CAA0BBB0B4817590783
:104B80006A077B0708F44FC0888583FF08C02A8125
:104B90003B812630310519F404E010E002C001E049
:104BA00010E080FD03C087E090E002C086E090E066
:104BB0009B838A832DDA6C837D838E839F8335C0AC
:104BC00082E090E09B838A8323DA6C837D838E83EB
:104BD0009F8329C01DDACC80DD80EE80FF80AB0191
:104BE000BC014C195D096E097F0989859A85A0E091
:104BF000B0E0481759076A077B07A8F0111103C0F6
:104C000001E010E002C002E010E002DA6C837D8374
:104C10008E839F8387E090E09B838A8306C0611127
:104C200002C01B821A8200E010E0C801DF91CF9120
:104C30001F910F91FF90EF90DF90CF9008950F9309
:104C40001F93CF93DF93EC018C898BD9DC018F8983
:104C500060E070E090E0981709F1ED89FE89E60FB9
:104C6000F71F20813181428150E08901041B150B1F
:104C7000A017B10778F0240F351F2A173B0750F013
:104C8000892F90E0288D398D8217930749F01B8278
:104C90001A8206C09F5F6C5F7F4FDDCF60E009C066
:104CA00061E08217930709F060E0998F888F838114
:104CB000898BCE01DF91CF911F910F91ADCE60E036
:104CC000FC018489F7C80F931F93CF938C01C0E038
:104CD000F8018789C81790F4F801408D2C2F30E037
:104CE00085899689FC01E20FF31F411102C062E041
:104CF00001C060E08081DED8CF5FEACFCF911F9105
:104D00000F910895AF92BF92CF92DF92FF920F93CF
:104D10001F93CF93DF93EC01F12CC12CD12C0FEF1B
:104D20001FEF8F89F816C0F4AF2CB12CED89FE89E6
:104D3000EA0DFB1D80810E948D1E288D30E08217B8
:104D4000930741F40F3F8FEF180709F485018FEFA8
:104D5000C81AD80AF394E5CFCA94CD28B1F48A8949
:104D60009B890817190711F01B821A8261E0081746
:104D7000190709F060E01B8B0A8B8D899E89FC0165
:104D8000E00FF11F8081898B01C060E0CE01DF91CF
:104D9000CF911F910F91FF90DF90CF90BF90AF9078
:104DA0003BCE0F931F93CF93DF93EC018B85C7D638
:104DB0002A8D30E061E070E08217930711F460E023
:104DC00070E08B85E985FA8590E0199511E0892BD3
:104DD00009F410E08889181719F18989E881F981A7
:104DE000882361F00190F081E02DCE01199510D952
:104DF0006E8B7F8B888F998F198A11C00280F38107
:104E0000E02DCE011995E881F9810190F081E02D26
:104E1000CE011995FDD86E8B7F8B888F998F188B5B
:104E2000F7D80E891F89288D398DDC01CB01801BB5
:104E3000910BA20BB30B0A891B892C893D8908179A
:104E400019072A073B0760F48989811109C0E881A5
:104E5000F9810280F381E02DCE01199581E0898BE3
:104E6000DF91CF911F910F9108950F93FC018485DD
:104E7000803BD9F0803C71F1803909F042C08481D7
:104E800093812585899F200D112492814685899FD4
:104E9000400D1124A091A807B091A907078560E8EB
:104EA00012968D919C91139713C0848193812585CF
:104EB000899F200D112492814685899F400D1124E0
:104EC000E091A807F091A90700E060EB828193814F
:104ED000F3D217C0828D8823A1F084819381458508
:104EE000899F400D112492816685899F600D112450
:104EF000E091A807F091A907828193810F910C940A
:104F00007C390F9108950F93FC018485803BD9F083
:104F1000803C71F1803909F042C0848193812585FC
:104F2000899F200D112492814685899F400D11246F
:104F3000A091A807B091A907078560E912968D9105
:104F40009C91139713C0848193812585899F200D9F
:104F5000112492814685899F400D1124E091A80774
:104F6000F091A9070FE760EB82819381A5D217C06A
:104F7000828D811114C0848193814585899F400D64
:104F8000112492816685899F600D1124E091A80704
:104F9000F091A907828193810F910C947C390F9134
:104FA0000895DC01ED91FC910684F785E02D40E049
:104FB000199461E0F6DF8BE39FE10197F1F7089523
:104FC0000F931F93CF93DF93EC01423018F08C8145
:104FD00088608C834F836887222329F0413019F43D
:104FE0008C8184608C8364E670E080E090E00E94B5
:104FF000D01F6C8164FD31C0E881F9810684F7859A
:10500000E02D42E063E0CE0119958BE496E4019730
:10501000F1F7E881F9810684F785E02D42E063E04D
:10502000CE01199503E512E0C8010197F1F7E88177
:10503000F9810684F785E02D42E063E0CE01199501
:10504000C8010197F1F7E881F9810684F785E02D21
:1050500042E062E0CE01199514C06062CE01A1DF8A
:105060008BE496E40197F1F76C816062CE0199DFE1
:1050700003E512E0C8010197F1F76C816062CE018F
:1050800090DFC8010197F1F76C816062CE0189DF82
:105090008BEE90E00197F1F784E08D836CE0CE0118
:1050A00080DFCE0186DF82E08E8366E0CE0179DF8D
:1050B000E881F9810484F585E02D6FEFCE01DF9161
:1050C000CF911F910F9119942F923F924F925F921F
:1050D0006F927F928F929F92AF92BF92CF92DF9208
:1050E000EF92FF920F931F93CF93DF9300D01F9205
:1050F000CDB7DEB75C019E2C70E0615071091B01D9
:10510000280E391EDA01C9018827B7FD8395992732
:10511000AA27BB27882E882341F0CC24DD247601E2
:10512000C21AD30AE40AF50A02C069017A01A1147D
:10513000B10409F44EC0D1011C92802F90E0A0E090
:10514000B0E089839A83AB83BC83C701B601298110
:105150003A814B815C810E944F4029013A0169816B
:105160007A818B819C810E941F4497018601061BD6
:10517000170B280B390BB901A8010A3011052105BD
:10518000310518F4F10180E30BC0D901C8010A9779
:10519000A109B1090697A105B10528F4F10187E33A
:1051A000840F82931F01411451046104710431F092
:1051B000730162012A143B0441F606C0C1012A149E
:1051C0003B0451F4882019F083E2D5018C93C5018A
:1051D00017C080E090E014C0882039F011E0211A57
:1051E0003108FC0131972DE22083F101EA15FB051E
:1051F00071F3911002C080E201C080E38293F6CF88
:105200000F900F900F900F90DF91CF911F910F9102
:10521000FF90EF90DF90CF90BF90AF909F908F90D6
:105220007F906F905F904F903F902F900895FC017A
:105230008DE692E091838083138212828FEF9FEF3D
:10524000938B828B82E390E0928781878AEF90E054
:1052500094878387808528E532E0368725872CE28E
:1052600031E0308B2787877F8760808708951F9282
:105270000F920FB60F9211240F900FBE0F901F9038
:105280001895CB010895FC0172876187089521E08C
:10529000FC01268B0895CB010895FC01778B668B6A
:1052A000089521E0FC01208F0895CB010895FC01B1
:1052B00087E792E0918380831282138281E0848366
:1052C0001682158210861782809103079091040739
:1052D000892B21F4F0930407E0930307A0910507BD
:1052E000B0910607B087A783109721F01696FC931C
:1052F000EE931597F0930607E09305071682158243
:10530000089580E00895089508958091A4079091EC
:10531000A5070C9421459F92AF92BF92CF92DF9246
:10532000EF92FF920F931F93CF93DF93EC01162F11
:10533000942EF22EBCDF81EA92E09983888381E487
:1053400099E29A87898781E0888B898B1A8E163536
:1053500028F462E0812F0E945A1F03C0812F0E940F
:10536000F9351B879C86FD860E87EF86AA8ABB8A45
:10537000CC8ADD8ADF91CF911F910F91FF90EF9042
:10538000DF90CF90BF90AF909F900895DF92EF9203
:10539000FF920F931F93CF93DF93EC01162FD42E20
:1053A000F22E85DF83E992E0998388838BE499E28A
:1053B0009A87898781E0888B898B1A8A1B8A1C8A45
:1053C0001D8A1E8A163528F462E0812F0E945A1F1A
:1053D00003C0812F0E94F9351B87DC86FD860E876E
:1053E000EF86DF91CF911F910F91FF90EF90DF90AB
:1053F0000895CF92DF92EF92FF920F931F93CF9376
:10540000DF931F921F92CDB7DEB76C01F62E2A8371
:1054100049834DDF85E892E0F601918380838FEF29
:105420009FEF918B808B85E599E2978B868B108E11
:10543000F386498144872A812587068782E290E0A6
:105440000E948C448C0180E094E0F8019383828375
:1054500080E090E0A0E8B0E481879287A387B487DA
:10546000EE24E394E586168A178A108E118E128E2A
:1054700060E08F2D0E945A1F60E08F2D0E94B51EA4
:105480008F2D90E0F80191838083E0868AE097ED8C
:10549000A3E2BCE384839583A683B783F6011287D6
:1054A00001870F900F90DF91CF911F910F91FF9087
:1054B000EF90DF90CF9008950F934150607FDC0113
:1054C000ED91FC910F772F774F7060680480F58124
:1054D000E02D19950F9108950F93FC018485803B71
:1054E00089F1C8F4803909F059C0848193812585F8
:1054F000899F200D112492814685899F400D11249A
:10550000A091A807B091A907078560E812968D9130
:105510009C91139742C0803C39F1803E09F03EC017
:10552000848193810585899F000D11249281468590
:10553000899F400D1124E091A807F091A90720E070
:1055400060EE29C0848193812585899F200D1124D7
:1055500092814685899F400D1124E091A807F09122
:10556000A90700E060EB17C086898823B9F0848121
:1055700093814585899F400D112492816685899F7D
:10558000600D1124E091A807F091A9078281938111
:105590000F910C947C39828193818EDF0F91089555
:1055A0000F93FC018485803B89F1C8F4803909F0B0
:1055B00059C0848193812585899F200D1124928172
:1055C0004685899F400D1124A091A807B091A90795
:1055D000078560E912968D919C91139742C0803C9B
:1055E00039F1803E09F03EC0848193810585899F11
:1055F000000D112492814685899F400D1124E09170
:10560000A807F091A9072FE760EE29C08481938154
:105610002585899F200D112492814685899F400D03
:105620001124E091A807F091A9070FE760EB17C0DC
:105630008689811117C0848193814585899F400D9A
:10564000112492816685899F600D1124E091A8073D
:10565000F091A907828193810F910C947C3982810A
:1056600093812ADF0F91089580E090E00895CF9311
:10567000863518F4CF910C94B11FC82FF5DF009731
:1056800069F0DC01ED91FC91119713962C916C2F30
:10569000621B0680F781E02DCF91199480E090E0A5
:1056A000CF9108952F923F924F925F926F927F9287
:1056B0008F929F92AF92BF92CF92DF92EF92FF9222
:1056C0000F931F93CF93DF9300D01F921F92CDB7FC
:1056D000DEB79D838C83DC011B968C91C8DFBC01F7
:1056E000EC81FD81808D882331F08FEF93E02C01D8
:1056F000461A570AB201AC81BD811B968C911B974B
:105700005696ED91FC91579790E019957C01EC81AC
:10571000FD8121843284D1015D960D90BC91A02D34
:10572000BB83AA83F101B0A3A78F408449824420A0
:1057300009F450C08585882309F44CC0B7010F2CAB
:10574000000C880B990B0E94B5412B013C01D10143
:1057500019968D909D90AD90BC901C97A5019401D9
:105760000E94E54087FF0EC0B701660F771F072E26
:10577000000C880B990B0E94B541A50194010E9471
:10578000804025C0F101C280D380B6010D2C000CF1
:10579000880B990B0E94B541A50194010E9480409D
:1057A0009B01AC01C301B2010E94DD42181694F4C2
:1057B000B701660F771F6C197D09072E000C880B47
:1057C000990B0E94B541A50194010E9481400E945D
:1057D00082417B01D1011E964D905D906D907C9031
:1057E0005197B701FF0C880B990B0E94B541A3019B
:1057F00092010E9480406B017C0120E030E0A90111
:105800000E94DD4218161CF4C701B60103C0C7018F
:10581000B60190580E9487418B01F10186889788D4
:10582000A08CB18CA5019401C701B6010E948040F3
:105830002DEC3CEC4CEC5EE30E949C439B01AC01E4
:10584000C501B4010E9481404B015C01D101569613
:105850006D937D938D939C935997B981BB23F9F0F8
:1058600020E030E0A9010E94DD42181624F0B7FACA
:10587000B094B7F8B094F101218532854385548501
:10588000C501B4010E94E540881F8827881FD10107
:105890005A968C93882319F0C301B20178C0B801DD
:1058A00080E090E00E94B341F1012481358146817E
:1058B00057810E949C4320E030E040E85FE30E9473
:1058C00081409B01AC0160E070E080E89FE30E94B2
:1058D000E9409B01AC0160E070E080E89FE30E943A
:1058E00080409B01AC010E9481405B018C0120E063
:1058F00030E040E85FE30E94DD42181624F4A12C5A
:10590000B12C00E81FE39501A801C701B6010E9470
:105910009C439B01AC01C301B2010E9481406B0119
:105920007C01D1011E966D937D938D939C9351972D
:1059300020E030E0A9010E94E54087FF06C0F101A8
:1059400016861786108A118A1BC0D10112968D9176
:105950009C9113970197BC01990F880B990B0E949A
:10596000B5414B015C019B01AC01C701B6010E942E
:10597000DD4218162CF4F10186869786A08AB18A3A
:10598000D1011E966D917D918D919C9151970E94B0
:1059900082417B01F101768F658F81E04A805B80D7
:1059A000E414F50409F480E0D10191968C938823E6
:1059B00009F4ADC0EC81FD81808991894701881A85
:1059C000990AA12CB12C0E940820AC81BD8152966D
:1059D0000D911D912D913C9155972B013C01401A41
:1059E000510A620A730AA3019201C501B4010E941F
:1059F0004F40AC81BD811F962C931F975196FC920E
:105A0000EE9250970E940820EC81FD81628B738B8F
:105A1000848B958B8485803EC1F4970184E0220FAE
:105A2000331F8A95E1F78901000F012F001F110B29
:105A30001195948182814685989F400D1124E091B3
:105A4000A807F091A90760EE31C0803BE1F0803CEF
:105A500089F1803909F05BC0AC81BD8114969C91BD
:105A6000149712968C9112971E964C911E97989FA0
:105A7000400D1124E091A807F091A9071F960C9101
:105A80002E2D60E913C0EC81FD81848193812585F1
:105A9000899F200D112492814685899F400D1124F4
:105AA000E091A807F091A9070E2D60EB8281938108
:105AB00003DD2DC0AC81BD8114969C911497129684
:105AC0008C9112971E966C91989F600D1124E09115
:105AD000A807F091A9074E2D828193810F900F9016
